{
  "_format": "hh-sol-artifact-1",
  "contractName": "Pass",
  "sourceName": "contracts/Pass.sol",
  "abi": [
    {
      "inputs": [],
      "stateMutability": "nonpayable",
      "type": "constructor"
    },
    {
      "anonymous": false,
      "inputs": [
        {
          "indexed": true,
          "internalType": "address",
          "name": "account",
          "type": "address"
        },
        {
          "indexed": true,
          "internalType": "address",
          "name": "operator",
          "type": "address"
        },
        {
          "indexed": false,
          "internalType": "bool",
          "name": "approved",
          "type": "bool"
        }
      ],
      "name": "ApprovalForAll",
      "type": "event"
    },
    {
      "anonymous": false,
      "inputs": [
        {
          "indexed": true,
          "internalType": "address",
          "name": "previousOwner",
          "type": "address"
        },
        {
          "indexed": true,
          "internalType": "address",
          "name": "newOwner",
          "type": "address"
        }
      ],
      "name": "OwnershipTransferred",
      "type": "event"
    },
    {
      "anonymous": false,
      "inputs": [
        {
          "indexed": true,
          "internalType": "address",
          "name": "operator",
          "type": "address"
        },
        {
          "indexed": true,
          "internalType": "address",
          "name": "from",
          "type": "address"
        },
        {
          "indexed": true,
          "internalType": "address",
          "name": "to",
          "type": "address"
        },
        {
          "indexed": false,
          "internalType": "uint256[]",
          "name": "ids",
          "type": "uint256[]"
        },
        {
          "indexed": false,
          "internalType": "uint256[]",
          "name": "values",
          "type": "uint256[]"
        }
      ],
      "name": "TransferBatch",
      "type": "event"
    },
    {
      "anonymous": false,
      "inputs": [
        {
          "indexed": true,
          "internalType": "address",
          "name": "operator",
          "type": "address"
        },
        {
          "indexed": true,
          "internalType": "address",
          "name": "from",
          "type": "address"
        },
        {
          "indexed": true,
          "internalType": "address",
          "name": "to",
          "type": "address"
        },
        {
          "indexed": false,
          "internalType": "uint256",
          "name": "id",
          "type": "uint256"
        },
        {
          "indexed": false,
          "internalType": "uint256",
          "name": "value",
          "type": "uint256"
        }
      ],
      "name": "TransferSingle",
      "type": "event"
    },
    {
      "anonymous": false,
      "inputs": [
        {
          "indexed": false,
          "internalType": "string",
          "name": "value",
          "type": "string"
        },
        {
          "indexed": true,
          "internalType": "uint256",
          "name": "id",
          "type": "uint256"
        }
      ],
      "name": "URI",
      "type": "event"
    },
    {
      "inputs": [
        {
          "internalType": "address",
          "name": "account",
          "type": "address"
        },
        {
          "internalType": "uint256",
          "name": "id",
          "type": "uint256"
        }
      ],
      "name": "balanceOf",
      "outputs": [
        {
          "internalType": "uint256",
          "name": "",
          "type": "uint256"
        }
      ],
      "stateMutability": "view",
      "type": "function"
    },
    {
      "inputs": [
        {
          "internalType": "address[]",
          "name": "accounts",
          "type": "address[]"
        },
        {
          "internalType": "uint256[]",
          "name": "ids",
          "type": "uint256[]"
        }
      ],
      "name": "balanceOfBatch",
      "outputs": [
        {
          "internalType": "uint256[]",
          "name": "",
          "type": "uint256[]"
        }
      ],
      "stateMutability": "view",
      "type": "function"
    },
    {
      "inputs": [],
      "name": "devWallet",
      "outputs": [
        {
          "internalType": "address",
          "name": "",
          "type": "address"
        }
      ],
      "stateMutability": "view",
      "type": "function"
    },
    {
      "inputs": [
        {
          "internalType": "uint256",
          "name": "passId",
          "type": "uint256"
        },
        {
          "internalType": "uint256",
          "name": "qty",
          "type": "uint256"
        }
      ],
      "name": "getPassPrice",
      "outputs": [
        {
          "internalType": "uint256",
          "name": "",
          "type": "uint256"
        }
      ],
      "stateMutability": "view",
      "type": "function"
    },
    {
      "inputs": [
        {
          "internalType": "address",
          "name": "account",
          "type": "address"
        },
        {
          "internalType": "address",
          "name": "operator",
          "type": "address"
        }
      ],
      "name": "isApprovedForAll",
      "outputs": [
        {
          "internalType": "bool",
          "name": "",
          "type": "bool"
        }
      ],
      "stateMutability": "view",
      "type": "function"
    },
    {
      "inputs": [
        {
          "internalType": "uint256",
          "name": "amount",
          "type": "uint256"
        },
        {
          "internalType": "uint256",
          "name": "saleStartTime",
          "type": "uint256"
        },
        {
          "internalType": "uint256",
          "name": "_price",
          "type": "uint256"
        },
        {
          "internalType": "bytes",
          "name": "data",
          "type": "bytes"
        }
      ],
      "name": "mintPass",
      "outputs": [],
      "stateMutability": "nonpayable",
      "type": "function"
    },
    {
      "inputs": [],
      "name": "nextPassId",
      "outputs": [
        {
          "internalType": "uint256",
          "name": "",
          "type": "uint256"
        }
      ],
      "stateMutability": "view",
      "type": "function"
    },
    {
      "inputs": [],
      "name": "owner",
      "outputs": [
        {
          "internalType": "address",
          "name": "",
          "type": "address"
        }
      ],
      "stateMutability": "view",
      "type": "function"
    },
    {
      "inputs": [],
      "name": "ownerWallet",
      "outputs": [
        {
          "internalType": "address",
          "name": "",
          "type": "address"
        }
      ],
      "stateMutability": "view",
      "type": "function"
    },
    {
      "inputs": [
        {
          "internalType": "address",
          "name": "_user",
          "type": "address"
        }
      ],
      "name": "ownsPreviousCollectionNFT",
      "outputs": [
        {
          "internalType": "bool",
          "name": "",
          "type": "bool"
        }
      ],
      "stateMutability": "view",
      "type": "function"
    },
    {
      "inputs": [
        {
          "internalType": "uint256",
          "name": "",
          "type": "uint256"
        }
      ],
      "name": "passPrice",
      "outputs": [
        {
          "internalType": "uint256",
          "name": "",
          "type": "uint256"
        }
      ],
      "stateMutability": "view",
      "type": "function"
    },
    {
      "inputs": [
        {
          "internalType": "uint256",
          "name": "",
          "type": "uint256"
        }
      ],
      "name": "passSaleStartTime",
      "outputs": [
        {
          "internalType": "uint256",
          "name": "",
          "type": "uint256"
        }
      ],
      "stateMutability": "view",
      "type": "function"
    },
    {
      "inputs": [],
      "name": "previousCollectionAddress",
      "outputs": [
        {
          "internalType": "address",
          "name": "",
          "type": "address"
        }
      ],
      "stateMutability": "view",
      "type": "function"
    },
    {
      "inputs": [],
      "name": "priceInc",
      "outputs": [
        {
          "internalType": "uint256",
          "name": "",
          "type": "uint256"
        }
      ],
      "stateMutability": "view",
      "type": "function"
    },
    {
      "inputs": [
        {
          "internalType": "uint256",
          "name": "passId",
          "type": "uint256"
        },
        {
          "internalType": "uint256",
          "name": "qty",
          "type": "uint256"
        }
      ],
      "name": "purchasePass",
      "outputs": [],
      "stateMutability": "payable",
      "type": "function"
    },
    {
      "inputs": [],
      "name": "renounceOwnership",
      "outputs": [],
      "stateMutability": "nonpayable",
      "type": "function"
    },
    {
      "inputs": [
        {
          "internalType": "address",
          "name": "from",
          "type": "address"
        },
        {
          "internalType": "address",
          "name": "to",
          "type": "address"
        },
        {
          "internalType": "uint256[]",
          "name": "ids",
          "type": "uint256[]"
        },
        {
          "internalType": "uint256[]",
          "name": "amounts",
          "type": "uint256[]"
        },
        {
          "internalType": "bytes",
          "name": "data",
          "type": "bytes"
        }
      ],
      "name": "safeBatchTransferFrom",
      "outputs": [],
      "stateMutability": "nonpayable",
      "type": "function"
    },
    {
      "inputs": [
        {
          "internalType": "address",
          "name": "from",
          "type": "address"
        },
        {
          "internalType": "address",
          "name": "to",
          "type": "address"
        },
        {
          "internalType": "uint256",
          "name": "id",
          "type": "uint256"
        },
        {
          "internalType": "uint256",
          "name": "amount",
          "type": "uint256"
        },
        {
          "internalType": "bytes",
          "name": "data",
          "type": "bytes"
        }
      ],
      "name": "safeTransferFrom",
      "outputs": [],
      "stateMutability": "nonpayable",
      "type": "function"
    },
    {
      "inputs": [
        {
          "internalType": "address",
          "name": "operator",
          "type": "address"
        },
        {
          "internalType": "bool",
          "name": "approved",
          "type": "bool"
        }
      ],
      "name": "setApprovalForAll",
      "outputs": [],
      "stateMutability": "nonpayable",
      "type": "function"
    },
    {
      "inputs": [
        {
          "internalType": "address",
          "name": "_devWallet",
          "type": "address"
        }
      ],
      "name": "setDevWallet",
      "outputs": [],
      "stateMutability": "nonpayable",
      "type": "function"
    },
    {
      "inputs": [
        {
          "internalType": "address",
          "name": "_ownerWallet",
          "type": "address"
        }
      ],
      "name": "setOwnerWallet",
      "outputs": [],
      "stateMutability": "nonpayable",
      "type": "function"
    },
    {
      "inputs": [
        {
          "internalType": "uint256",
          "name": "passId",
          "type": "uint256"
        },
        {
          "internalType": "uint256",
          "name": "_price",
          "type": "uint256"
        }
      ],
      "name": "setPassPrice",
      "outputs": [],
      "stateMutability": "nonpayable",
      "type": "function"
    },
    {
      "inputs": [
        {
          "internalType": "address",
          "name": "_previousCollectionAddress",
          "type": "address"
        }
      ],
      "name": "setPreviousCollectionAddress",
      "outputs": [],
      "stateMutability": "nonpayable",
      "type": "function"
    },
    {
      "inputs": [
        {
          "internalType": "uint256",
          "name": "_priceInc",
          "type": "uint256"
        }
      ],
      "name": "setPriceInc",
      "outputs": [],
      "stateMutability": "nonpayable",
      "type": "function"
    },
    {
      "inputs": [
        {
          "internalType": "string",
          "name": "newuri",
          "type": "string"
        }
      ],
      "name": "setURI",
      "outputs": [],
      "stateMutability": "nonpayable",
      "type": "function"
    },
    {
      "inputs": [
        {
          "internalType": "bytes4",
          "name": "interfaceId",
          "type": "bytes4"
        }
      ],
      "name": "supportsInterface",
      "outputs": [
        {
          "internalType": "bool",
          "name": "",
          "type": "bool"
        }
      ],
      "stateMutability": "view",
      "type": "function"
    },
    {
      "inputs": [
        {
          "internalType": "address",
          "name": "newOwner",
          "type": "address"
        }
      ],
      "name": "transferOwnership",
      "outputs": [],
      "stateMutability": "nonpayable",
      "type": "function"
    },
    {
      "inputs": [
        {
          "internalType": "uint256",
          "name": "",
          "type": "uint256"
        }
      ],
      "name": "uri",
      "outputs": [
        {
          "internalType": "string",
          "name": "",
          "type": "string"
        }
      ],
      "stateMutability": "view",
      "type": "function"
    }
  ],
  "bytecode": "0x608060405260006004556601c6bf526340006005553480156200002157600080fd5b506040518060800160405280604d815260200162004311604d91396200004d816200007460201b60201c565b506200006e620000626200008960201b60201c565b6200009160201b60201c565b620004b8565b8060029081620000859190620003d1565b5050565b600033905090565b6000600360009054906101000a900473ffffffffffffffffffffffffffffffffffffffff16905081600360006101000a81548173ffffffffffffffffffffffffffffffffffffffff021916908373ffffffffffffffffffffffffffffffffffffffff1602179055508173ffffffffffffffffffffffffffffffffffffffff168173ffffffffffffffffffffffffffffffffffffffff167f8be0079c531659141344cd1fd0a4f28419497f9722a3daafe3b4186f6b6457e060405160405180910390a35050565b600081519050919050565b7f4e487b7100000000000000000000000000000000000000000000000000000000600052604160045260246000fd5b7f4e487b7100000000000000000000000000000000000000000000000000000000600052602260045260246000fd5b60006002820490506001821680620001d957607f821691505b602082108103620001ef57620001ee62000191565b5b50919050565b60008190508160005260206000209050919050565b60006020601f8301049050919050565b600082821b905092915050565b600060088302620002597fffffffffffffffffffffffffffffffffffffffffffffffffffffffffffffffff826200021a565b6200026586836200021a565b95508019841693508086168417925050509392505050565b6000819050919050565b6000819050919050565b6000620002b2620002ac620002a6846200027d565b62000287565b6200027d565b9050919050565b6000819050919050565b620002ce8362000291565b620002e6620002dd82620002b9565b84845462000227565b825550505050565b600090565b620002fd620002ee565b6200030a818484620002c3565b505050565b5b81811015620003325762000326600082620002f3565b60018101905062000310565b5050565b601f82111562000381576200034b81620001f5565b62000356846200020a565b8101602085101562000366578190505b6200037e62000375856200020a565b8301826200030f565b50505b505050565b600082821c905092915050565b6000620003a66000198460080262000386565b1980831691505092915050565b6000620003c1838362000393565b9150826002028217905092915050565b620003dc8262000157565b67ffffffffffffffff811115620003f857620003f762000162565b5b620004048254620001c0565b6200041182828562000336565b600060209050601f83116001811462000449576000841562000434578287015190505b620004408582620003b3565b865550620004b0565b601f1984166200045986620001f5565b60005b8281101562000483578489015182556001820191506020850194506020810190506200045c565b86831015620004a357848901516200049f601f89168262000393565b8355505b6001600288020188555050505b505050505050565b613e4980620004c86000396000f3fe6080604052600436106101b65760003560e01c80635edaf210116100ec578063b90155c71161008a578063bb5ed24111610064578063bb5ed24114610620578063e985e9c514610649578063f242432a14610686578063f2fde38b146106af576101b6565b8063b90155c71461058f578063baaefe5b146105cc578063bb542ef0146105f7576101b6565b80638da5cb5b116100c65780638da5cb5b146104e55780638ea5220f146105105780639335dcb71461053b578063a22cb46514610566576101b6565b80635edaf21014610475578063715018a6146104b257806374c9ece7146104c9576101b6565b80632eb2c2d61161015957806345f93f501161013357806345f93f50146103b95780634e1273f4146103e45780634f307d3b146104215780635e0ffccd1461044c576101b6565b80632eb2c2d61461032a5780633792c916146103535780633d0ed3d814610390576101b6565b80630b0d701d116101955780630b0d701d1461025e5780630e89341c1461029b5780631f53ac02146102d85780632c3e9d9d14610301576101b6565b8062fdd58e146101bb57806301ffc9a7146101f857806302fe530514610235575b600080fd5b3480156101c757600080fd5b506101e260048036038101906101dd91906123ba565b6106d8565b6040516101ef9190612409565b60405180910390f35b34801561020457600080fd5b5061021f600480360381019061021a919061247c565b6107a0565b60405161022c91906124c4565b60405180910390f35b34801561024157600080fd5b5061025c60048036038101906102579190612625565b610882565b005b34801561026a57600080fd5b506102856004803603810190610280919061266e565b610896565b6040516102929190612409565b60405180910390f35b3480156102a757600080fd5b506102c260048036038101906102bd919061266e565b6108ae565b6040516102cf919061271a565b60405180910390f35b3480156102e457600080fd5b506102ff60048036038101906102fa919061273c565b610942565b005b34801561030d57600080fd5b506103286004803603810190610323919061280a565b61098e565b005b34801561033657600080fd5b50610351600480360381019061034c9190612955565b610a40565b005b34801561035f57600080fd5b5061037a6004803603810190610375919061266e565b610ae1565b6040516103879190612409565b60405180910390f35b34801561039c57600080fd5b506103b760048036038101906103b2919061266e565b610af9565b005b3480156103c557600080fd5b506103ce610b0b565b6040516103db9190612409565b60405180910390f35b3480156103f057600080fd5b5061040b60048036038101906104069190612ae7565b610b11565b6040516104189190612c1d565b60405180910390f35b34801561042d57600080fd5b50610436610c2a565b6040516104439190612c4e565b60405180910390f35b34801561045857600080fd5b50610473600480360381019061046e919061273c565b610c50565b005b34801561048157600080fd5b5061049c6004803603810190610497919061273c565b610c9c565b6040516104a991906124c4565b60405180910390f35b3480156104be57600080fd5b506104c7610d49565b005b6104e360048036038101906104de9190612c69565b610d5d565b005b3480156104f157600080fd5b506104fa61102e565b6040516105079190612c4e565b60405180910390f35b34801561051c57600080fd5b50610525611058565b6040516105329190612c4e565b60405180910390f35b34801561054757600080fd5b5061055061107e565b60405161055d9190612c4e565b60405180910390f35b34801561057257600080fd5b5061058d60048036038101906105889190612cd5565b6110a4565b005b34801561059b57600080fd5b506105b660048036038101906105b19190612c69565b6110ba565b6040516105c39190612409565b60405180910390f35b3480156105d857600080fd5b506105e16111e8565b6040516105ee9190612409565b60405180910390f35b34801561060357600080fd5b5061061e6004803603810190610619919061273c565b6111ee565b005b34801561062c57600080fd5b5061064760048036038101906106429190612c69565b61123a565b005b34801561065557600080fd5b50610670600480360381019061066b9190612d15565b61125e565b60405161067d91906124c4565b60405180910390f35b34801561069257600080fd5b506106ad60048036038101906106a89190612d55565b6112f2565b005b3480156106bb57600080fd5b506106d660048036038101906106d1919061273c565b611393565b005b60008073ffffffffffffffffffffffffffffffffffffffff168373ffffffffffffffffffffffffffffffffffffffff1603610748576040517f08c379a000000000000000000000000000000000000000000000000000000000815260040161073f90612e5e565b60405180910390fd5b60008083815260200190815260200160002060008473ffffffffffffffffffffffffffffffffffffffff1673ffffffffffffffffffffffffffffffffffffffff16815260200190815260200160002054905092915050565b60007fd9b67a26000000000000000000000000000000000000000000000000000000007bffffffffffffffffffffffffffffffffffffffffffffffffffffffff1916827bffffffffffffffffffffffffffffffffffffffffffffffffffffffff1916148061086b57507f0e89341c000000000000000000000000000000000000000000000000000000007bffffffffffffffffffffffffffffffffffffffffffffffffffffffff1916827bffffffffffffffffffffffffffffffffffffffffffffffffffffffff1916145b8061087b575061087a82611416565b5b9050919050565b61088a611480565b610893816114fe565b50565b60076020528060005260406000206000915090505481565b6060600280546108bd90612ead565b80601f01602080910402602001604051908101604052809291908181526020018280546108e990612ead565b80156109365780601f1061090b57610100808354040283529160200191610936565b820191906000526020600020905b81548152906001019060200180831161091957829003601f168201915b50505050509050919050565b61094a611480565b80600960006101000a81548173ffffffffffffffffffffffffffffffffffffffff021916908373ffffffffffffffffffffffffffffffffffffffff16021790555050565b610996611480565b428310156109d9576040517f08c379a00000000000000000000000000000000000000000000000000000000081526004016109d090612f50565b60405180910390fd5b8160066000600454815260200190815260200160002081905550610a086109fe61102e565b6004548684611511565b826007600060045481526020019081526020016000208190555060046000815480929190610a3590612f9f565b919050555050505050565b610a486116c1565b73ffffffffffffffffffffffffffffffffffffffff168573ffffffffffffffffffffffffffffffffffffffff161480610a8e5750610a8d85610a886116c1565b61125e565b5b610acd576040517f08c379a0000000000000000000000000000000000000000000000000000000008152600401610ac490613059565b60405180910390fd5b610ada85858585856116c9565b5050505050565b60066020528060005260406000206000915090505481565b610b01611480565b8060058190555050565b60045481565b60608151835114610b57576040517f08c379a0000000000000000000000000000000000000000000000000000000008152600401610b4e906130eb565b60405180910390fd5b6000835167ffffffffffffffff811115610b7457610b736124fa565b5b604051908082528060200260200182016040528015610ba25781602001602082028036833780820191505090505b50905060005b8451811015610c1f57610bef858281518110610bc757610bc661310b565b5b6020026020010151858381518110610be257610be161310b565b5b60200260200101516106d8565b828281518110610c0257610c0161310b565b5b60200260200101818152505080610c1890612f9f565b9050610ba8565b508091505092915050565b600860009054906101000a900473ffffffffffffffffffffffffffffffffffffffff1681565b610c58611480565b80600860006101000a81548173ffffffffffffffffffffffffffffffffffffffff021916908373ffffffffffffffffffffffffffffffffffffffff16021790555050565b600080600860009054906101000a900473ffffffffffffffffffffffffffffffffffffffff16905060008173ffffffffffffffffffffffffffffffffffffffff166370a08231856040518263ffffffff1660e01b8152600401610cff9190612c4e565b602060405180830381865afa158015610d1c573d6000803e3d6000fd5b505050506040513d601f19601f82011682018060405250810190610d40919061314f565b11915050919050565b610d51611480565b610d5b60006119ea565b565b60011515610d6a33610c9c565b151514610d7657600080fd5b610d8082826110ba565b3414610dc1576040517f08c379a0000000000000000000000000000000000000000000000000000000008152600401610db8906131c8565b60405180910390fd5b80610dd3610dcd61102e565b846106d8565b11610e13576040517f08c379a0000000000000000000000000000000000000000000000000000000008152600401610e0a90613234565b60405180910390fd5b6007600083815260200190815260200160002054421015610e69576040517f08c379a0000000000000000000000000000000000000000000000000000000008152600401610e60906132c6565b60405180910390fd5b6000610e7c610e7661102e565b846106d8565b90506000600582610e8d9190613315565b905060008103610e9c57600590505b808310610f0a5760008184610eb19190613346565b905060006001600583610ec4919061337a565b610ece91906133ab565b905060055481610ede91906133df565b600660008881526020019081526020016000206000828254610f0091906133ab565b9250508190555050505b610f2d610f1561102e565b33868660405180602001604052806000815250611ab0565b60006064600834610f3e91906133df565b610f48919061337a565b9050600a60009054906101000a900473ffffffffffffffffffffffffffffffffffffffff1673ffffffffffffffffffffffffffffffffffffffff166108fc8234610f929190613346565b9081150290604051600060405180830381858888f19350505050158015610fbd573d6000803e3d6000fd5b50600960009054906101000a900473ffffffffffffffffffffffffffffffffffffffff1673ffffffffffffffffffffffffffffffffffffffff166108fc829081150290604051600060405180830381858888f19350505050158015611026573d6000803e3d6000fd5b505050505050565b6000600360009054906101000a900473ffffffffffffffffffffffffffffffffffffffff16905090565b600960009054906101000a900473ffffffffffffffffffffffffffffffffffffffff1681565b600a60009054906101000a900473ffffffffffffffffffffffffffffffffffffffff1681565b6110b66110af6116c1565b8383611d4b565b5050565b6000806110ce6110c861102e565b856106d8565b905060006006600086815260200190815260200160002054905060006005836110f79190613315565b90506000810361110657600590505b80851161112357848261111991906133df565b93505050506111e2565b6000828261113191906133df565b90506005548361114191906133ab565b9250600082876111519190613346565b90506000600582611162919061337a565b905060006005836111739190613315565b905060005b828110156111bd5760058761118d91906133df565b8561119891906133ab565b9450600554876111a891906133ab565b965080806111b590612f9f565b915050611178565b5085816111ca91906133df565b846111d591906133ab565b9350839750505050505050505b92915050565b60055481565b6111f6611480565b80600a60006101000a81548173ffffffffffffffffffffffffffffffffffffffff021916908373ffffffffffffffffffffffffffffffffffffffff16021790555050565b611242611480565b8060066000848152602001908152602001600020819055505050565b6000600160008473ffffffffffffffffffffffffffffffffffffffff1673ffffffffffffffffffffffffffffffffffffffff16815260200190815260200160002060008373ffffffffffffffffffffffffffffffffffffffff1673ffffffffffffffffffffffffffffffffffffffff16815260200190815260200160002060009054906101000a900460ff16905092915050565b6112fa6116c1565b73ffffffffffffffffffffffffffffffffffffffff168573ffffffffffffffffffffffffffffffffffffffff161480611340575061133f8561133a6116c1565b61125e565b5b61137f576040517f08c379a000000000000000000000000000000000000000000000000000000000815260040161137690613059565b60405180910390fd5b61138c8585858585611ab0565b5050505050565b61139b611480565b600073ffffffffffffffffffffffffffffffffffffffff168173ffffffffffffffffffffffffffffffffffffffff160361140a576040517f08c379a000000000000000000000000000000000000000000000000000000000815260040161140190613493565b60405180910390fd5b611413816119ea565b50565b60007f01ffc9a7000000000000000000000000000000000000000000000000000000007bffffffffffffffffffffffffffffffffffffffffffffffffffffffff1916827bffffffffffffffffffffffffffffffffffffffffffffffffffffffff1916149050919050565b6114886116c1565b73ffffffffffffffffffffffffffffffffffffffff166114a661102e565b73ffffffffffffffffffffffffffffffffffffffff16146114fc576040517f08c379a00000000000000000000000000000000000000000000000000000000081526004016114f3906134ff565b60405180910390fd5b565b806002908161150d91906136cb565b5050565b600073ffffffffffffffffffffffffffffffffffffffff168473ffffffffffffffffffffffffffffffffffffffff1603611580576040517f08c379a00000000000000000000000000000000000000000000000000000000081526004016115779061380f565b60405180910390fd5b600061158a6116c1565b9050600061159785611eb7565b905060006115a485611eb7565b90506115b583600089858589611f31565b8460008088815260200190815260200160002060008973ffffffffffffffffffffffffffffffffffffffff1673ffffffffffffffffffffffffffffffffffffffff168152602001908152602001600020600082825461161491906133ab565b925050819055508673ffffffffffffffffffffffffffffffffffffffff16600073ffffffffffffffffffffffffffffffffffffffff168473ffffffffffffffffffffffffffffffffffffffff167fc3d58168c5ae7397731d063d5bbf3d657854427343f4c083240f7aacaa2d0f62898960405161169292919061382f565b60405180910390a46116a983600089858589611f39565b6116b883600089898989611f41565b50505050505050565b600033905090565b815183511461170d576040517f08c379a0000000000000000000000000000000000000000000000000000000008152600401611704906138ca565b60405180910390fd5b600073ffffffffffffffffffffffffffffffffffffffff168473ffffffffffffffffffffffffffffffffffffffff160361177c576040517f08c379a00000000000000000000000000000000000000000000000000000000081526004016117739061395c565b60405180910390fd5b60006117866116c1565b9050611796818787878787611f31565b60005b84518110156119475760008582815181106117b7576117b661310b565b5b6020026020010151905060008583815181106117d6576117d561310b565b5b60200260200101519050600080600084815260200190815260200160002060008b73ffffffffffffffffffffffffffffffffffffffff1673ffffffffffffffffffffffffffffffffffffffff16815260200190815260200160002054905081811015611877576040517f08c379a000000000000000000000000000000000000000000000000000000000815260040161186e906139ee565b60405180910390fd5b81810360008085815260200190815260200160002060008c73ffffffffffffffffffffffffffffffffffffffff1673ffffffffffffffffffffffffffffffffffffffff168152602001908152602001600020819055508160008085815260200190815260200160002060008b73ffffffffffffffffffffffffffffffffffffffff1673ffffffffffffffffffffffffffffffffffffffff168152602001908152602001600020600082825461192c91906133ab565b925050819055505050508061194090612f9f565b9050611799565b508473ffffffffffffffffffffffffffffffffffffffff168673ffffffffffffffffffffffffffffffffffffffff168273ffffffffffffffffffffffffffffffffffffffff167f4a39dc06d4c0dbc64b70af90fd698a233a518aa5d07e595d983b8c0526c8f7fb87876040516119be929190613a0e565b60405180910390a46119d4818787878787611f39565b6119e2818787878787612118565b505050505050565b6000600360009054906101000a900473ffffffffffffffffffffffffffffffffffffffff16905081600360006101000a81548173ffffffffffffffffffffffffffffffffffffffff021916908373ffffffffffffffffffffffffffffffffffffffff1602179055508173ffffffffffffffffffffffffffffffffffffffff168173ffffffffffffffffffffffffffffffffffffffff167f8be0079c531659141344cd1fd0a4f28419497f9722a3daafe3b4186f6b6457e060405160405180910390a35050565b600073ffffffffffffffffffffffffffffffffffffffff168473ffffffffffffffffffffffffffffffffffffffff1603611b1f576040517f08c379a0000000000000000000000000000000000000000000000000000000008152600401611b169061395c565b60405180910390fd5b6000611b296116c1565b90506000611b3685611eb7565b90506000611b4385611eb7565b9050611b53838989858589611f31565b600080600088815260200190815260200160002060008a73ffffffffffffffffffffffffffffffffffffffff1673ffffffffffffffffffffffffffffffffffffffff16815260200190815260200160002054905085811015611bea576040517f08c379a0000000000000000000000000000000000000000000000000000000008152600401611be1906139ee565b60405180910390fd5b85810360008089815260200190815260200160002060008b73ffffffffffffffffffffffffffffffffffffffff1673ffffffffffffffffffffffffffffffffffffffff168152602001908152602001600020819055508560008089815260200190815260200160002060008a73ffffffffffffffffffffffffffffffffffffffff1673ffffffffffffffffffffffffffffffffffffffff1681526020019081526020016000206000828254611c9f91906133ab565b925050819055508773ffffffffffffffffffffffffffffffffffffffff168973ffffffffffffffffffffffffffffffffffffffff168573ffffffffffffffffffffffffffffffffffffffff167fc3d58168c5ae7397731d063d5bbf3d657854427343f4c083240f7aacaa2d0f628a8a604051611d1c92919061382f565b60405180910390a4611d32848a8a86868a611f39565b611d40848a8a8a8a8a611f41565b505050505050505050565b8173ffffffffffffffffffffffffffffffffffffffff168373ffffffffffffffffffffffffffffffffffffffff1603611db9576040517f08c379a0000000000000000000000000000000000000000000000000000000008152600401611db090613ab7565b60405180910390fd5b80600160008573ffffffffffffffffffffffffffffffffffffffff1673ffffffffffffffffffffffffffffffffffffffff16815260200190815260200160002060008473ffffffffffffffffffffffffffffffffffffffff1673ffffffffffffffffffffffffffffffffffffffff16815260200190815260200160002060006101000a81548160ff0219169083151502179055508173ffffffffffffffffffffffffffffffffffffffff168373ffffffffffffffffffffffffffffffffffffffff167f17307eab39ab6107e8899845ad3d59bd9653f200f220920489ca2b5937696c3183604051611eaa91906124c4565b60405180910390a3505050565b60606000600167ffffffffffffffff811115611ed657611ed56124fa565b5b604051908082528060200260200182016040528015611f045781602001602082028036833780820191505090505b5090508281600081518110611f1c57611f1b61310b565b5b60200260200101818152505080915050919050565b505050505050565b505050505050565b611f608473ffffffffffffffffffffffffffffffffffffffff166122ef565b15612110578373ffffffffffffffffffffffffffffffffffffffff1663f23a6e6187878686866040518663ffffffff1660e01b8152600401611fa6959493929190613b2c565b6020604051808303816000875af1925050508015611fe257506040513d601f19601f82011682018060405250810190611fdf9190613b9b565b60015b61208757611fee613bd5565b806308c379a00361204a5750612002613bf7565b8061200d575061204c565b806040517f08c379a0000000000000000000000000000000000000000000000000000000008152600401612041919061271a565b60405180910390fd5b505b6040517f08c379a000000000000000000000000000000000000000000000000000000000815260040161207e90613cf9565b60405180910390fd5b63f23a6e6160e01b7bffffffffffffffffffffffffffffffffffffffffffffffffffffffff1916817bffffffffffffffffffffffffffffffffffffffffffffffffffffffff19161461210e576040517f08c379a000000000000000000000000000000000000000000000000000000000815260040161210590613d8b565b60405180910390fd5b505b505050505050565b6121378473ffffffffffffffffffffffffffffffffffffffff166122ef565b156122e7578373ffffffffffffffffffffffffffffffffffffffff1663bc197c8187878686866040518663ffffffff1660e01b815260040161217d959493929190613dab565b6020604051808303816000875af19250505080156121b957506040513d601f19601f820116820180604052508101906121b69190613b9b565b60015b61225e576121c5613bd5565b806308c379a00361222157506121d9613bf7565b806121e45750612223565b806040517f08c379a0000000000000000000000000000000000000000000000000000000008152600401612218919061271a565b60405180910390fd5b505b6040517f08c379a000000000000000000000000000000000000000000000000000000000815260040161225590613cf9565b60405180910390fd5b63bc197c8160e01b7bffffffffffffffffffffffffffffffffffffffffffffffffffffffff1916817bffffffffffffffffffffffffffffffffffffffffffffffffffffffff1916146122e5576040517f08c379a00000000000000000000000000000000000000000000000000000000081526004016122dc90613d8b565b60405180910390fd5b505b505050505050565b6000808273ffffffffffffffffffffffffffffffffffffffff163b119050919050565b6000604051905090565b600080fd5b600080fd5b600073ffffffffffffffffffffffffffffffffffffffff82169050919050565b600061235182612326565b9050919050565b61236181612346565b811461236c57600080fd5b50565b60008135905061237e81612358565b92915050565b6000819050919050565b61239781612384565b81146123a257600080fd5b50565b6000813590506123b48161238e565b92915050565b600080604083850312156123d1576123d061231c565b5b60006123df8582860161236f565b92505060206123f0858286016123a5565b9150509250929050565b61240381612384565b82525050565b600060208201905061241e60008301846123fa565b92915050565b60007fffffffff0000000000000000000000000000000000000000000000000000000082169050919050565b61245981612424565b811461246457600080fd5b50565b60008135905061247681612450565b92915050565b6000602082840312156124925761249161231c565b5b60006124a084828501612467565b91505092915050565b60008115159050919050565b6124be816124a9565b82525050565b60006020820190506124d960008301846124b5565b92915050565b600080fd5b600080fd5b6000601f19601f8301169050919050565b7f4e487b7100000000000000000000000000000000000000000000000000000000600052604160045260246000fd5b612532826124e9565b810181811067ffffffffffffffff82111715612551576125506124fa565b5b80604052505050565b6000612564612312565b90506125708282612529565b919050565b600067ffffffffffffffff8211156125905761258f6124fa565b5b612599826124e9565b9050602081019050919050565b82818337600083830152505050565b60006125c86125c384612575565b61255a565b9050828152602081018484840111156125e4576125e36124e4565b5b6125ef8482856125a6565b509392505050565b600082601f83011261260c5761260b6124df565b5b813561261c8482602086016125b5565b91505092915050565b60006020828403121561263b5761263a61231c565b5b600082013567ffffffffffffffff81111561265957612658612321565b5b612665848285016125f7565b91505092915050565b6000602082840312156126845761268361231c565b5b6000612692848285016123a5565b91505092915050565b600081519050919050565b600082825260208201905092915050565b60005b838110156126d55780820151818401526020810190506126ba565b60008484015250505050565b60006126ec8261269b565b6126f681856126a6565b93506127068185602086016126b7565b61270f816124e9565b840191505092915050565b6000602082019050818103600083015261273481846126e1565b905092915050565b6000602082840312156127525761275161231c565b5b60006127608482850161236f565b91505092915050565b600067ffffffffffffffff821115612784576127836124fa565b5b61278d826124e9565b9050602081019050919050565b60006127ad6127a884612769565b61255a565b9050828152602081018484840111156127c9576127c86124e4565b5b6127d48482856125a6565b509392505050565b600082601f8301126127f1576127f06124df565b5b813561280184826020860161279a565b91505092915050565b600080600080608085870312156128245761282361231c565b5b6000612832878288016123a5565b9450506020612843878288016123a5565b9350506040612854878288016123a5565b925050606085013567ffffffffffffffff81111561287557612874612321565b5b612881878288016127dc565b91505092959194509250565b600067ffffffffffffffff8211156128a8576128a76124fa565b5b602082029050602081019050919050565b600080fd5b60006128d16128cc8461288d565b61255a565b905080838252602082019050602084028301858111156128f4576128f36128b9565b5b835b8181101561291d578061290988826123a5565b8452602084019350506020810190506128f6565b5050509392505050565b600082601f83011261293c5761293b6124df565b5b813561294c8482602086016128be565b91505092915050565b600080600080600060a086880312156129715761297061231c565b5b600061297f8882890161236f565b95505060206129908882890161236f565b945050604086013567ffffffffffffffff8111156129b1576129b0612321565b5b6129bd88828901612927565b935050606086013567ffffffffffffffff8111156129de576129dd612321565b5b6129ea88828901612927565b925050608086013567ffffffffffffffff811115612a0b57612a0a612321565b5b612a17888289016127dc565b9150509295509295909350565b600067ffffffffffffffff821115612a3f57612a3e6124fa565b5b602082029050602081019050919050565b6000612a63612a5e84612a24565b61255a565b90508083825260208201905060208402830185811115612a8657612a856128b9565b5b835b81811015612aaf5780612a9b888261236f565b845260208401935050602081019050612a88565b5050509392505050565b600082601f830112612ace57612acd6124df565b5b8135612ade848260208601612a50565b91505092915050565b60008060408385031215612afe57612afd61231c565b5b600083013567ffffffffffffffff811115612b1c57612b1b612321565b5b612b2885828601612ab9565b925050602083013567ffffffffffffffff811115612b4957612b48612321565b5b612b5585828601612927565b9150509250929050565b600081519050919050565b600082825260208201905092915050565b6000819050602082019050919050565b612b9481612384565b82525050565b6000612ba68383612b8b565b60208301905092915050565b6000602082019050919050565b6000612bca82612b5f565b612bd48185612b6a565b9350612bdf83612b7b565b8060005b83811015612c10578151612bf78882612b9a565b9750612c0283612bb2565b925050600181019050612be3565b5085935050505092915050565b60006020820190508181036000830152612c378184612bbf565b905092915050565b612c4881612346565b82525050565b6000602082019050612c636000830184612c3f565b92915050565b60008060408385031215612c8057612c7f61231c565b5b6000612c8e858286016123a5565b9250506020612c9f858286016123a5565b9150509250929050565b612cb2816124a9565b8114612cbd57600080fd5b50565b600081359050612ccf81612ca9565b92915050565b60008060408385031215612cec57612ceb61231c565b5b6000612cfa8582860161236f565b9250506020612d0b85828601612cc0565b9150509250929050565b60008060408385031215612d2c57612d2b61231c565b5b6000612d3a8582860161236f565b9250506020612d4b8582860161236f565b9150509250929050565b600080600080600060a08688031215612d7157612d7061231c565b5b6000612d7f8882890161236f565b9550506020612d908882890161236f565b9450506040612da1888289016123a5565b9350506060612db2888289016123a5565b925050608086013567ffffffffffffffff811115612dd357612dd2612321565b5b612ddf888289016127dc565b9150509295509295909350565b7f455243313135353a2061646472657373207a65726f206973206e6f742061207660008201527f616c6964206f776e657200000000000000000000000000000000000000000000602082015250565b6000612e48602a836126a6565b9150612e5382612dec565b604082019050919050565b60006020820190508181036000830152612e7781612e3b565b9050919050565b7f4e487b7100000000000000000000000000000000000000000000000000000000600052602260045260246000fd5b60006002820490506001821680612ec557607f821691505b602082108103612ed857612ed7612e7e565b5b50919050565b7f5061737365733a2053616c652073746172742074696d652073686f756c64206260008201527f6520696e20746865206675747572650000000000000000000000000000000000602082015250565b6000612f3a602f836126a6565b9150612f4582612ede565b604082019050919050565b60006020820190508181036000830152612f6981612f2d565b9050919050565b7f4e487b7100000000000000000000000000000000000000000000000000000000600052601160045260246000fd5b6000612faa82612384565b91507fffffffffffffffffffffffffffffffffffffffffffffffffffffffffffffffff8203612fdc57612fdb612f70565b5b600182019050919050565b7f455243313135353a2063616c6c6572206973206e6f7420746f6b656e206f776e60008201527f6572206f7220617070726f766564000000000000000000000000000000000000602082015250565b6000613043602e836126a6565b915061304e82612fe7565b604082019050919050565b6000602082019050818103600083015261307281613036565b9050919050565b7f455243313135353a206163636f756e747320616e6420696473206c656e67746860008201527f206d69736d617463680000000000000000000000000000000000000000000000602082015250565b60006130d56029836126a6565b91506130e082613079565b604082019050919050565b60006020820190508181036000830152613104816130c8565b9050919050565b7f4e487b7100000000000000000000000000000000000000000000000000000000600052603260045260246000fd5b6000815190506131498161238e565b92915050565b6000602082840312156131655761316461231c565b5b60006131738482850161313a565b91505092915050565b7f5061737365733a20496e636f72726563742045746865722073656e7400000000600082015250565b60006131b2601c836126a6565b91506131bd8261317c565b602082019050919050565b600060208201905081810360008301526131e1816131a5565b9050919050565b7f5061737365733a204f7574206f662073746f636b000000000000000000000000600082015250565b600061321e6014836126a6565b9150613229826131e8565b602082019050919050565b6000602082019050818103600083015261324d81613211565b9050919050565b7f5061737365733a2053616c6520686173206e6f74207374617274656420666f7260008201527f2074686973207061737300000000000000000000000000000000000000000000602082015250565b60006132b0602a836126a6565b91506132bb82613254565b604082019050919050565b600060208201905081810360008301526132df816132a3565b9050919050565b7f4e487b7100000000000000000000000000000000000000000000000000000000600052601260045260246000fd5b600061332082612384565b915061332b83612384565b92508261333b5761333a6132e6565b5b828206905092915050565b600061335182612384565b915061335c83612384565b925082820390508181111561337457613373612f70565b5b92915050565b600061338582612384565b915061339083612384565b9250826133a05761339f6132e6565b5b828204905092915050565b60006133b682612384565b91506133c183612384565b92508282019050808211156133d9576133d8612f70565b5b92915050565b60006133ea82612384565b91506133f583612384565b925082820261340381612384565b9150828204841483151761341a57613419612f70565b5b5092915050565b7f4f776e61626c653a206e6577206f776e657220697320746865207a65726f206160008201527f6464726573730000000000000000000000000000000000000000000000000000602082015250565b600061347d6026836126a6565b915061348882613421565b604082019050919050565b600060208201905081810360008301526134ac81613470565b9050919050565b7f4f776e61626c653a2063616c6c6572206973206e6f7420746865206f776e6572600082015250565b60006134e96020836126a6565b91506134f4826134b3565b602082019050919050565b60006020820190508181036000830152613518816134dc565b9050919050565b60008190508160005260206000209050919050565b60006020601f8301049050919050565b600082821b905092915050565b6000600883026135817fffffffffffffffffffffffffffffffffffffffffffffffffffffffffffffffff82613544565b61358b8683613544565b95508019841693508086168417925050509392505050565b6000819050919050565b60006135c86135c36135be84612384565b6135a3565b612384565b9050919050565b6000819050919050565b6135e2836135ad565b6135f66135ee826135cf565b848454613551565b825550505050565b600090565b61360b6135fe565b6136168184846135d9565b505050565b5b8181101561363a5761362f600082613603565b60018101905061361c565b5050565b601f82111561367f576136508161351f565b61365984613534565b81016020851015613668578190505b61367c61367485613534565b83018261361b565b50505b505050565b600082821c905092915050565b60006136a260001984600802613684565b1980831691505092915050565b60006136bb8383613691565b9150826002028217905092915050565b6136d48261269b565b67ffffffffffffffff8111156136ed576136ec6124fa565b5b6136f78254612ead565b61370282828561363e565b600060209050601f8311600181146137355760008415613723578287015190505b61372d85826136af565b865550613795565b601f1984166137438661351f565b60005b8281101561376b57848901518255600182019150602085019450602081019050613746565b868310156137885784890151613784601f891682613691565b8355505b6001600288020188555050505b505050505050565b7f455243313135353a206d696e7420746f20746865207a65726f2061646472657360008201527f7300000000000000000000000000000000000000000000000000000000000000602082015250565b60006137f96021836126a6565b91506138048261379d565b604082019050919050565b60006020820190508181036000830152613828816137ec565b9050919050565b600060408201905061384460008301856123fa565b61385160208301846123fa565b9392505050565b7f455243313135353a2069647320616e6420616d6f756e7473206c656e6774682060008201527f6d69736d61746368000000000000000000000000000000000000000000000000602082015250565b60006138b46028836126a6565b91506138bf82613858565b604082019050919050565b600060208201905081810360008301526138e3816138a7565b9050919050565b7f455243313135353a207472616e7366657220746f20746865207a65726f20616460008201527f6472657373000000000000000000000000000000000000000000000000000000602082015250565b60006139466025836126a6565b9150613951826138ea565b604082019050919050565b6000602082019050818103600083015261397581613939565b9050919050565b7f455243313135353a20696e73756666696369656e742062616c616e636520666f60008201527f72207472616e7366657200000000000000000000000000000000000000000000602082015250565b60006139d8602a836126a6565b91506139e38261397c565b604082019050919050565b60006020820190508181036000830152613a07816139cb565b9050919050565b60006040820190508181036000830152613a288185612bbf565b90508181036020830152613a3c8184612bbf565b90509392505050565b7f455243313135353a2073657474696e6720617070726f76616c2073746174757360008201527f20666f722073656c660000000000000000000000000000000000000000000000602082015250565b6000613aa16029836126a6565b9150613aac82613a45565b604082019050919050565b60006020820190508181036000830152613ad081613a94565b9050919050565b600081519050919050565b600082825260208201905092915050565b6000613afe82613ad7565b613b088185613ae2565b9350613b188185602086016126b7565b613b21816124e9565b840191505092915050565b600060a082019050613b416000830188612c3f565b613b4e6020830187612c3f565b613b5b60408301866123fa565b613b6860608301856123fa565b8181036080830152613b7a8184613af3565b90509695505050505050565b600081519050613b9581612450565b92915050565b600060208284031215613bb157613bb061231c565b5b6000613bbf84828501613b86565b91505092915050565b60008160e01c9050919050565b600060033d1115613bf45760046000803e613bf1600051613bc8565b90505b90565b600060443d10613c8457613c09612312565b60043d036004823e80513d602482011167ffffffffffffffff82111715613c31575050613c84565b808201805167ffffffffffffffff811115613c4f5750505050613c84565b80602083010160043d038501811115613c6c575050505050613c84565b613c7b82602001850186612529565b82955050505050505b90565b7f455243313135353a207472616e7366657220746f206e6f6e2d4552433131353560008201527f526563656976657220696d706c656d656e746572000000000000000000000000602082015250565b6000613ce36034836126a6565b9150613cee82613c87565b604082019050919050565b60006020820190508181036000830152613d1281613cd6565b9050919050565b7f455243313135353a204552433131353552656365697665722072656a6563746560008201527f6420746f6b656e73000000000000000000000000000000000000000000000000602082015250565b6000613d756028836126a6565b9150613d8082613d19565b604082019050919050565b60006020820190508181036000830152613da481613d68565b9050919050565b600060a082019050613dc06000830188612c3f565b613dcd6020830187612c3f565b8181036040830152613ddf8186612bbf565b90508181036060830152613df38185612bbf565b90508181036080830152613e078184613af3565b9050969550505050505056fea26469706673582212209e7b7eed7583dee54e2063b9e02ae483a9578f9d159125122c821758a794d22264736f6c6343000813003368747470733a2f2f697066732e696f2f697066732f516d64516b5a54334a58617333686f43473950654637773431657a32686e577746684c5a636a446b477243394d6f2f7b69647d2e6a736f6e",
  "linkReferences": {},
  "deployedLinkReferences": {}
}