{
  "_format": "hh-sol-artifact-1",
  "contractName": "Pass",
  "sourceName": "contracts/Pass.sol",
  "abi": [
    {
      "inputs": [],
      "stateMutability": "nonpayable",
      "type": "constructor"
    },
    {
      "anonymous": false,
      "inputs": [
        {
          "indexed": true,
          "internalType": "address",
          "name": "account",
          "type": "address"
        },
        {
          "indexed": true,
          "internalType": "address",
          "name": "operator",
          "type": "address"
        },
        {
          "indexed": false,
          "internalType": "bool",
          "name": "approved",
          "type": "bool"
        }
      ],
      "name": "ApprovalForAll",
      "type": "event"
    },
    {
      "anonymous": false,
      "inputs": [
        {
          "indexed": true,
          "internalType": "address",
          "name": "previousOwner",
          "type": "address"
        },
        {
          "indexed": true,
          "internalType": "address",
          "name": "newOwner",
          "type": "address"
        }
      ],
      "name": "OwnershipTransferred",
      "type": "event"
    },
    {
      "anonymous": false,
      "inputs": [
        {
          "indexed": true,
          "internalType": "address",
          "name": "operator",
          "type": "address"
        },
        {
          "indexed": true,
          "internalType": "address",
          "name": "from",
          "type": "address"
        },
        {
          "indexed": true,
          "internalType": "address",
          "name": "to",
          "type": "address"
        },
        {
          "indexed": false,
          "internalType": "uint256[]",
          "name": "ids",
          "type": "uint256[]"
        },
        {
          "indexed": false,
          "internalType": "uint256[]",
          "name": "values",
          "type": "uint256[]"
        }
      ],
      "name": "TransferBatch",
      "type": "event"
    },
    {
      "anonymous": false,
      "inputs": [
        {
          "indexed": true,
          "internalType": "address",
          "name": "operator",
          "type": "address"
        },
        {
          "indexed": true,
          "internalType": "address",
          "name": "from",
          "type": "address"
        },
        {
          "indexed": true,
          "internalType": "address",
          "name": "to",
          "type": "address"
        },
        {
          "indexed": false,
          "internalType": "uint256",
          "name": "id",
          "type": "uint256"
        },
        {
          "indexed": false,
          "internalType": "uint256",
          "name": "value",
          "type": "uint256"
        }
      ],
      "name": "TransferSingle",
      "type": "event"
    },
    {
      "anonymous": false,
      "inputs": [
        {
          "indexed": false,
          "internalType": "string",
          "name": "value",
          "type": "string"
        },
        {
          "indexed": true,
          "internalType": "uint256",
          "name": "id",
          "type": "uint256"
        }
      ],
      "name": "URI",
      "type": "event"
    },
    {
      "inputs": [
        {
          "internalType": "address",
          "name": "account",
          "type": "address"
        },
        {
          "internalType": "uint256",
          "name": "id",
          "type": "uint256"
        }
      ],
      "name": "balanceOf",
      "outputs": [
        {
          "internalType": "uint256",
          "name": "",
          "type": "uint256"
        }
      ],
      "stateMutability": "view",
      "type": "function"
    },
    {
      "inputs": [
        {
          "internalType": "address[]",
          "name": "accounts",
          "type": "address[]"
        },
        {
          "internalType": "uint256[]",
          "name": "ids",
          "type": "uint256[]"
        }
      ],
      "name": "balanceOfBatch",
      "outputs": [
        {
          "internalType": "uint256[]",
          "name": "",
          "type": "uint256[]"
        }
      ],
      "stateMutability": "view",
      "type": "function"
    },
    {
      "inputs": [
        {
          "internalType": "uint256",
          "name": "passId",
          "type": "uint256"
        },
        {
          "internalType": "uint256",
          "name": "qty",
          "type": "uint256"
        }
      ],
      "name": "getPassPrice",
      "outputs": [
        {
          "internalType": "uint256",
          "name": "",
          "type": "uint256"
        }
      ],
      "stateMutability": "view",
      "type": "function"
    },
    {
      "inputs": [],
      "name": "getPriceInc",
      "outputs": [
        {
          "internalType": "uint256",
          "name": "",
          "type": "uint256"
        }
      ],
      "stateMutability": "view",
      "type": "function"
    },
    {
      "inputs": [
        {
          "internalType": "address",
          "name": "account",
          "type": "address"
        },
        {
          "internalType": "address",
          "name": "operator",
          "type": "address"
        }
      ],
      "name": "isApprovedForAll",
      "outputs": [
        {
          "internalType": "bool",
          "name": "",
          "type": "bool"
        }
      ],
      "stateMutability": "view",
      "type": "function"
    },
    {
      "inputs": [
        {
          "internalType": "address",
          "name": "passHolder",
          "type": "address"
        },
        {
          "internalType": "uint256",
          "name": "passId",
          "type": "uint256"
        }
      ],
      "name": "isPassExpired",
      "outputs": [
        {
          "internalType": "bool",
          "name": "",
          "type": "bool"
        }
      ],
      "stateMutability": "view",
      "type": "function"
    },
    {
      "inputs": [
        {
          "internalType": "uint256",
          "name": "amount",
          "type": "uint256"
        },
        {
          "internalType": "uint256",
          "name": "saleStartTime",
          "type": "uint256"
        },
        {
          "internalType": "uint256",
          "name": "_price",
          "type": "uint256"
        },
        {
          "internalType": "bytes",
          "name": "data",
          "type": "bytes"
        }
      ],
      "name": "mintPass",
      "outputs": [],
      "stateMutability": "nonpayable",
      "type": "function"
    },
    {
      "inputs": [],
      "name": "nextPassId",
      "outputs": [
        {
          "internalType": "uint256",
          "name": "",
          "type": "uint256"
        }
      ],
      "stateMutability": "view",
      "type": "function"
    },
    {
      "inputs": [],
      "name": "owner",
      "outputs": [
        {
          "internalType": "address",
          "name": "",
          "type": "address"
        }
      ],
      "stateMutability": "view",
      "type": "function"
    },
    {
      "inputs": [
        {
          "internalType": "address",
          "name": "_user",
          "type": "address"
        }
      ],
      "name": "ownsPreviousCollectionNFT",
      "outputs": [
        {
          "internalType": "bool",
          "name": "",
          "type": "bool"
        }
      ],
      "stateMutability": "view",
      "type": "function"
    },
    {
      "inputs": [],
      "name": "passDuration",
      "outputs": [
        {
          "internalType": "uint256",
          "name": "",
          "type": "uint256"
        }
      ],
      "stateMutability": "view",
      "type": "function"
    },
    {
      "inputs": [
        {
          "internalType": "address",
          "name": "",
          "type": "address"
        },
        {
          "internalType": "uint256",
          "name": "",
          "type": "uint256"
        }
      ],
      "name": "passExpirationTime",
      "outputs": [
        {
          "internalType": "uint256",
          "name": "",
          "type": "uint256"
        }
      ],
      "stateMutability": "view",
      "type": "function"
    },
    {
      "inputs": [
        {
          "internalType": "uint256",
          "name": "",
          "type": "uint256"
        }
      ],
      "name": "passPrice",
      "outputs": [
        {
          "internalType": "uint256",
          "name": "",
          "type": "uint256"
        }
      ],
      "stateMutability": "view",
      "type": "function"
    },
    {
      "inputs": [
        {
          "internalType": "uint256",
          "name": "",
          "type": "uint256"
        }
      ],
      "name": "passSaleStartTime",
      "outputs": [
        {
          "internalType": "uint256",
          "name": "",
          "type": "uint256"
        }
      ],
      "stateMutability": "view",
      "type": "function"
    },
    {
      "inputs": [],
      "name": "previousCollectionAddress",
      "outputs": [
        {
          "internalType": "address",
          "name": "",
          "type": "address"
        }
      ],
      "stateMutability": "view",
      "type": "function"
    },
    {
      "inputs": [],
      "name": "priceInc",
      "outputs": [
        {
          "internalType": "uint256",
          "name": "",
          "type": "uint256"
        }
      ],
      "stateMutability": "view",
      "type": "function"
    },
    {
      "inputs": [
        {
          "internalType": "uint256",
          "name": "passId",
          "type": "uint256"
        },
        {
          "internalType": "uint256",
          "name": "qty",
          "type": "uint256"
        }
      ],
      "name": "purchasePass",
      "outputs": [],
      "stateMutability": "payable",
      "type": "function"
    },
    {
      "inputs": [
        {
          "internalType": "uint256",
          "name": "passId",
          "type": "uint256"
        }
      ],
      "name": "reactivatePass",
      "outputs": [],
      "stateMutability": "payable",
      "type": "function"
    },
    {
      "inputs": [],
      "name": "renounceOwnership",
      "outputs": [],
      "stateMutability": "nonpayable",
      "type": "function"
    },
    {
      "inputs": [
        {
          "internalType": "address",
          "name": "from",
          "type": "address"
        },
        {
          "internalType": "address",
          "name": "to",
          "type": "address"
        },
        {
          "internalType": "uint256[]",
          "name": "ids",
          "type": "uint256[]"
        },
        {
          "internalType": "uint256[]",
          "name": "amounts",
          "type": "uint256[]"
        },
        {
          "internalType": "bytes",
          "name": "data",
          "type": "bytes"
        }
      ],
      "name": "safeBatchTransferFrom",
      "outputs": [],
      "stateMutability": "nonpayable",
      "type": "function"
    },
    {
      "inputs": [
        {
          "internalType": "address",
          "name": "from",
          "type": "address"
        },
        {
          "internalType": "address",
          "name": "to",
          "type": "address"
        },
        {
          "internalType": "uint256",
          "name": "id",
          "type": "uint256"
        },
        {
          "internalType": "uint256",
          "name": "amount",
          "type": "uint256"
        },
        {
          "internalType": "bytes",
          "name": "data",
          "type": "bytes"
        }
      ],
      "name": "safeTransferFrom",
      "outputs": [],
      "stateMutability": "nonpayable",
      "type": "function"
    },
    {
      "inputs": [
        {
          "internalType": "address",
          "name": "operator",
          "type": "address"
        },
        {
          "internalType": "bool",
          "name": "approved",
          "type": "bool"
        }
      ],
      "name": "setApprovalForAll",
      "outputs": [],
      "stateMutability": "nonpayable",
      "type": "function"
    },
    {
      "inputs": [
        {
          "internalType": "uint256",
          "name": "passId",
          "type": "uint256"
        },
        {
          "internalType": "uint256",
          "name": "_price",
          "type": "uint256"
        }
      ],
      "name": "setPassPrice",
      "outputs": [],
      "stateMutability": "nonpayable",
      "type": "function"
    },
    {
      "inputs": [
        {
          "internalType": "address",
          "name": "_previousCollectionAddress",
          "type": "address"
        }
      ],
      "name": "setPreviousCollectionAddress",
      "outputs": [],
      "stateMutability": "nonpayable",
      "type": "function"
    },
    {
      "inputs": [
        {
          "internalType": "bytes4",
          "name": "interfaceId",
          "type": "bytes4"
        }
      ],
      "name": "supportsInterface",
      "outputs": [
        {
          "internalType": "bool",
          "name": "",
          "type": "bool"
        }
      ],
      "stateMutability": "view",
      "type": "function"
    },
    {
      "inputs": [
        {
          "internalType": "address",
          "name": "newOwner",
          "type": "address"
        }
      ],
      "name": "transferOwnership",
      "outputs": [],
      "stateMutability": "nonpayable",
      "type": "function"
    },
    {
      "inputs": [
        {
          "internalType": "uint256",
          "name": "",
          "type": "uint256"
        }
      ],
      "name": "uri",
      "outputs": [
        {
          "internalType": "string",
          "name": "",
          "type": "string"
        }
      ],
      "stateMutability": "view",
      "type": "function"
    }
  ],
  "bytecode": "0x608060405260006004556301e133806005556601c6bf526340006006553480156200002957600080fd5b506040518060800160405280604d8152602001620044a4604d913962000055816200007c60201b60201c565b50620000766200006a6200009160201b60201c565b6200009960201b60201c565b620004c0565b80600290816200008d9190620003d9565b5050565b600033905090565b6000600360009054906101000a900473ffffffffffffffffffffffffffffffffffffffff16905081600360006101000a81548173ffffffffffffffffffffffffffffffffffffffff021916908373ffffffffffffffffffffffffffffffffffffffff1602179055508173ffffffffffffffffffffffffffffffffffffffff168173ffffffffffffffffffffffffffffffffffffffff167f8be0079c531659141344cd1fd0a4f28419497f9722a3daafe3b4186f6b6457e060405160405180910390a35050565b600081519050919050565b7f4e487b7100000000000000000000000000000000000000000000000000000000600052604160045260246000fd5b7f4e487b7100000000000000000000000000000000000000000000000000000000600052602260045260246000fd5b60006002820490506001821680620001e157607f821691505b602082108103620001f757620001f662000199565b5b50919050565b60008190508160005260206000209050919050565b60006020601f8301049050919050565b600082821b905092915050565b600060088302620002617fffffffffffffffffffffffffffffffffffffffffffffffffffffffffffffffff8262000222565b6200026d868362000222565b95508019841693508086168417925050509392505050565b6000819050919050565b6000819050919050565b6000620002ba620002b4620002ae8462000285565b6200028f565b62000285565b9050919050565b6000819050919050565b620002d68362000299565b620002ee620002e582620002c1565b8484546200022f565b825550505050565b600090565b62000305620002f6565b62000312818484620002cb565b505050565b5b818110156200033a576200032e600082620002fb565b60018101905062000318565b5050565b601f82111562000389576200035381620001fd565b6200035e8462000212565b810160208510156200036e578190505b620003866200037d8562000212565b83018262000317565b50505b505050565b600082821c905092915050565b6000620003ae600019846008026200038e565b1980831691505092915050565b6000620003c983836200039b565b9150826002028217905092915050565b620003e4826200015f565b67ffffffffffffffff8111156200040057620003ff6200016a565b5b6200040c8254620001c8565b620004198282856200033e565b600060209050601f8311600181146200045157600084156200043c578287015190505b620004488582620003bb565b865550620004b8565b601f1984166200046186620001fd565b60005b828110156200048b5784890151825560018201915060208501945060208101905062000464565b86831015620004ab5784890151620004a7601f8916826200039b565b8355505b6001600288020188555050505b505050505050565b613fd480620004d06000396000f3fe60806040526004361061019b5760003560e01c80635e0ffccd116100ec578063baaefe5b1161008a578063e985e9c511610064578063e985e9c5146105f5578063f242432a14610632578063f2fde38b1461065b578063f87de02d146106845761019b565b8063baaefe5b14610564578063bb5ed2411461058f578063dddff8d3146105b85761019b565b806374c9ece7116100c657806374c9ece7146104b75780638da5cb5b146104d3578063a22cb465146104fe578063b90155c7146105275761019b565b80635e0ffccd1461043a5780635edaf21014610463578063715018a6146104a05761019b565b80633792c916116101595780634c96b915116101335780634c96b915146103795780634da41b41146103955780634e1273f4146103d25780634f307d3b1461040f5761019b565b80633792c916146102e657806345f93f501461032357806346c881741461034e5761019b565b8062fdd58e146101a057806301ffc9a7146101dd5780630b0d701d1461021a5780630e89341c146102575780632c3e9d9d146102945780632eb2c2d6146102bd575b600080fd5b3480156101ac57600080fd5b506101c760048036038101906101c291906127af565b6106af565b6040516101d491906127fe565b60405180910390f35b3480156101e957600080fd5b5061020460048036038101906101ff9190612871565b610777565b60405161021191906128b9565b60405180910390f35b34801561022657600080fd5b50610241600480360381019061023c91906128d4565b610859565b60405161024e91906127fe565b60405180910390f35b34801561026357600080fd5b5061027e600480360381019061027991906128d4565b610871565b60405161028b9190612991565b60405180910390f35b3480156102a057600080fd5b506102bb60048036038101906102b69190612ae8565b610905565b005b3480156102c957600080fd5b506102e460048036038101906102df9190612c33565b6109b7565b005b3480156102f257600080fd5b5061030d600480360381019061030891906128d4565b610b5d565b60405161031a91906127fe565b60405180910390f35b34801561032f57600080fd5b50610338610b75565b60405161034591906127fe565b60405180910390f35b34801561035a57600080fd5b50610363610b7b565b60405161037091906127fe565b60405180910390f35b610393600480360381019061038e91906128d4565b610b85565b005b3480156103a157600080fd5b506103bc60048036038101906103b791906127af565b610d6b565b6040516103c991906128b9565b60405180910390f35b3480156103de57600080fd5b506103f960048036038101906103f49190612dc5565b610dc8565b6040516104069190612efb565b60405180910390f35b34801561041b57600080fd5b50610424610ee1565b6040516104319190612f2c565b60405180910390f35b34801561044657600080fd5b50610461600480360381019061045c9190612f47565b610f07565b005b34801561046f57600080fd5b5061048a60048036038101906104859190612f47565b610f53565b60405161049791906128b9565b60405180910390f35b3480156104ac57600080fd5b506104b5611000565b005b6104d160048036038101906104cc9190612f74565b611014565b005b3480156104df57600080fd5b506104e861129c565b6040516104f59190612f2c565b60405180910390f35b34801561050a57600080fd5b5061052560048036038101906105209190612fe0565b6112c6565b005b34801561053357600080fd5b5061054e60048036038101906105499190612f74565b6112dc565b60405161055b91906127fe565b60405180910390f35b34801561057057600080fd5b5061057961140a565b60405161058691906127fe565b60405180910390f35b34801561059b57600080fd5b506105b660048036038101906105b19190612f74565b611410565b005b3480156105c457600080fd5b506105df60048036038101906105da91906127af565b611434565b6040516105ec91906127fe565b60405180910390f35b34801561060157600080fd5b5061061c60048036038101906106179190613020565b611459565b60405161062991906128b9565b60405180910390f35b34801561063e57600080fd5b5061065960048036038101906106549190613060565b6114ed565b005b34801561066757600080fd5b50610682600480360381019061067d9190612f47565b611653565b005b34801561069057600080fd5b506106996116d6565b6040516106a691906127fe565b60405180910390f35b60008073ffffffffffffffffffffffffffffffffffffffff168373ffffffffffffffffffffffffffffffffffffffff160361071f576040517f08c379a000000000000000000000000000000000000000000000000000000000815260040161071690613169565b60405180910390fd5b60008083815260200190815260200160002060008473ffffffffffffffffffffffffffffffffffffffff1673ffffffffffffffffffffffffffffffffffffffff16815260200190815260200160002054905092915050565b60007fd9b67a26000000000000000000000000000000000000000000000000000000007bffffffffffffffffffffffffffffffffffffffffffffffffffffffff1916827bffffffffffffffffffffffffffffffffffffffffffffffffffffffff1916148061084257507f0e89341c000000000000000000000000000000000000000000000000000000007bffffffffffffffffffffffffffffffffffffffffffffffffffffffff1916827bffffffffffffffffffffffffffffffffffffffffffffffffffffffff1916145b806108525750610851826116dc565b5b9050919050565b60086020528060005260406000206000915090505481565b606060028054610880906131b8565b80601f01602080910402602001604051908101604052809291908181526020018280546108ac906131b8565b80156108f95780601f106108ce576101008083540402835291602001916108f9565b820191906000526020600020905b8154815290600101906020018083116108dc57829003601f168201915b50505050509050919050565b61090d611746565b42831015610950576040517f08c379a00000000000000000000000000000000000000000000000000000000081526004016109479061325b565b60405180910390fd5b816007600060045481526020019081526020016000208190555061097f61097561129c565b60045486846117c4565b8260086000600454815260200190815260200160002081905550600460008154809291906109ac906132aa565b919050555050505050565b6109c48585858585611974565b60005b8351811015610b555760008482815181106109e5576109e46132f2565b5b602002602001015190506000600960008973ffffffffffffffffffffffffffffffffffffffff1673ffffffffffffffffffffffffffffffffffffffff16815260200190815260200160002060008381526020019081526020016000205414610b4157600960008873ffffffffffffffffffffffffffffffffffffffff1673ffffffffffffffffffffffffffffffffffffffff168152602001908152602001600020600082815260200190815260200160002054600960008873ffffffffffffffffffffffffffffffffffffffff1673ffffffffffffffffffffffffffffffffffffffff168152602001908152602001600020600083815260200190815260200160002081905550600960008873ffffffffffffffffffffffffffffffffffffffff1673ffffffffffffffffffffffffffffffffffffffff1681526020019081526020016000206000828152602001908152602001600020600090555b508080610b4d906132aa565b9150506109c7565b505050505050565b60076020528060005260406000206000915090505481565b60045481565b6000600654905090565b60076000828152602001908152602001600020543414610bda576040517f08c379a0000000000000000000000000000000000000000000000000000000008152600401610bd19061336d565b60405180910390fd5b6000610be633836106af565b11610c26576040517f08c379a0000000000000000000000000000000000000000000000000000000008152600401610c1d906133d9565b60405180910390fd5b600960003373ffffffffffffffffffffffffffffffffffffffff1673ffffffffffffffffffffffffffffffffffffffff1681526020019081526020016000206000828152602001908152602001600020544211610cb8576040517f08c379a0000000000000000000000000000000000000000000000000000000008152600401610caf9061346b565b60405180910390fd5b60055442610cc6919061348b565b600960003373ffffffffffffffffffffffffffffffffffffffff1673ffffffffffffffffffffffffffffffffffffffff168152602001908152602001600020600083815260200190815260200160002081905550610d2261129c565b73ffffffffffffffffffffffffffffffffffffffff166108fc349081150290604051600060405180830381858888f19350505050158015610d67573d6000803e3d6000fd5b5050565b600042600960008573ffffffffffffffffffffffffffffffffffffffff1673ffffffffffffffffffffffffffffffffffffffff16815260200190815260200160002060008481526020019081526020016000205410905092915050565b60608151835114610e0e576040517f08c379a0000000000000000000000000000000000000000000000000000000008152600401610e0590613531565b60405180910390fd5b6000835167ffffffffffffffff811115610e2b57610e2a6129bd565b5b604051908082528060200260200182016040528015610e595781602001602082028036833780820191505090505b50905060005b8451811015610ed657610ea6858281518110610e7e57610e7d6132f2565b5b6020026020010151858381518110610e9957610e986132f2565b5b60200260200101516106af565b828281518110610eb957610eb86132f2565b5b60200260200101818152505080610ecf906132aa565b9050610e5f565b508091505092915050565b600a60009054906101000a900473ffffffffffffffffffffffffffffffffffffffff1681565b610f0f611746565b80600a60006101000a81548173ffffffffffffffffffffffffffffffffffffffff021916908373ffffffffffffffffffffffffffffffffffffffff16021790555050565b600080600a60009054906101000a900473ffffffffffffffffffffffffffffffffffffffff16905060008173ffffffffffffffffffffffffffffffffffffffff166370a08231856040518263ffffffff1660e01b8152600401610fb69190612f2c565b602060405180830381865afa158015610fd3573d6000803e3d6000fd5b505050506040513d601f19601f82011682018060405250810190610ff79190613566565b11915050919050565b611008611746565b6110126000611a15565b565b6001151561102133610f53565b15151461102d57600080fd5b61103782826112dc565b341015611079576040517f08c379a00000000000000000000000000000000000000000000000000000000081526004016110709061336d565b60405180910390fd5b600061108c61108661129c565b846106af565b116110cc576040517f08c379a00000000000000000000000000000000000000000000000000000000081526004016110c3906135df565b60405180910390fd5b6008600083815260200190815260200160002054421015611122576040517f08c379a000000000000000000000000000000000000000000000000000000000815260040161111990613671565b60405180910390fd5b600061113561112f61129c565b846106af565b9050600060058261114691906136c0565b90506000810361115557600590505b8083106111c3576000818461116a91906136f1565b90506000600160058361117d9190613725565b611187919061348b565b9050600654816111979190613756565b6007600088815260200190815260200160002060008282546111b9919061348b565b9250508190555050505b6111e66111ce61129c565b33868660405180602001604052806000815250611adb565b600554426111f4919061348b565b600960003373ffffffffffffffffffffffffffffffffffffffff1673ffffffffffffffffffffffffffffffffffffffff16815260200190815260200160002060008681526020019081526020016000208190555061125061129c565b73ffffffffffffffffffffffffffffffffffffffff166108fc349081150290604051600060405180830381858888f19350505050158015611295573d6000803e3d6000fd5b5050505050565b6000600360009054906101000a900473ffffffffffffffffffffffffffffffffffffffff16905090565b6112d86112d1611d76565b8383611d7e565b5050565b6000806112f06112ea61129c565b856106af565b9050600060076000868152602001908152602001600020549050600060058361131991906136c0565b90506000810361132857600590505b80851161134557848261133b9190613756565b9350505050611404565b600082826113539190613756565b905060065483611363919061348b565b92506000828761137391906136f1565b905060006005826113849190613725565b9050600060058361139591906136c0565b905060005b828110156113df576005876113af9190613756565b856113ba919061348b565b9450600654876113ca919061348b565b965080806113d7906132aa565b91505061139a565b5085816113ec9190613756565b846113f7919061348b565b9350839750505050505050505b92915050565b60065481565b611418611746565b8060076000848152602001908152602001600020819055505050565b6009602052816000526040600020602052806000526040600020600091509150505481565b6000600160008473ffffffffffffffffffffffffffffffffffffffff1673ffffffffffffffffffffffffffffffffffffffff16815260200190815260200160002060008373ffffffffffffffffffffffffffffffffffffffff1673ffffffffffffffffffffffffffffffffffffffff16815260200190815260200160002060009054906101000a900460ff16905092915050565b6114fa8585858585611eea565b6000600960008773ffffffffffffffffffffffffffffffffffffffff1673ffffffffffffffffffffffffffffffffffffffff1681526020019081526020016000206000858152602001908152602001600020541461164c57600960008673ffffffffffffffffffffffffffffffffffffffff1673ffffffffffffffffffffffffffffffffffffffff168152602001908152602001600020600084815260200190815260200160002054600960008673ffffffffffffffffffffffffffffffffffffffff1673ffffffffffffffffffffffffffffffffffffffff168152602001908152602001600020600085815260200190815260200160002081905550600960008673ffffffffffffffffffffffffffffffffffffffff1673ffffffffffffffffffffffffffffffffffffffff1681526020019081526020016000206000848152602001908152602001600020600090555b5050505050565b61165b611746565b600073ffffffffffffffffffffffffffffffffffffffff168173ffffffffffffffffffffffffffffffffffffffff16036116ca576040517f08c379a00000000000000000000000000000000000000000000000000000000081526004016116c19061380a565b60405180910390fd5b6116d381611a15565b50565b60055481565b60007f01ffc9a7000000000000000000000000000000000000000000000000000000007bffffffffffffffffffffffffffffffffffffffffffffffffffffffff1916827bffffffffffffffffffffffffffffffffffffffffffffffffffffffff1916149050919050565b61174e611d76565b73ffffffffffffffffffffffffffffffffffffffff1661176c61129c565b73ffffffffffffffffffffffffffffffffffffffff16146117c2576040517f08c379a00000000000000000000000000000000000000000000000000000000081526004016117b990613876565b60405180910390fd5b565b600073ffffffffffffffffffffffffffffffffffffffff168473ffffffffffffffffffffffffffffffffffffffff1603611833576040517f08c379a000000000000000000000000000000000000000000000000000000000815260040161182a90613908565b60405180910390fd5b600061183d611d76565b9050600061184a85611f8b565b9050600061185785611f8b565b905061186883600089858589612005565b8460008088815260200190815260200160002060008973ffffffffffffffffffffffffffffffffffffffff1673ffffffffffffffffffffffffffffffffffffffff16815260200190815260200160002060008282546118c7919061348b565b925050819055508673ffffffffffffffffffffffffffffffffffffffff16600073ffffffffffffffffffffffffffffffffffffffff168473ffffffffffffffffffffffffffffffffffffffff167fc3d58168c5ae7397731d063d5bbf3d657854427343f4c083240f7aacaa2d0f628989604051611945929190613928565b60405180910390a461195c8360008985858961200d565b61196b83600089898989612015565b50505050505050565b61197c611d76565b73ffffffffffffffffffffffffffffffffffffffff168573ffffffffffffffffffffffffffffffffffffffff1614806119c257506119c1856119bc611d76565b611459565b5b611a01576040517f08c379a00000000000000000000000000000000000000000000000000000000081526004016119f8906139c3565b60405180910390fd5b611a0e85858585856121ec565b5050505050565b6000600360009054906101000a900473ffffffffffffffffffffffffffffffffffffffff16905081600360006101000a81548173ffffffffffffffffffffffffffffffffffffffff021916908373ffffffffffffffffffffffffffffffffffffffff1602179055508173ffffffffffffffffffffffffffffffffffffffff168173ffffffffffffffffffffffffffffffffffffffff167f8be0079c531659141344cd1fd0a4f28419497f9722a3daafe3b4186f6b6457e060405160405180910390a35050565b600073ffffffffffffffffffffffffffffffffffffffff168473ffffffffffffffffffffffffffffffffffffffff1603611b4a576040517f08c379a0000000000000000000000000000000000000000000000000000000008152600401611b4190613a55565b60405180910390fd5b6000611b54611d76565b90506000611b6185611f8b565b90506000611b6e85611f8b565b9050611b7e838989858589612005565b600080600088815260200190815260200160002060008a73ffffffffffffffffffffffffffffffffffffffff1673ffffffffffffffffffffffffffffffffffffffff16815260200190815260200160002054905085811015611c15576040517f08c379a0000000000000000000000000000000000000000000000000000000008152600401611c0c90613ae7565b60405180910390fd5b85810360008089815260200190815260200160002060008b73ffffffffffffffffffffffffffffffffffffffff1673ffffffffffffffffffffffffffffffffffffffff168152602001908152602001600020819055508560008089815260200190815260200160002060008a73ffffffffffffffffffffffffffffffffffffffff1673ffffffffffffffffffffffffffffffffffffffff1681526020019081526020016000206000828254611cca919061348b565b925050819055508773ffffffffffffffffffffffffffffffffffffffff168973ffffffffffffffffffffffffffffffffffffffff168573ffffffffffffffffffffffffffffffffffffffff167fc3d58168c5ae7397731d063d5bbf3d657854427343f4c083240f7aacaa2d0f628a8a604051611d47929190613928565b60405180910390a4611d5d848a8a86868a61200d565b611d6b848a8a8a8a8a612015565b505050505050505050565b600033905090565b8173ffffffffffffffffffffffffffffffffffffffff168373ffffffffffffffffffffffffffffffffffffffff1603611dec576040517f08c379a0000000000000000000000000000000000000000000000000000000008152600401611de390613b79565b60405180910390fd5b80600160008573ffffffffffffffffffffffffffffffffffffffff1673ffffffffffffffffffffffffffffffffffffffff16815260200190815260200160002060008473ffffffffffffffffffffffffffffffffffffffff1673ffffffffffffffffffffffffffffffffffffffff16815260200190815260200160002060006101000a81548160ff0219169083151502179055508173ffffffffffffffffffffffffffffffffffffffff168373ffffffffffffffffffffffffffffffffffffffff167f17307eab39ab6107e8899845ad3d59bd9653f200f220920489ca2b5937696c3183604051611edd91906128b9565b60405180910390a3505050565b611ef2611d76565b73ffffffffffffffffffffffffffffffffffffffff168573ffffffffffffffffffffffffffffffffffffffff161480611f385750611f3785611f32611d76565b611459565b5b611f77576040517f08c379a0000000000000000000000000000000000000000000000000000000008152600401611f6e906139c3565b60405180910390fd5b611f848585858585611adb565b5050505050565b60606000600167ffffffffffffffff811115611faa57611fa96129bd565b5b604051908082528060200260200182016040528015611fd85781602001602082028036833780820191505090505b5090508281600081518110611ff057611fef6132f2565b5b60200260200101818152505080915050919050565b505050505050565b505050505050565b6120348473ffffffffffffffffffffffffffffffffffffffff1661250d565b156121e4578373ffffffffffffffffffffffffffffffffffffffff1663f23a6e6187878686866040518663ffffffff1660e01b815260040161207a959493929190613bee565b6020604051808303816000875af19250505080156120b657506040513d601f19601f820116820180604052508101906120b39190613c5d565b60015b61215b576120c2613c97565b806308c379a00361211e57506120d6613cb9565b806120e15750612120565b806040517f08c379a00000000000000000000000000000000000000000000000000000000081526004016121159190612991565b60405180910390fd5b505b6040517f08c379a000000000000000000000000000000000000000000000000000000000815260040161215290613dbb565b60405180910390fd5b63f23a6e6160e01b7bffffffffffffffffffffffffffffffffffffffffffffffffffffffff1916817bffffffffffffffffffffffffffffffffffffffffffffffffffffffff1916146121e2576040517f08c379a00000000000000000000000000000000000000000000000000000000081526004016121d990613e4d565b60405180910390fd5b505b505050505050565b8151835114612230576040517f08c379a000000000000000000000000000000000000000000000000000000000815260040161222790613edf565b60405180910390fd5b600073ffffffffffffffffffffffffffffffffffffffff168473ffffffffffffffffffffffffffffffffffffffff160361229f576040517f08c379a000000000000000000000000000000000000000000000000000000000815260040161229690613a55565b60405180910390fd5b60006122a9611d76565b90506122b9818787878787612005565b60005b845181101561246a5760008582815181106122da576122d96132f2565b5b6020026020010151905060008583815181106122f9576122f86132f2565b5b60200260200101519050600080600084815260200190815260200160002060008b73ffffffffffffffffffffffffffffffffffffffff1673ffffffffffffffffffffffffffffffffffffffff1681526020019081526020016000205490508181101561239a576040517f08c379a000000000000000000000000000000000000000000000000000000000815260040161239190613ae7565b60405180910390fd5b81810360008085815260200190815260200160002060008c73ffffffffffffffffffffffffffffffffffffffff1673ffffffffffffffffffffffffffffffffffffffff168152602001908152602001600020819055508160008085815260200190815260200160002060008b73ffffffffffffffffffffffffffffffffffffffff1673ffffffffffffffffffffffffffffffffffffffff168152602001908152602001600020600082825461244f919061348b565b9250508190555050505080612463906132aa565b90506122bc565b508473ffffffffffffffffffffffffffffffffffffffff168673ffffffffffffffffffffffffffffffffffffffff168273ffffffffffffffffffffffffffffffffffffffff167f4a39dc06d4c0dbc64b70af90fd698a233a518aa5d07e595d983b8c0526c8f7fb87876040516124e1929190613eff565b60405180910390a46124f781878787878761200d565b612505818787878787612530565b505050505050565b6000808273ffffffffffffffffffffffffffffffffffffffff163b119050919050565b61254f8473ffffffffffffffffffffffffffffffffffffffff1661250d565b156126ff578373ffffffffffffffffffffffffffffffffffffffff1663bc197c8187878686866040518663ffffffff1660e01b8152600401612595959493929190613f36565b6020604051808303816000875af19250505080156125d157506040513d601f19601f820116820180604052508101906125ce9190613c5d565b60015b612676576125dd613c97565b806308c379a00361263957506125f1613cb9565b806125fc575061263b565b806040517f08c379a00000000000000000000000000000000000000000000000000000000081526004016126309190612991565b60405180910390fd5b505b6040517f08c379a000000000000000000000000000000000000000000000000000000000815260040161266d90613dbb565b60405180910390fd5b63bc197c8160e01b7bffffffffffffffffffffffffffffffffffffffffffffffffffffffff1916817bffffffffffffffffffffffffffffffffffffffffffffffffffffffff1916146126fd576040517f08c379a00000000000000000000000000000000000000000000000000000000081526004016126f490613e4d565b60405180910390fd5b505b505050505050565b6000604051905090565b600080fd5b600080fd5b600073ffffffffffffffffffffffffffffffffffffffff82169050919050565b60006127468261271b565b9050919050565b6127568161273b565b811461276157600080fd5b50565b6000813590506127738161274d565b92915050565b6000819050919050565b61278c81612779565b811461279757600080fd5b50565b6000813590506127a981612783565b92915050565b600080604083850312156127c6576127c5612711565b5b60006127d485828601612764565b92505060206127e58582860161279a565b9150509250929050565b6127f881612779565b82525050565b600060208201905061281360008301846127ef565b92915050565b60007fffffffff0000000000000000000000000000000000000000000000000000000082169050919050565b61284e81612819565b811461285957600080fd5b50565b60008135905061286b81612845565b92915050565b60006020828403121561288757612886612711565b5b60006128958482850161285c565b91505092915050565b60008115159050919050565b6128b38161289e565b82525050565b60006020820190506128ce60008301846128aa565b92915050565b6000602082840312156128ea576128e9612711565b5b60006128f88482850161279a565b91505092915050565b600081519050919050565b600082825260208201905092915050565b60005b8381101561293b578082015181840152602081019050612920565b60008484015250505050565b6000601f19601f8301169050919050565b600061296382612901565b61296d818561290c565b935061297d81856020860161291d565b61298681612947565b840191505092915050565b600060208201905081810360008301526129ab8184612958565b905092915050565b600080fd5b600080fd5b7f4e487b7100000000000000000000000000000000000000000000000000000000600052604160045260246000fd5b6129f582612947565b810181811067ffffffffffffffff82111715612a1457612a136129bd565b5b80604052505050565b6000612a27612707565b9050612a3382826129ec565b919050565b600067ffffffffffffffff821115612a5357612a526129bd565b5b612a5c82612947565b9050602081019050919050565b82818337600083830152505050565b6000612a8b612a8684612a38565b612a1d565b905082815260208101848484011115612aa757612aa66129b8565b5b612ab2848285612a69565b509392505050565b600082601f830112612acf57612ace6129b3565b5b8135612adf848260208601612a78565b91505092915050565b60008060008060808587031215612b0257612b01612711565b5b6000612b108782880161279a565b9450506020612b218782880161279a565b9350506040612b328782880161279a565b925050606085013567ffffffffffffffff811115612b5357612b52612716565b5b612b5f87828801612aba565b91505092959194509250565b600067ffffffffffffffff821115612b8657612b856129bd565b5b602082029050602081019050919050565b600080fd5b6000612baf612baa84612b6b565b612a1d565b90508083825260208201905060208402830185811115612bd257612bd1612b97565b5b835b81811015612bfb5780612be7888261279a565b845260208401935050602081019050612bd4565b5050509392505050565b600082601f830112612c1a57612c196129b3565b5b8135612c2a848260208601612b9c565b91505092915050565b600080600080600060a08688031215612c4f57612c4e612711565b5b6000612c5d88828901612764565b9550506020612c6e88828901612764565b945050604086013567ffffffffffffffff811115612c8f57612c8e612716565b5b612c9b88828901612c05565b935050606086013567ffffffffffffffff811115612cbc57612cbb612716565b5b612cc888828901612c05565b925050608086013567ffffffffffffffff811115612ce957612ce8612716565b5b612cf588828901612aba565b9150509295509295909350565b600067ffffffffffffffff821115612d1d57612d1c6129bd565b5b602082029050602081019050919050565b6000612d41612d3c84612d02565b612a1d565b90508083825260208201905060208402830185811115612d6457612d63612b97565b5b835b81811015612d8d5780612d798882612764565b845260208401935050602081019050612d66565b5050509392505050565b600082601f830112612dac57612dab6129b3565b5b8135612dbc848260208601612d2e565b91505092915050565b60008060408385031215612ddc57612ddb612711565b5b600083013567ffffffffffffffff811115612dfa57612df9612716565b5b612e0685828601612d97565b925050602083013567ffffffffffffffff811115612e2757612e26612716565b5b612e3385828601612c05565b9150509250929050565b600081519050919050565b600082825260208201905092915050565b6000819050602082019050919050565b612e7281612779565b82525050565b6000612e848383612e69565b60208301905092915050565b6000602082019050919050565b6000612ea882612e3d565b612eb28185612e48565b9350612ebd83612e59565b8060005b83811015612eee578151612ed58882612e78565b9750612ee083612e90565b925050600181019050612ec1565b5085935050505092915050565b60006020820190508181036000830152612f158184612e9d565b905092915050565b612f268161273b565b82525050565b6000602082019050612f416000830184612f1d565b92915050565b600060208284031215612f5d57612f5c612711565b5b6000612f6b84828501612764565b91505092915050565b60008060408385031215612f8b57612f8a612711565b5b6000612f998582860161279a565b9250506020612faa8582860161279a565b9150509250929050565b612fbd8161289e565b8114612fc857600080fd5b50565b600081359050612fda81612fb4565b92915050565b60008060408385031215612ff757612ff6612711565b5b600061300585828601612764565b925050602061301685828601612fcb565b9150509250929050565b6000806040838503121561303757613036612711565b5b600061304585828601612764565b925050602061305685828601612764565b9150509250929050565b600080600080600060a0868803121561307c5761307b612711565b5b600061308a88828901612764565b955050602061309b88828901612764565b94505060406130ac8882890161279a565b93505060606130bd8882890161279a565b925050608086013567ffffffffffffffff8111156130de576130dd612716565b5b6130ea88828901612aba565b9150509295509295909350565b7f455243313135353a2061646472657373207a65726f206973206e6f742061207660008201527f616c6964206f776e657200000000000000000000000000000000000000000000602082015250565b6000613153602a8361290c565b915061315e826130f7565b604082019050919050565b6000602082019050818103600083015261318281613146565b9050919050565b7f4e487b7100000000000000000000000000000000000000000000000000000000600052602260045260246000fd5b600060028204905060018216806131d057607f821691505b6020821081036131e3576131e2613189565b5b50919050565b7f5061737365733a2053616c652073746172742074696d652073686f756c64206260008201527f6520696e20746865206675747572650000000000000000000000000000000000602082015250565b6000613245602f8361290c565b9150613250826131e9565b604082019050919050565b6000602082019050818103600083015261327481613238565b9050919050565b7f4e487b7100000000000000000000000000000000000000000000000000000000600052601160045260246000fd5b60006132b582612779565b91507fffffffffffffffffffffffffffffffffffffffffffffffffffffffffffffffff82036132e7576132e661327b565b5b600182019050919050565b7f4e487b7100000000000000000000000000000000000000000000000000000000600052603260045260246000fd5b7f5061737365733a20496e636f72726563742045746865722073656e7400000000600082015250565b6000613357601c8361290c565b915061336282613321565b602082019050919050565b600060208201905081810360008301526133868161334a565b9050919050565b7f5061737365733a20596f7520646f6e2774206f776e2074686973207061737300600082015250565b60006133c3601f8361290c565b91506133ce8261338d565b602082019050919050565b600060208201905081810360008301526133f2816133b6565b9050919050565b7f5061737365733a2054686973207061737320686173206e6f742065787069726560008201527f6420796574000000000000000000000000000000000000000000000000000000602082015250565b600061345560258361290c565b9150613460826133f9565b604082019050919050565b6000602082019050818103600083015261348481613448565b9050919050565b600061349682612779565b91506134a183612779565b92508282019050808211156134b9576134b861327b565b5b92915050565b7f455243313135353a206163636f756e747320616e6420696473206c656e67746860008201527f206d69736d617463680000000000000000000000000000000000000000000000602082015250565b600061351b60298361290c565b9150613526826134bf565b604082019050919050565b6000602082019050818103600083015261354a8161350e565b9050919050565b60008151905061356081612783565b92915050565b60006020828403121561357c5761357b612711565b5b600061358a84828501613551565b91505092915050565b7f5061737365733a204f7574206f662073746f636b000000000000000000000000600082015250565b60006135c960148361290c565b91506135d482613593565b602082019050919050565b600060208201905081810360008301526135f8816135bc565b9050919050565b7f5061737365733a2053616c6520686173206e6f74207374617274656420666f7260008201527f2074686973207061737300000000000000000000000000000000000000000000602082015250565b600061365b602a8361290c565b9150613666826135ff565b604082019050919050565b6000602082019050818103600083015261368a8161364e565b9050919050565b7f4e487b7100000000000000000000000000000000000000000000000000000000600052601260045260246000fd5b60006136cb82612779565b91506136d683612779565b9250826136e6576136e5613691565b5b828206905092915050565b60006136fc82612779565b915061370783612779565b925082820390508181111561371f5761371e61327b565b5b92915050565b600061373082612779565b915061373b83612779565b92508261374b5761374a613691565b5b828204905092915050565b600061376182612779565b915061376c83612779565b925082820261377a81612779565b915082820484148315176137915761379061327b565b5b5092915050565b7f4f776e61626c653a206e6577206f776e657220697320746865207a65726f206160008201527f6464726573730000000000000000000000000000000000000000000000000000602082015250565b60006137f460268361290c565b91506137ff82613798565b604082019050919050565b60006020820190508181036000830152613823816137e7565b9050919050565b7f4f776e61626c653a2063616c6c6572206973206e6f7420746865206f776e6572600082015250565b600061386060208361290c565b915061386b8261382a565b602082019050919050565b6000602082019050818103600083015261388f81613853565b9050919050565b7f455243313135353a206d696e7420746f20746865207a65726f2061646472657360008201527f7300000000000000000000000000000000000000000000000000000000000000602082015250565b60006138f260218361290c565b91506138fd82613896565b604082019050919050565b60006020820190508181036000830152613921816138e5565b9050919050565b600060408201905061393d60008301856127ef565b61394a60208301846127ef565b9392505050565b7f455243313135353a2063616c6c6572206973206e6f7420746f6b656e206f776e60008201527f6572206f7220617070726f766564000000000000000000000000000000000000602082015250565b60006139ad602e8361290c565b91506139b882613951565b604082019050919050565b600060208201905081810360008301526139dc816139a0565b9050919050565b7f455243313135353a207472616e7366657220746f20746865207a65726f20616460008201527f6472657373000000000000000000000000000000000000000000000000000000602082015250565b6000613a3f60258361290c565b9150613a4a826139e3565b604082019050919050565b60006020820190508181036000830152613a6e81613a32565b9050919050565b7f455243313135353a20696e73756666696369656e742062616c616e636520666f60008201527f72207472616e7366657200000000000000000000000000000000000000000000602082015250565b6000613ad1602a8361290c565b9150613adc82613a75565b604082019050919050565b60006020820190508181036000830152613b0081613ac4565b9050919050565b7f455243313135353a2073657474696e6720617070726f76616c2073746174757360008201527f20666f722073656c660000000000000000000000000000000000000000000000602082015250565b6000613b6360298361290c565b9150613b6e82613b07565b604082019050919050565b60006020820190508181036000830152613b9281613b56565b9050919050565b600081519050919050565b600082825260208201905092915050565b6000613bc082613b99565b613bca8185613ba4565b9350613bda81856020860161291d565b613be381612947565b840191505092915050565b600060a082019050613c036000830188612f1d565b613c106020830187612f1d565b613c1d60408301866127ef565b613c2a60608301856127ef565b8181036080830152613c3c8184613bb5565b90509695505050505050565b600081519050613c5781612845565b92915050565b600060208284031215613c7357613c72612711565b5b6000613c8184828501613c48565b91505092915050565b60008160e01c9050919050565b600060033d1115613cb65760046000803e613cb3600051613c8a565b90505b90565b600060443d10613d4657613ccb612707565b60043d036004823e80513d602482011167ffffffffffffffff82111715613cf3575050613d46565b808201805167ffffffffffffffff811115613d115750505050613d46565b80602083010160043d038501811115613d2e575050505050613d46565b613d3d826020018501866129ec565b82955050505050505b90565b7f455243313135353a207472616e7366657220746f206e6f6e2d4552433131353560008201527f526563656976657220696d706c656d656e746572000000000000000000000000602082015250565b6000613da560348361290c565b9150613db082613d49565b604082019050919050565b60006020820190508181036000830152613dd481613d98565b9050919050565b7f455243313135353a204552433131353552656365697665722072656a6563746560008201527f6420746f6b656e73000000000000000000000000000000000000000000000000602082015250565b6000613e3760288361290c565b9150613e4282613ddb565b604082019050919050565b60006020820190508181036000830152613e6681613e2a565b9050919050565b7f455243313135353a2069647320616e6420616d6f756e7473206c656e6774682060008201527f6d69736d61746368000000000000000000000000000000000000000000000000602082015250565b6000613ec960288361290c565b9150613ed482613e6d565b604082019050919050565b60006020820190508181036000830152613ef881613ebc565b9050919050565b60006040820190508181036000830152613f198185612e9d565b90508181036020830152613f2d8184612e9d565b90509392505050565b600060a082019050613f4b6000830188612f1d565b613f586020830187612f1d565b8181036040830152613f6a8186612e9d565b90508181036060830152613f7e8185612e9d565b90508181036080830152613f928184613bb5565b9050969550505050505056fea2646970667358221220665601d298baa13652d2f99d8ddf93831628f4e49143d4ff843c2e787600100064736f6c6343000813003368747470733a2f2f697066732e696f2f697066732f516d504451686b63796f62637566374477546f62416971663834573275475131727265674b5372585835733343772f7b69647d2e6a736f6e",
  "linkReferences": {},
  "deployedLinkReferences": {}
}