{
  "_format": "hh-sol-artifact-1",
  "contractName": "Pass",
  "sourceName": "contracts/Pass.sol",
  "abi": [
    {
      "inputs": [],
      "stateMutability": "nonpayable",
      "type": "constructor"
    },
    {
      "anonymous": false,
      "inputs": [
        {
          "indexed": true,
          "internalType": "address",
          "name": "account",
          "type": "address"
        },
        {
          "indexed": true,
          "internalType": "address",
          "name": "operator",
          "type": "address"
        },
        {
          "indexed": false,
          "internalType": "bool",
          "name": "approved",
          "type": "bool"
        }
      ],
      "name": "ApprovalForAll",
      "type": "event"
    },
    {
      "anonymous": false,
      "inputs": [
        {
          "indexed": true,
          "internalType": "address",
          "name": "previousOwner",
          "type": "address"
        },
        {
          "indexed": true,
          "internalType": "address",
          "name": "newOwner",
          "type": "address"
        }
      ],
      "name": "OwnershipTransferred",
      "type": "event"
    },
    {
      "anonymous": false,
      "inputs": [
        {
          "indexed": true,
          "internalType": "address",
          "name": "operator",
          "type": "address"
        },
        {
          "indexed": true,
          "internalType": "address",
          "name": "from",
          "type": "address"
        },
        {
          "indexed": true,
          "internalType": "address",
          "name": "to",
          "type": "address"
        },
        {
          "indexed": false,
          "internalType": "uint256[]",
          "name": "ids",
          "type": "uint256[]"
        },
        {
          "indexed": false,
          "internalType": "uint256[]",
          "name": "values",
          "type": "uint256[]"
        }
      ],
      "name": "TransferBatch",
      "type": "event"
    },
    {
      "anonymous": false,
      "inputs": [
        {
          "indexed": true,
          "internalType": "address",
          "name": "operator",
          "type": "address"
        },
        {
          "indexed": true,
          "internalType": "address",
          "name": "from",
          "type": "address"
        },
        {
          "indexed": true,
          "internalType": "address",
          "name": "to",
          "type": "address"
        },
        {
          "indexed": false,
          "internalType": "uint256",
          "name": "id",
          "type": "uint256"
        },
        {
          "indexed": false,
          "internalType": "uint256",
          "name": "value",
          "type": "uint256"
        }
      ],
      "name": "TransferSingle",
      "type": "event"
    },
    {
      "anonymous": false,
      "inputs": [
        {
          "indexed": false,
          "internalType": "string",
          "name": "value",
          "type": "string"
        },
        {
          "indexed": true,
          "internalType": "uint256",
          "name": "id",
          "type": "uint256"
        }
      ],
      "name": "URI",
      "type": "event"
    },
    {
      "inputs": [
        {
          "internalType": "address",
          "name": "account",
          "type": "address"
        },
        {
          "internalType": "uint256",
          "name": "id",
          "type": "uint256"
        }
      ],
      "name": "balanceOf",
      "outputs": [
        {
          "internalType": "uint256",
          "name": "",
          "type": "uint256"
        }
      ],
      "stateMutability": "view",
      "type": "function"
    },
    {
      "inputs": [
        {
          "internalType": "address[]",
          "name": "accounts",
          "type": "address[]"
        },
        {
          "internalType": "uint256[]",
          "name": "ids",
          "type": "uint256[]"
        }
      ],
      "name": "balanceOfBatch",
      "outputs": [
        {
          "internalType": "uint256[]",
          "name": "",
          "type": "uint256[]"
        }
      ],
      "stateMutability": "view",
      "type": "function"
    },
    {
      "inputs": [
        {
          "internalType": "uint256",
          "name": "passId",
          "type": "uint256"
        },
        {
          "internalType": "uint256",
          "name": "qty",
          "type": "uint256"
        }
      ],
      "name": "getPassPrice",
      "outputs": [
        {
          "internalType": "uint256",
          "name": "",
          "type": "uint256"
        }
      ],
      "stateMutability": "view",
      "type": "function"
    },
    {
      "inputs": [
        {
          "internalType": "address",
          "name": "account",
          "type": "address"
        },
        {
          "internalType": "address",
          "name": "operator",
          "type": "address"
        }
      ],
      "name": "isApprovedForAll",
      "outputs": [
        {
          "internalType": "bool",
          "name": "",
          "type": "bool"
        }
      ],
      "stateMutability": "view",
      "type": "function"
    },
    {
      "inputs": [
        {
          "internalType": "address",
          "name": "passHolder",
          "type": "address"
        },
        {
          "internalType": "uint256",
          "name": "passId",
          "type": "uint256"
        }
      ],
      "name": "isPassExpired",
      "outputs": [
        {
          "internalType": "bool",
          "name": "",
          "type": "bool"
        }
      ],
      "stateMutability": "view",
      "type": "function"
    },
    {
      "inputs": [
        {
          "internalType": "uint256",
          "name": "amount",
          "type": "uint256"
        },
        {
          "internalType": "uint256",
          "name": "saleStartTime",
          "type": "uint256"
        },
        {
          "internalType": "uint256",
          "name": "_price",
          "type": "uint256"
        },
        {
          "internalType": "bytes",
          "name": "data",
          "type": "bytes"
        }
      ],
      "name": "mintPass",
      "outputs": [],
      "stateMutability": "nonpayable",
      "type": "function"
    },
    {
      "inputs": [],
      "name": "nextPassId",
      "outputs": [
        {
          "internalType": "uint256",
          "name": "",
          "type": "uint256"
        }
      ],
      "stateMutability": "view",
      "type": "function"
    },
    {
      "inputs": [],
      "name": "owner",
      "outputs": [
        {
          "internalType": "address",
          "name": "",
          "type": "address"
        }
      ],
      "stateMutability": "view",
      "type": "function"
    },
    {
      "inputs": [
        {
          "internalType": "address",
          "name": "_user",
          "type": "address"
        }
      ],
      "name": "ownsPreviousCollectionNFT",
      "outputs": [
        {
          "internalType": "bool",
          "name": "",
          "type": "bool"
        }
      ],
      "stateMutability": "view",
      "type": "function"
    },
    {
      "inputs": [],
      "name": "passDuration",
      "outputs": [
        {
          "internalType": "uint256",
          "name": "",
          "type": "uint256"
        }
      ],
      "stateMutability": "view",
      "type": "function"
    },
    {
      "inputs": [
        {
          "internalType": "address",
          "name": "",
          "type": "address"
        },
        {
          "internalType": "uint256",
          "name": "",
          "type": "uint256"
        }
      ],
      "name": "passExpirationTime",
      "outputs": [
        {
          "internalType": "uint256",
          "name": "",
          "type": "uint256"
        }
      ],
      "stateMutability": "view",
      "type": "function"
    },
    {
      "inputs": [
        {
          "internalType": "uint256",
          "name": "",
          "type": "uint256"
        }
      ],
      "name": "passPrice",
      "outputs": [
        {
          "internalType": "uint256",
          "name": "",
          "type": "uint256"
        }
      ],
      "stateMutability": "view",
      "type": "function"
    },
    {
      "inputs": [
        {
          "internalType": "uint256",
          "name": "",
          "type": "uint256"
        }
      ],
      "name": "passSaleStartTime",
      "outputs": [
        {
          "internalType": "uint256",
          "name": "",
          "type": "uint256"
        }
      ],
      "stateMutability": "view",
      "type": "function"
    },
    {
      "inputs": [],
      "name": "previousCollectionAddress",
      "outputs": [
        {
          "internalType": "address",
          "name": "",
          "type": "address"
        }
      ],
      "stateMutability": "view",
      "type": "function"
    },
    {
      "inputs": [],
      "name": "priceInc",
      "outputs": [
        {
          "internalType": "uint256",
          "name": "",
          "type": "uint256"
        }
      ],
      "stateMutability": "view",
      "type": "function"
    },
    {
      "inputs": [
        {
          "internalType": "uint256",
          "name": "passId",
          "type": "uint256"
        },
        {
          "internalType": "uint256",
          "name": "qty",
          "type": "uint256"
        }
      ],
      "name": "purchasePass",
      "outputs": [],
      "stateMutability": "payable",
      "type": "function"
    },
    {
      "inputs": [
        {
          "internalType": "uint256",
          "name": "passId",
          "type": "uint256"
        }
      ],
      "name": "reactivatePass",
      "outputs": [],
      "stateMutability": "payable",
      "type": "function"
    },
    {
      "inputs": [],
      "name": "renounceOwnership",
      "outputs": [],
      "stateMutability": "nonpayable",
      "type": "function"
    },
    {
      "inputs": [
        {
          "internalType": "address",
          "name": "from",
          "type": "address"
        },
        {
          "internalType": "address",
          "name": "to",
          "type": "address"
        },
        {
          "internalType": "uint256[]",
          "name": "ids",
          "type": "uint256[]"
        },
        {
          "internalType": "uint256[]",
          "name": "amounts",
          "type": "uint256[]"
        },
        {
          "internalType": "bytes",
          "name": "data",
          "type": "bytes"
        }
      ],
      "name": "safeBatchTransferFrom",
      "outputs": [],
      "stateMutability": "nonpayable",
      "type": "function"
    },
    {
      "inputs": [
        {
          "internalType": "address",
          "name": "from",
          "type": "address"
        },
        {
          "internalType": "address",
          "name": "to",
          "type": "address"
        },
        {
          "internalType": "uint256",
          "name": "id",
          "type": "uint256"
        },
        {
          "internalType": "uint256",
          "name": "amount",
          "type": "uint256"
        },
        {
          "internalType": "bytes",
          "name": "data",
          "type": "bytes"
        }
      ],
      "name": "safeTransferFrom",
      "outputs": [],
      "stateMutability": "nonpayable",
      "type": "function"
    },
    {
      "inputs": [
        {
          "internalType": "address",
          "name": "operator",
          "type": "address"
        },
        {
          "internalType": "bool",
          "name": "approved",
          "type": "bool"
        }
      ],
      "name": "setApprovalForAll",
      "outputs": [],
      "stateMutability": "nonpayable",
      "type": "function"
    },
    {
      "inputs": [
        {
          "internalType": "uint256",
          "name": "passId",
          "type": "uint256"
        },
        {
          "internalType": "uint256",
          "name": "_price",
          "type": "uint256"
        }
      ],
      "name": "setPassPrice",
      "outputs": [],
      "stateMutability": "nonpayable",
      "type": "function"
    },
    {
      "inputs": [
        {
          "internalType": "address",
          "name": "_previousCollectionAddress",
          "type": "address"
        }
      ],
      "name": "setPreviousCollectionAddress",
      "outputs": [],
      "stateMutability": "nonpayable",
      "type": "function"
    },
    {
      "inputs": [
        {
          "internalType": "bytes4",
          "name": "interfaceId",
          "type": "bytes4"
        }
      ],
      "name": "supportsInterface",
      "outputs": [
        {
          "internalType": "bool",
          "name": "",
          "type": "bool"
        }
      ],
      "stateMutability": "view",
      "type": "function"
    },
    {
      "inputs": [
        {
          "internalType": "address",
          "name": "newOwner",
          "type": "address"
        }
      ],
      "name": "transferOwnership",
      "outputs": [],
      "stateMutability": "nonpayable",
      "type": "function"
    },
    {
      "inputs": [
        {
          "internalType": "uint256",
          "name": "",
          "type": "uint256"
        }
      ],
      "name": "uri",
      "outputs": [
        {
          "internalType": "string",
          "name": "",
          "type": "string"
        }
      ],
      "stateMutability": "view",
      "type": "function"
    }
  ],
  "bytecode": "0x608060405260006004556301e133806005556601c6bf526340006006553480156200002957600080fd5b506040518060800160405280604d8152602001620043a7604d913962000055816200007c60201b60201c565b50620000766200006a6200009160201b60201c565b6200009960201b60201c565b620004c0565b80600290816200008d9190620003d9565b5050565b600033905090565b6000600360009054906101000a900473ffffffffffffffffffffffffffffffffffffffff16905081600360006101000a81548173ffffffffffffffffffffffffffffffffffffffff021916908373ffffffffffffffffffffffffffffffffffffffff1602179055508173ffffffffffffffffffffffffffffffffffffffff168173ffffffffffffffffffffffffffffffffffffffff167f8be0079c531659141344cd1fd0a4f28419497f9722a3daafe3b4186f6b6457e060405160405180910390a35050565b600081519050919050565b7f4e487b7100000000000000000000000000000000000000000000000000000000600052604160045260246000fd5b7f4e487b7100000000000000000000000000000000000000000000000000000000600052602260045260246000fd5b60006002820490506001821680620001e157607f821691505b602082108103620001f757620001f662000199565b5b50919050565b60008190508160005260206000209050919050565b60006020601f8301049050919050565b600082821b905092915050565b600060088302620002617fffffffffffffffffffffffffffffffffffffffffffffffffffffffffffffffff8262000222565b6200026d868362000222565b95508019841693508086168417925050509392505050565b6000819050919050565b6000819050919050565b6000620002ba620002b4620002ae8462000285565b6200028f565b62000285565b9050919050565b6000819050919050565b620002d68362000299565b620002ee620002e582620002c1565b8484546200022f565b825550505050565b600090565b62000305620002f6565b62000312818484620002cb565b505050565b5b818110156200033a576200032e600082620002fb565b60018101905062000318565b5050565b601f82111562000389576200035381620001fd565b6200035e8462000212565b810160208510156200036e578190505b620003866200037d8562000212565b83018262000317565b50505b505050565b600082821c905092915050565b6000620003ae600019846008026200038e565b1980831691505092915050565b6000620003c983836200039b565b9150826002028217905092915050565b620003e4826200015f565b67ffffffffffffffff8111156200040057620003ff6200016a565b5b6200040c8254620001c8565b620004198282856200033e565b600060209050601f8311600181146200045157600084156200043c578287015190505b620004488582620003bb565b865550620004b8565b601f1984166200046186620001fd565b60005b828110156200048b5784890151825560018201915060208501945060208101905062000464565b86831015620004ab5784890151620004a7601f8916826200039b565b8355505b6001600288020188555050505b505050505050565b613ed780620004d06000396000f3fe6080604052600436106101805760003560e01c80635edaf210116100d1578063baaefe5b1161008a578063e985e9c511610064578063e985e9c5146105af578063f242432a146105ec578063f2fde38b14610615578063f87de02d1461063e57610180565b8063baaefe5b1461051e578063bb5ed24114610549578063dddff8d31461057257610180565b80635edaf2101461041d578063715018a61461045a57806374c9ece7146104715780638da5cb5b1461048d578063a22cb465146104b8578063b90155c7146104e157610180565b80633792c9161161013e5780634da41b41116101185780634da41b411461034f5780634e1273f41461038c5780634f307d3b146103c95780635e0ffccd146103f457610180565b80633792c916146102cb57806345f93f50146103085780634c96b9151461033357610180565b8062fdd58e1461018557806301ffc9a7146101c25780630b0d701d146101ff5780630e89341c1461023c5780632c3e9d9d146102795780632eb2c2d6146102a2575b600080fd5b34801561019157600080fd5b506101ac60048036038101906101a791906126b2565b610669565b6040516101b99190612701565b60405180910390f35b3480156101ce57600080fd5b506101e960048036038101906101e49190612774565b610731565b6040516101f691906127bc565b60405180910390f35b34801561020b57600080fd5b50610226600480360381019061022191906127d7565b610813565b6040516102339190612701565b60405180910390f35b34801561024857600080fd5b50610263600480360381019061025e91906127d7565b61082b565b6040516102709190612894565b60405180910390f35b34801561028557600080fd5b506102a0600480360381019061029b91906129eb565b6108bf565b005b3480156102ae57600080fd5b506102c960048036038101906102c49190612b36565b610971565b005b3480156102d757600080fd5b506102f260048036038101906102ed91906127d7565b610b17565b6040516102ff9190612701565b60405180910390f35b34801561031457600080fd5b5061031d610b2f565b60405161032a9190612701565b60405180910390f35b61034d600480360381019061034891906127d7565b610b35565b005b34801561035b57600080fd5b50610376600480360381019061037191906126b2565b610d1b565b60405161038391906127bc565b60405180910390f35b34801561039857600080fd5b506103b360048036038101906103ae9190612cc8565b610d78565b6040516103c09190612dfe565b60405180910390f35b3480156103d557600080fd5b506103de610e91565b6040516103eb9190612e2f565b60405180910390f35b34801561040057600080fd5b5061041b60048036038101906104169190612e4a565b610eb7565b005b34801561042957600080fd5b50610444600480360381019061043f9190612e4a565b610f03565b60405161045191906127bc565b60405180910390f35b34801561046657600080fd5b5061046f610fb0565b005b61048b60048036038101906104869190612e77565b610fc4565b005b34801561049957600080fd5b506104a26111ca565b6040516104af9190612e2f565b60405180910390f35b3480156104c457600080fd5b506104df60048036038101906104da9190612ee3565b6111f4565b005b3480156104ed57600080fd5b5061050860048036038101906105039190612e77565b61120a565b6040516105159190612701565b60405180910390f35b34801561052a57600080fd5b5061053361130d565b6040516105409190612701565b60405180910390f35b34801561055557600080fd5b50610570600480360381019061056b9190612e77565b611313565b005b34801561057e57600080fd5b50610599600480360381019061059491906126b2565b611337565b6040516105a69190612701565b60405180910390f35b3480156105bb57600080fd5b506105d660048036038101906105d19190612f23565b61135c565b6040516105e391906127bc565b60405180910390f35b3480156105f857600080fd5b50610613600480360381019061060e9190612f63565b6113f0565b005b34801561062157600080fd5b5061063c60048036038101906106379190612e4a565b611556565b005b34801561064a57600080fd5b506106536115d9565b6040516106609190612701565b60405180910390f35b60008073ffffffffffffffffffffffffffffffffffffffff168373ffffffffffffffffffffffffffffffffffffffff16036106d9576040517f08c379a00000000000000000000000000000000000000000000000000000000081526004016106d09061306c565b60405180910390fd5b60008083815260200190815260200160002060008473ffffffffffffffffffffffffffffffffffffffff1673ffffffffffffffffffffffffffffffffffffffff16815260200190815260200160002054905092915050565b60007fd9b67a26000000000000000000000000000000000000000000000000000000007bffffffffffffffffffffffffffffffffffffffffffffffffffffffff1916827bffffffffffffffffffffffffffffffffffffffffffffffffffffffff191614806107fc57507f0e89341c000000000000000000000000000000000000000000000000000000007bffffffffffffffffffffffffffffffffffffffffffffffffffffffff1916827bffffffffffffffffffffffffffffffffffffffffffffffffffffffff1916145b8061080c575061080b826115df565b5b9050919050565b60086020528060005260406000206000915090505481565b60606002805461083a906130bb565b80601f0160208091040260200160405190810160405280929190818152602001828054610866906130bb565b80156108b35780601f10610888576101008083540402835291602001916108b3565b820191906000526020600020905b81548152906001019060200180831161089657829003601f168201915b50505050509050919050565b6108c7611649565b4283101561090a576040517f08c379a00000000000000000000000000000000000000000000000000000000081526004016109019061315e565b60405180910390fd5b816007600060045481526020019081526020016000208190555061093961092f6111ca565b60045486846116c7565b826008600060045481526020019081526020016000208190555060046000815480929190610966906131ad565b919050555050505050565b61097e8585858585611877565b60005b8351811015610b0f57600084828151811061099f5761099e6131f5565b5b602002602001015190506000600960008973ffffffffffffffffffffffffffffffffffffffff1673ffffffffffffffffffffffffffffffffffffffff16815260200190815260200160002060008381526020019081526020016000205414610afb57600960008873ffffffffffffffffffffffffffffffffffffffff1673ffffffffffffffffffffffffffffffffffffffff168152602001908152602001600020600082815260200190815260200160002054600960008873ffffffffffffffffffffffffffffffffffffffff1673ffffffffffffffffffffffffffffffffffffffff168152602001908152602001600020600083815260200190815260200160002081905550600960008873ffffffffffffffffffffffffffffffffffffffff1673ffffffffffffffffffffffffffffffffffffffff1681526020019081526020016000206000828152602001908152602001600020600090555b508080610b07906131ad565b915050610981565b505050505050565b60076020528060005260406000206000915090505481565b60045481565b60076000828152602001908152602001600020543414610b8a576040517f08c379a0000000000000000000000000000000000000000000000000000000008152600401610b8190613270565b60405180910390fd5b6000610b963383610669565b11610bd6576040517f08c379a0000000000000000000000000000000000000000000000000000000008152600401610bcd906132dc565b60405180910390fd5b600960003373ffffffffffffffffffffffffffffffffffffffff1673ffffffffffffffffffffffffffffffffffffffff1681526020019081526020016000206000828152602001908152602001600020544211610c68576040517f08c379a0000000000000000000000000000000000000000000000000000000008152600401610c5f9061336e565b60405180910390fd5b60055442610c76919061338e565b600960003373ffffffffffffffffffffffffffffffffffffffff1673ffffffffffffffffffffffffffffffffffffffff168152602001908152602001600020600083815260200190815260200160002081905550610cd26111ca565b73ffffffffffffffffffffffffffffffffffffffff166108fc349081150290604051600060405180830381858888f19350505050158015610d17573d6000803e3d6000fd5b5050565b600042600960008573ffffffffffffffffffffffffffffffffffffffff1673ffffffffffffffffffffffffffffffffffffffff16815260200190815260200160002060008481526020019081526020016000205410905092915050565b60608151835114610dbe576040517f08c379a0000000000000000000000000000000000000000000000000000000008152600401610db590613434565b60405180910390fd5b6000835167ffffffffffffffff811115610ddb57610dda6128c0565b5b604051908082528060200260200182016040528015610e095781602001602082028036833780820191505090505b50905060005b8451811015610e8657610e56858281518110610e2e57610e2d6131f5565b5b6020026020010151858381518110610e4957610e486131f5565b5b6020026020010151610669565b828281518110610e6957610e686131f5565b5b60200260200101818152505080610e7f906131ad565b9050610e0f565b508091505092915050565b600a60009054906101000a900473ffffffffffffffffffffffffffffffffffffffff1681565b610ebf611649565b80600a60006101000a81548173ffffffffffffffffffffffffffffffffffffffff021916908373ffffffffffffffffffffffffffffffffffffffff16021790555050565b600080600a60009054906101000a900473ffffffffffffffffffffffffffffffffffffffff16905060008173ffffffffffffffffffffffffffffffffffffffff166370a08231856040518263ffffffff1660e01b8152600401610f669190612e2f565b602060405180830381865afa158015610f83573d6000803e3d6000fd5b505050506040513d601f19601f82011682018060405250810190610fa79190613469565b11915050919050565b610fb8611649565b610fc26000611918565b565b600060076000848152602001908152602001600020549050600081905060011515610fee33610f03565b151514610ffa57600080fd5b80836110069190613496565b341015611048576040517f08c379a000000000000000000000000000000000000000000000000000000000815260040161103f90613270565b60405180910390fd5b600061105b6110556111ca565b86610669565b1161109b576040517f08c379a000000000000000000000000000000000000000000000000000000000815260040161109290613524565b60405180910390fd5b60086000858152602001908152602001600020544210156110f1576040517f08c379a00000000000000000000000000000000000000000000000000000000081526004016110e8906135b6565b60405180910390fd5b6111146110fc6111ca565b338686604051806020016040528060008152506119de565b60055442611122919061338e565b600960003373ffffffffffffffffffffffffffffffffffffffff1673ffffffffffffffffffffffffffffffffffffffff16815260200190815260200160002060008681526020019081526020016000208190555061117e6111ca565b73ffffffffffffffffffffffffffffffffffffffff166108fc349081150290604051600060405180830381858888f193505050501580156111c3573d6000803e3d6000fd5b5050505050565b6000600360009054906101000a900473ffffffffffffffffffffffffffffffffffffffff16905090565b6112066111ff611c79565b8383611c81565b5050565b60008061121e6112186111ca565b85610669565b905060006007600086815260200190815260200160002054905060006005836112479190613605565b9050600082826112579190613496565b905060065483611267919061338e565b9250600082876112779190613636565b90506000600582611288919061366a565b905060006005836112999190613605565b905060005b828110156112e3576005876112b39190613496565b856112be919061338e565b9450600654876112ce919061338e565b965080806112db906131ad565b91505061129e565b5085816112f09190613496565b846112fb919061338e565b93508397505050505050505092915050565b60065481565b61131b611649565b8060076000848152602001908152602001600020819055505050565b6009602052816000526040600020602052806000526040600020600091509150505481565b6000600160008473ffffffffffffffffffffffffffffffffffffffff1673ffffffffffffffffffffffffffffffffffffffff16815260200190815260200160002060008373ffffffffffffffffffffffffffffffffffffffff1673ffffffffffffffffffffffffffffffffffffffff16815260200190815260200160002060009054906101000a900460ff16905092915050565b6113fd8585858585611ded565b6000600960008773ffffffffffffffffffffffffffffffffffffffff1673ffffffffffffffffffffffffffffffffffffffff1681526020019081526020016000206000858152602001908152602001600020541461154f57600960008673ffffffffffffffffffffffffffffffffffffffff1673ffffffffffffffffffffffffffffffffffffffff168152602001908152602001600020600084815260200190815260200160002054600960008673ffffffffffffffffffffffffffffffffffffffff1673ffffffffffffffffffffffffffffffffffffffff168152602001908152602001600020600085815260200190815260200160002081905550600960008673ffffffffffffffffffffffffffffffffffffffff1673ffffffffffffffffffffffffffffffffffffffff1681526020019081526020016000206000848152602001908152602001600020600090555b5050505050565b61155e611649565b600073ffffffffffffffffffffffffffffffffffffffff168173ffffffffffffffffffffffffffffffffffffffff16036115cd576040517f08c379a00000000000000000000000000000000000000000000000000000000081526004016115c49061370d565b60405180910390fd5b6115d681611918565b50565b60055481565b60007f01ffc9a7000000000000000000000000000000000000000000000000000000007bffffffffffffffffffffffffffffffffffffffffffffffffffffffff1916827bffffffffffffffffffffffffffffffffffffffffffffffffffffffff1916149050919050565b611651611c79565b73ffffffffffffffffffffffffffffffffffffffff1661166f6111ca565b73ffffffffffffffffffffffffffffffffffffffff16146116c5576040517f08c379a00000000000000000000000000000000000000000000000000000000081526004016116bc90613779565b60405180910390fd5b565b600073ffffffffffffffffffffffffffffffffffffffff168473ffffffffffffffffffffffffffffffffffffffff1603611736576040517f08c379a000000000000000000000000000000000000000000000000000000000815260040161172d9061380b565b60405180910390fd5b6000611740611c79565b9050600061174d85611e8e565b9050600061175a85611e8e565b905061176b83600089858589611f08565b8460008088815260200190815260200160002060008973ffffffffffffffffffffffffffffffffffffffff1673ffffffffffffffffffffffffffffffffffffffff16815260200190815260200160002060008282546117ca919061338e565b925050819055508673ffffffffffffffffffffffffffffffffffffffff16600073ffffffffffffffffffffffffffffffffffffffff168473ffffffffffffffffffffffffffffffffffffffff167fc3d58168c5ae7397731d063d5bbf3d657854427343f4c083240f7aacaa2d0f62898960405161184892919061382b565b60405180910390a461185f83600089858589611f10565b61186e83600089898989611f18565b50505050505050565b61187f611c79565b73ffffffffffffffffffffffffffffffffffffffff168573ffffffffffffffffffffffffffffffffffffffff1614806118c557506118c4856118bf611c79565b61135c565b5b611904576040517f08c379a00000000000000000000000000000000000000000000000000000000081526004016118fb906138c6565b60405180910390fd5b61191185858585856120ef565b5050505050565b6000600360009054906101000a900473ffffffffffffffffffffffffffffffffffffffff16905081600360006101000a81548173ffffffffffffffffffffffffffffffffffffffff021916908373ffffffffffffffffffffffffffffffffffffffff1602179055508173ffffffffffffffffffffffffffffffffffffffff168173ffffffffffffffffffffffffffffffffffffffff167f8be0079c531659141344cd1fd0a4f28419497f9722a3daafe3b4186f6b6457e060405160405180910390a35050565b600073ffffffffffffffffffffffffffffffffffffffff168473ffffffffffffffffffffffffffffffffffffffff1603611a4d576040517f08c379a0000000000000000000000000000000000000000000000000000000008152600401611a4490613958565b60405180910390fd5b6000611a57611c79565b90506000611a6485611e8e565b90506000611a7185611e8e565b9050611a81838989858589611f08565b600080600088815260200190815260200160002060008a73ffffffffffffffffffffffffffffffffffffffff1673ffffffffffffffffffffffffffffffffffffffff16815260200190815260200160002054905085811015611b18576040517f08c379a0000000000000000000000000000000000000000000000000000000008152600401611b0f906139ea565b60405180910390fd5b85810360008089815260200190815260200160002060008b73ffffffffffffffffffffffffffffffffffffffff1673ffffffffffffffffffffffffffffffffffffffff168152602001908152602001600020819055508560008089815260200190815260200160002060008a73ffffffffffffffffffffffffffffffffffffffff1673ffffffffffffffffffffffffffffffffffffffff1681526020019081526020016000206000828254611bcd919061338e565b925050819055508773ffffffffffffffffffffffffffffffffffffffff168973ffffffffffffffffffffffffffffffffffffffff168573ffffffffffffffffffffffffffffffffffffffff167fc3d58168c5ae7397731d063d5bbf3d657854427343f4c083240f7aacaa2d0f628a8a604051611c4a92919061382b565b60405180910390a4611c60848a8a86868a611f10565b611c6e848a8a8a8a8a611f18565b505050505050505050565b600033905090565b8173ffffffffffffffffffffffffffffffffffffffff168373ffffffffffffffffffffffffffffffffffffffff1603611cef576040517f08c379a0000000000000000000000000000000000000000000000000000000008152600401611ce690613a7c565b60405180910390fd5b80600160008573ffffffffffffffffffffffffffffffffffffffff1673ffffffffffffffffffffffffffffffffffffffff16815260200190815260200160002060008473ffffffffffffffffffffffffffffffffffffffff1673ffffffffffffffffffffffffffffffffffffffff16815260200190815260200160002060006101000a81548160ff0219169083151502179055508173ffffffffffffffffffffffffffffffffffffffff168373ffffffffffffffffffffffffffffffffffffffff167f17307eab39ab6107e8899845ad3d59bd9653f200f220920489ca2b5937696c3183604051611de091906127bc565b60405180910390a3505050565b611df5611c79565b73ffffffffffffffffffffffffffffffffffffffff168573ffffffffffffffffffffffffffffffffffffffff161480611e3b5750611e3a85611e35611c79565b61135c565b5b611e7a576040517f08c379a0000000000000000000000000000000000000000000000000000000008152600401611e71906138c6565b60405180910390fd5b611e8785858585856119de565b5050505050565b60606000600167ffffffffffffffff811115611ead57611eac6128c0565b5b604051908082528060200260200182016040528015611edb5781602001602082028036833780820191505090505b5090508281600081518110611ef357611ef26131f5565b5b60200260200101818152505080915050919050565b505050505050565b505050505050565b611f378473ffffffffffffffffffffffffffffffffffffffff16612410565b156120e7578373ffffffffffffffffffffffffffffffffffffffff1663f23a6e6187878686866040518663ffffffff1660e01b8152600401611f7d959493929190613af1565b6020604051808303816000875af1925050508015611fb957506040513d601f19601f82011682018060405250810190611fb69190613b60565b60015b61205e57611fc5613b9a565b806308c379a0036120215750611fd9613bbc565b80611fe45750612023565b806040517f08c379a00000000000000000000000000000000000000000000000000000000081526004016120189190612894565b60405180910390fd5b505b6040517f08c379a000000000000000000000000000000000000000000000000000000000815260040161205590613cbe565b60405180910390fd5b63f23a6e6160e01b7bffffffffffffffffffffffffffffffffffffffffffffffffffffffff1916817bffffffffffffffffffffffffffffffffffffffffffffffffffffffff1916146120e5576040517f08c379a00000000000000000000000000000000000000000000000000000000081526004016120dc90613d50565b60405180910390fd5b505b505050505050565b8151835114612133576040517f08c379a000000000000000000000000000000000000000000000000000000000815260040161212a90613de2565b60405180910390fd5b600073ffffffffffffffffffffffffffffffffffffffff168473ffffffffffffffffffffffffffffffffffffffff16036121a2576040517f08c379a000000000000000000000000000000000000000000000000000000000815260040161219990613958565b60405180910390fd5b60006121ac611c79565b90506121bc818787878787611f08565b60005b845181101561236d5760008582815181106121dd576121dc6131f5565b5b6020026020010151905060008583815181106121fc576121fb6131f5565b5b60200260200101519050600080600084815260200190815260200160002060008b73ffffffffffffffffffffffffffffffffffffffff1673ffffffffffffffffffffffffffffffffffffffff1681526020019081526020016000205490508181101561229d576040517f08c379a0000000000000000000000000000000000000000000000000000000008152600401612294906139ea565b60405180910390fd5b81810360008085815260200190815260200160002060008c73ffffffffffffffffffffffffffffffffffffffff1673ffffffffffffffffffffffffffffffffffffffff168152602001908152602001600020819055508160008085815260200190815260200160002060008b73ffffffffffffffffffffffffffffffffffffffff1673ffffffffffffffffffffffffffffffffffffffff1681526020019081526020016000206000828254612352919061338e565b9250508190555050505080612366906131ad565b90506121bf565b508473ffffffffffffffffffffffffffffffffffffffff168673ffffffffffffffffffffffffffffffffffffffff168273ffffffffffffffffffffffffffffffffffffffff167f4a39dc06d4c0dbc64b70af90fd698a233a518aa5d07e595d983b8c0526c8f7fb87876040516123e4929190613e02565b60405180910390a46123fa818787878787611f10565b612408818787878787612433565b505050505050565b6000808273ffffffffffffffffffffffffffffffffffffffff163b119050919050565b6124528473ffffffffffffffffffffffffffffffffffffffff16612410565b15612602578373ffffffffffffffffffffffffffffffffffffffff1663bc197c8187878686866040518663ffffffff1660e01b8152600401612498959493929190613e39565b6020604051808303816000875af19250505080156124d457506040513d601f19601f820116820180604052508101906124d19190613b60565b60015b612579576124e0613b9a565b806308c379a00361253c57506124f4613bbc565b806124ff575061253e565b806040517f08c379a00000000000000000000000000000000000000000000000000000000081526004016125339190612894565b60405180910390fd5b505b6040517f08c379a000000000000000000000000000000000000000000000000000000000815260040161257090613cbe565b60405180910390fd5b63bc197c8160e01b7bffffffffffffffffffffffffffffffffffffffffffffffffffffffff1916817bffffffffffffffffffffffffffffffffffffffffffffffffffffffff191614612600576040517f08c379a00000000000000000000000000000000000000000000000000000000081526004016125f790613d50565b60405180910390fd5b505b505050505050565b6000604051905090565b600080fd5b600080fd5b600073ffffffffffffffffffffffffffffffffffffffff82169050919050565b60006126498261261e565b9050919050565b6126598161263e565b811461266457600080fd5b50565b60008135905061267681612650565b92915050565b6000819050919050565b61268f8161267c565b811461269a57600080fd5b50565b6000813590506126ac81612686565b92915050565b600080604083850312156126c9576126c8612614565b5b60006126d785828601612667565b92505060206126e88582860161269d565b9150509250929050565b6126fb8161267c565b82525050565b600060208201905061271660008301846126f2565b92915050565b60007fffffffff0000000000000000000000000000000000000000000000000000000082169050919050565b6127518161271c565b811461275c57600080fd5b50565b60008135905061276e81612748565b92915050565b60006020828403121561278a57612789612614565b5b60006127988482850161275f565b91505092915050565b60008115159050919050565b6127b6816127a1565b82525050565b60006020820190506127d160008301846127ad565b92915050565b6000602082840312156127ed576127ec612614565b5b60006127fb8482850161269d565b91505092915050565b600081519050919050565b600082825260208201905092915050565b60005b8381101561283e578082015181840152602081019050612823565b60008484015250505050565b6000601f19601f8301169050919050565b600061286682612804565b612870818561280f565b9350612880818560208601612820565b6128898161284a565b840191505092915050565b600060208201905081810360008301526128ae818461285b565b905092915050565b600080fd5b600080fd5b7f4e487b7100000000000000000000000000000000000000000000000000000000600052604160045260246000fd5b6128f88261284a565b810181811067ffffffffffffffff82111715612917576129166128c0565b5b80604052505050565b600061292a61260a565b905061293682826128ef565b919050565b600067ffffffffffffffff821115612956576129556128c0565b5b61295f8261284a565b9050602081019050919050565b82818337600083830152505050565b600061298e6129898461293b565b612920565b9050828152602081018484840111156129aa576129a96128bb565b5b6129b584828561296c565b509392505050565b600082601f8301126129d2576129d16128b6565b5b81356129e284826020860161297b565b91505092915050565b60008060008060808587031215612a0557612a04612614565b5b6000612a138782880161269d565b9450506020612a248782880161269d565b9350506040612a358782880161269d565b925050606085013567ffffffffffffffff811115612a5657612a55612619565b5b612a62878288016129bd565b91505092959194509250565b600067ffffffffffffffff821115612a8957612a886128c0565b5b602082029050602081019050919050565b600080fd5b6000612ab2612aad84612a6e565b612920565b90508083825260208201905060208402830185811115612ad557612ad4612a9a565b5b835b81811015612afe5780612aea888261269d565b845260208401935050602081019050612ad7565b5050509392505050565b600082601f830112612b1d57612b1c6128b6565b5b8135612b2d848260208601612a9f565b91505092915050565b600080600080600060a08688031215612b5257612b51612614565b5b6000612b6088828901612667565b9550506020612b7188828901612667565b945050604086013567ffffffffffffffff811115612b9257612b91612619565b5b612b9e88828901612b08565b935050606086013567ffffffffffffffff811115612bbf57612bbe612619565b5b612bcb88828901612b08565b925050608086013567ffffffffffffffff811115612bec57612beb612619565b5b612bf8888289016129bd565b9150509295509295909350565b600067ffffffffffffffff821115612c2057612c1f6128c0565b5b602082029050602081019050919050565b6000612c44612c3f84612c05565b612920565b90508083825260208201905060208402830185811115612c6757612c66612a9a565b5b835b81811015612c905780612c7c8882612667565b845260208401935050602081019050612c69565b5050509392505050565b600082601f830112612caf57612cae6128b6565b5b8135612cbf848260208601612c31565b91505092915050565b60008060408385031215612cdf57612cde612614565b5b600083013567ffffffffffffffff811115612cfd57612cfc612619565b5b612d0985828601612c9a565b925050602083013567ffffffffffffffff811115612d2a57612d29612619565b5b612d3685828601612b08565b9150509250929050565b600081519050919050565b600082825260208201905092915050565b6000819050602082019050919050565b612d758161267c565b82525050565b6000612d878383612d6c565b60208301905092915050565b6000602082019050919050565b6000612dab82612d40565b612db58185612d4b565b9350612dc083612d5c565b8060005b83811015612df1578151612dd88882612d7b565b9750612de383612d93565b925050600181019050612dc4565b5085935050505092915050565b60006020820190508181036000830152612e188184612da0565b905092915050565b612e298161263e565b82525050565b6000602082019050612e446000830184612e20565b92915050565b600060208284031215612e6057612e5f612614565b5b6000612e6e84828501612667565b91505092915050565b60008060408385031215612e8e57612e8d612614565b5b6000612e9c8582860161269d565b9250506020612ead8582860161269d565b9150509250929050565b612ec0816127a1565b8114612ecb57600080fd5b50565b600081359050612edd81612eb7565b92915050565b60008060408385031215612efa57612ef9612614565b5b6000612f0885828601612667565b9250506020612f1985828601612ece565b9150509250929050565b60008060408385031215612f3a57612f39612614565b5b6000612f4885828601612667565b9250506020612f5985828601612667565b9150509250929050565b600080600080600060a08688031215612f7f57612f7e612614565b5b6000612f8d88828901612667565b9550506020612f9e88828901612667565b9450506040612faf8882890161269d565b9350506060612fc08882890161269d565b925050608086013567ffffffffffffffff811115612fe157612fe0612619565b5b612fed888289016129bd565b9150509295509295909350565b7f455243313135353a2061646472657373207a65726f206973206e6f742061207660008201527f616c6964206f776e657200000000000000000000000000000000000000000000602082015250565b6000613056602a8361280f565b915061306182612ffa565b604082019050919050565b6000602082019050818103600083015261308581613049565b9050919050565b7f4e487b7100000000000000000000000000000000000000000000000000000000600052602260045260246000fd5b600060028204905060018216806130d357607f821691505b6020821081036130e6576130e561308c565b5b50919050565b7f5061737365733a2053616c652073746172742074696d652073686f756c64206260008201527f6520696e20746865206675747572650000000000000000000000000000000000602082015250565b6000613148602f8361280f565b9150613153826130ec565b604082019050919050565b600060208201905081810360008301526131778161313b565b9050919050565b7f4e487b7100000000000000000000000000000000000000000000000000000000600052601160045260246000fd5b60006131b88261267c565b91507fffffffffffffffffffffffffffffffffffffffffffffffffffffffffffffffff82036131ea576131e961317e565b5b600182019050919050565b7f4e487b7100000000000000000000000000000000000000000000000000000000600052603260045260246000fd5b7f5061737365733a20496e636f72726563742045746865722073656e7400000000600082015250565b600061325a601c8361280f565b915061326582613224565b602082019050919050565b600060208201905081810360008301526132898161324d565b9050919050565b7f5061737365733a20596f7520646f6e2774206f776e2074686973207061737300600082015250565b60006132c6601f8361280f565b91506132d182613290565b602082019050919050565b600060208201905081810360008301526132f5816132b9565b9050919050565b7f5061737365733a2054686973207061737320686173206e6f742065787069726560008201527f6420796574000000000000000000000000000000000000000000000000000000602082015250565b600061335860258361280f565b9150613363826132fc565b604082019050919050565b600060208201905081810360008301526133878161334b565b9050919050565b60006133998261267c565b91506133a48361267c565b92508282019050808211156133bc576133bb61317e565b5b92915050565b7f455243313135353a206163636f756e747320616e6420696473206c656e67746860008201527f206d69736d617463680000000000000000000000000000000000000000000000602082015250565b600061341e60298361280f565b9150613429826133c2565b604082019050919050565b6000602082019050818103600083015261344d81613411565b9050919050565b60008151905061346381612686565b92915050565b60006020828403121561347f5761347e612614565b5b600061348d84828501613454565b91505092915050565b60006134a18261267c565b91506134ac8361267c565b92508282026134ba8161267c565b915082820484148315176134d1576134d061317e565b5b5092915050565b7f5061737365733a204f7574206f662073746f636b000000000000000000000000600082015250565b600061350e60148361280f565b9150613519826134d8565b602082019050919050565b6000602082019050818103600083015261353d81613501565b9050919050565b7f5061737365733a2053616c6520686173206e6f74207374617274656420666f7260008201527f2074686973207061737300000000000000000000000000000000000000000000602082015250565b60006135a0602a8361280f565b91506135ab82613544565b604082019050919050565b600060208201905081810360008301526135cf81613593565b9050919050565b7f4e487b7100000000000000000000000000000000000000000000000000000000600052601260045260246000fd5b60006136108261267c565b915061361b8361267c565b92508261362b5761362a6135d6565b5b828206905092915050565b60006136418261267c565b915061364c8361267c565b92508282039050818111156136645761366361317e565b5b92915050565b60006136758261267c565b91506136808361267c565b9250826136905761368f6135d6565b5b828204905092915050565b7f4f776e61626c653a206e6577206f776e657220697320746865207a65726f206160008201527f6464726573730000000000000000000000000000000000000000000000000000602082015250565b60006136f760268361280f565b91506137028261369b565b604082019050919050565b60006020820190508181036000830152613726816136ea565b9050919050565b7f4f776e61626c653a2063616c6c6572206973206e6f7420746865206f776e6572600082015250565b600061376360208361280f565b915061376e8261372d565b602082019050919050565b6000602082019050818103600083015261379281613756565b9050919050565b7f455243313135353a206d696e7420746f20746865207a65726f2061646472657360008201527f7300000000000000000000000000000000000000000000000000000000000000602082015250565b60006137f560218361280f565b915061380082613799565b604082019050919050565b60006020820190508181036000830152613824816137e8565b9050919050565b600060408201905061384060008301856126f2565b61384d60208301846126f2565b9392505050565b7f455243313135353a2063616c6c6572206973206e6f7420746f6b656e206f776e60008201527f6572206f7220617070726f766564000000000000000000000000000000000000602082015250565b60006138b0602e8361280f565b91506138bb82613854565b604082019050919050565b600060208201905081810360008301526138df816138a3565b9050919050565b7f455243313135353a207472616e7366657220746f20746865207a65726f20616460008201527f6472657373000000000000000000000000000000000000000000000000000000602082015250565b600061394260258361280f565b915061394d826138e6565b604082019050919050565b6000602082019050818103600083015261397181613935565b9050919050565b7f455243313135353a20696e73756666696369656e742062616c616e636520666f60008201527f72207472616e7366657200000000000000000000000000000000000000000000602082015250565b60006139d4602a8361280f565b91506139df82613978565b604082019050919050565b60006020820190508181036000830152613a03816139c7565b9050919050565b7f455243313135353a2073657474696e6720617070726f76616c2073746174757360008201527f20666f722073656c660000000000000000000000000000000000000000000000602082015250565b6000613a6660298361280f565b9150613a7182613a0a565b604082019050919050565b60006020820190508181036000830152613a9581613a59565b9050919050565b600081519050919050565b600082825260208201905092915050565b6000613ac382613a9c565b613acd8185613aa7565b9350613add818560208601612820565b613ae68161284a565b840191505092915050565b600060a082019050613b066000830188612e20565b613b136020830187612e20565b613b2060408301866126f2565b613b2d60608301856126f2565b8181036080830152613b3f8184613ab8565b90509695505050505050565b600081519050613b5a81612748565b92915050565b600060208284031215613b7657613b75612614565b5b6000613b8484828501613b4b565b91505092915050565b60008160e01c9050919050565b600060033d1115613bb95760046000803e613bb6600051613b8d565b90505b90565b600060443d10613c4957613bce61260a565b60043d036004823e80513d602482011167ffffffffffffffff82111715613bf6575050613c49565b808201805167ffffffffffffffff811115613c145750505050613c49565b80602083010160043d038501811115613c31575050505050613c49565b613c40826020018501866128ef565b82955050505050505b90565b7f455243313135353a207472616e7366657220746f206e6f6e2d4552433131353560008201527f526563656976657220696d706c656d656e746572000000000000000000000000602082015250565b6000613ca860348361280f565b9150613cb382613c4c565b604082019050919050565b60006020820190508181036000830152613cd781613c9b565b9050919050565b7f455243313135353a204552433131353552656365697665722072656a6563746560008201527f6420746f6b656e73000000000000000000000000000000000000000000000000602082015250565b6000613d3a60288361280f565b9150613d4582613cde565b604082019050919050565b60006020820190508181036000830152613d6981613d2d565b9050919050565b7f455243313135353a2069647320616e6420616d6f756e7473206c656e6774682060008201527f6d69736d61746368000000000000000000000000000000000000000000000000602082015250565b6000613dcc60288361280f565b9150613dd782613d70565b604082019050919050565b60006020820190508181036000830152613dfb81613dbf565b9050919050565b60006040820190508181036000830152613e1c8185612da0565b90508181036020830152613e308184612da0565b90509392505050565b600060a082019050613e4e6000830188612e20565b613e5b6020830187612e20565b8181036040830152613e6d8186612da0565b90508181036060830152613e818185612da0565b90508181036080830152613e958184613ab8565b9050969550505050505056fea2646970667358221220be7da7b301f3c46fa6f816a7c4b92baa64884c0d0c1170e8fe71149a3bd6b8f364736f6c6343000813003368747470733a2f2f697066732e696f2f697066732f516d504451686b63796f62637566374477546f62416971663834573275475131727265674b5372585835733343772f7b69647d2e6a736f6e",
  "linkReferences": {},
  "deployedLinkReferences": {}
}