{
  "_format": "hh-sol-artifact-1",
  "contractName": "Pass",
  "sourceName": "contracts/Pass.sol",
  "abi": [
    {
      "inputs": [],
      "stateMutability": "nonpayable",
      "type": "constructor"
    },
    {
      "anonymous": false,
      "inputs": [
        {
          "indexed": true,
          "internalType": "address",
          "name": "account",
          "type": "address"
        },
        {
          "indexed": true,
          "internalType": "address",
          "name": "operator",
          "type": "address"
        },
        {
          "indexed": false,
          "internalType": "bool",
          "name": "approved",
          "type": "bool"
        }
      ],
      "name": "ApprovalForAll",
      "type": "event"
    },
    {
      "anonymous": false,
      "inputs": [
        {
          "indexed": true,
          "internalType": "address",
          "name": "previousOwner",
          "type": "address"
        },
        {
          "indexed": true,
          "internalType": "address",
          "name": "newOwner",
          "type": "address"
        }
      ],
      "name": "OwnershipTransferred",
      "type": "event"
    },
    {
      "anonymous": false,
      "inputs": [
        {
          "indexed": true,
          "internalType": "address",
          "name": "operator",
          "type": "address"
        },
        {
          "indexed": true,
          "internalType": "address",
          "name": "from",
          "type": "address"
        },
        {
          "indexed": true,
          "internalType": "address",
          "name": "to",
          "type": "address"
        },
        {
          "indexed": false,
          "internalType": "uint256[]",
          "name": "ids",
          "type": "uint256[]"
        },
        {
          "indexed": false,
          "internalType": "uint256[]",
          "name": "values",
          "type": "uint256[]"
        }
      ],
      "name": "TransferBatch",
      "type": "event"
    },
    {
      "anonymous": false,
      "inputs": [
        {
          "indexed": true,
          "internalType": "address",
          "name": "operator",
          "type": "address"
        },
        {
          "indexed": true,
          "internalType": "address",
          "name": "from",
          "type": "address"
        },
        {
          "indexed": true,
          "internalType": "address",
          "name": "to",
          "type": "address"
        },
        {
          "indexed": false,
          "internalType": "uint256",
          "name": "id",
          "type": "uint256"
        },
        {
          "indexed": false,
          "internalType": "uint256",
          "name": "value",
          "type": "uint256"
        }
      ],
      "name": "TransferSingle",
      "type": "event"
    },
    {
      "anonymous": false,
      "inputs": [
        {
          "indexed": false,
          "internalType": "string",
          "name": "value",
          "type": "string"
        },
        {
          "indexed": true,
          "internalType": "uint256",
          "name": "id",
          "type": "uint256"
        }
      ],
      "name": "URI",
      "type": "event"
    },
    {
      "inputs": [
        {
          "internalType": "address",
          "name": "",
          "type": "address"
        },
        {
          "internalType": "uint256",
          "name": "",
          "type": "uint256"
        }
      ],
      "name": "activeLoans",
      "outputs": [
        {
          "internalType": "address",
          "name": "borrower",
          "type": "address"
        },
        {
          "internalType": "uint256",
          "name": "startTime",
          "type": "uint256"
        },
        {
          "internalType": "uint256",
          "name": "endTime",
          "type": "uint256"
        },
        {
          "internalType": "bool",
          "name": "returned",
          "type": "bool"
        }
      ],
      "stateMutability": "view",
      "type": "function"
    },
    {
      "inputs": [],
      "name": "approveContract",
      "outputs": [],
      "stateMutability": "nonpayable",
      "type": "function"
    },
    {
      "inputs": [
        {
          "internalType": "address",
          "name": "account",
          "type": "address"
        },
        {
          "internalType": "uint256",
          "name": "id",
          "type": "uint256"
        }
      ],
      "name": "balanceOf",
      "outputs": [
        {
          "internalType": "uint256",
          "name": "",
          "type": "uint256"
        }
      ],
      "stateMutability": "view",
      "type": "function"
    },
    {
      "inputs": [
        {
          "internalType": "address[]",
          "name": "accounts",
          "type": "address[]"
        },
        {
          "internalType": "uint256[]",
          "name": "ids",
          "type": "uint256[]"
        }
      ],
      "name": "balanceOfBatch",
      "outputs": [
        {
          "internalType": "uint256[]",
          "name": "",
          "type": "uint256[]"
        }
      ],
      "stateMutability": "view",
      "type": "function"
    },
    {
      "inputs": [],
      "name": "discount",
      "outputs": [
        {
          "internalType": "uint256",
          "name": "",
          "type": "uint256"
        }
      ],
      "stateMutability": "view",
      "type": "function"
    },
    {
      "inputs": [
        {
          "internalType": "uint256",
          "name": "passId",
          "type": "uint256"
        }
      ],
      "name": "endLoan",
      "outputs": [],
      "stateMutability": "nonpayable",
      "type": "function"
    },
    {
      "inputs": [
        {
          "internalType": "address",
          "name": "account",
          "type": "address"
        },
        {
          "internalType": "address",
          "name": "operator",
          "type": "address"
        }
      ],
      "name": "isApprovedForAll",
      "outputs": [
        {
          "internalType": "bool",
          "name": "",
          "type": "bool"
        }
      ],
      "stateMutability": "view",
      "type": "function"
    },
    {
      "inputs": [
        {
          "internalType": "address",
          "name": "passHolder",
          "type": "address"
        },
        {
          "internalType": "uint256",
          "name": "passId",
          "type": "uint256"
        }
      ],
      "name": "isPassExpired",
      "outputs": [
        {
          "internalType": "bool",
          "name": "",
          "type": "bool"
        }
      ],
      "stateMutability": "view",
      "type": "function"
    },
    {
      "inputs": [
        {
          "internalType": "address",
          "name": "borrower",
          "type": "address"
        },
        {
          "internalType": "uint256",
          "name": "passId",
          "type": "uint256"
        },
        {
          "internalType": "uint256",
          "name": "duration",
          "type": "uint256"
        }
      ],
      "name": "lendPass",
      "outputs": [],
      "stateMutability": "nonpayable",
      "type": "function"
    },
    {
      "inputs": [
        {
          "internalType": "uint256",
          "name": "amount",
          "type": "uint256"
        },
        {
          "internalType": "uint256",
          "name": "saleStartTime",
          "type": "uint256"
        },
        {
          "internalType": "uint256",
          "name": "_price",
          "type": "uint256"
        },
        {
          "internalType": "bytes",
          "name": "data",
          "type": "bytes"
        }
      ],
      "name": "mintPass",
      "outputs": [],
      "stateMutability": "nonpayable",
      "type": "function"
    },
    {
      "inputs": [],
      "name": "nextPassId",
      "outputs": [
        {
          "internalType": "uint256",
          "name": "",
          "type": "uint256"
        }
      ],
      "stateMutability": "view",
      "type": "function"
    },
    {
      "inputs": [],
      "name": "owner",
      "outputs": [
        {
          "internalType": "address",
          "name": "",
          "type": "address"
        }
      ],
      "stateMutability": "view",
      "type": "function"
    },
    {
      "inputs": [
        {
          "internalType": "address",
          "name": "_user",
          "type": "address"
        }
      ],
      "name": "ownsPreviousCollectionNFT",
      "outputs": [
        {
          "internalType": "bool",
          "name": "",
          "type": "bool"
        }
      ],
      "stateMutability": "view",
      "type": "function"
    },
    {
      "inputs": [],
      "name": "passDuration",
      "outputs": [
        {
          "internalType": "uint256",
          "name": "",
          "type": "uint256"
        }
      ],
      "stateMutability": "view",
      "type": "function"
    },
    {
      "inputs": [
        {
          "internalType": "address",
          "name": "",
          "type": "address"
        },
        {
          "internalType": "uint256",
          "name": "",
          "type": "uint256"
        }
      ],
      "name": "passExpirationTime",
      "outputs": [
        {
          "internalType": "uint256",
          "name": "",
          "type": "uint256"
        }
      ],
      "stateMutability": "view",
      "type": "function"
    },
    {
      "inputs": [
        {
          "internalType": "uint256",
          "name": "",
          "type": "uint256"
        }
      ],
      "name": "passPrice",
      "outputs": [
        {
          "internalType": "uint256",
          "name": "",
          "type": "uint256"
        }
      ],
      "stateMutability": "view",
      "type": "function"
    },
    {
      "inputs": [
        {
          "internalType": "uint256",
          "name": "",
          "type": "uint256"
        }
      ],
      "name": "passSaleStartTime",
      "outputs": [
        {
          "internalType": "uint256",
          "name": "",
          "type": "uint256"
        }
      ],
      "stateMutability": "view",
      "type": "function"
    },
    {
      "inputs": [],
      "name": "previousCollectionAddress",
      "outputs": [
        {
          "internalType": "address",
          "name": "",
          "type": "address"
        }
      ],
      "stateMutability": "view",
      "type": "function"
    },
    {
      "inputs": [
        {
          "internalType": "uint256",
          "name": "passId",
          "type": "uint256"
        }
      ],
      "name": "purchasePass",
      "outputs": [],
      "stateMutability": "payable",
      "type": "function"
    },
    {
      "inputs": [
        {
          "internalType": "uint256",
          "name": "passId",
          "type": "uint256"
        }
      ],
      "name": "reactivatePass",
      "outputs": [],
      "stateMutability": "payable",
      "type": "function"
    },
    {
      "inputs": [],
      "name": "renounceOwnership",
      "outputs": [],
      "stateMutability": "nonpayable",
      "type": "function"
    },
    {
      "inputs": [
        {
          "internalType": "address",
          "name": "from",
          "type": "address"
        },
        {
          "internalType": "address",
          "name": "to",
          "type": "address"
        },
        {
          "internalType": "uint256[]",
          "name": "ids",
          "type": "uint256[]"
        },
        {
          "internalType": "uint256[]",
          "name": "amounts",
          "type": "uint256[]"
        },
        {
          "internalType": "bytes",
          "name": "data",
          "type": "bytes"
        }
      ],
      "name": "safeBatchTransferFrom",
      "outputs": [],
      "stateMutability": "nonpayable",
      "type": "function"
    },
    {
      "inputs": [
        {
          "internalType": "address",
          "name": "from",
          "type": "address"
        },
        {
          "internalType": "address",
          "name": "to",
          "type": "address"
        },
        {
          "internalType": "uint256",
          "name": "id",
          "type": "uint256"
        },
        {
          "internalType": "uint256",
          "name": "amount",
          "type": "uint256"
        },
        {
          "internalType": "bytes",
          "name": "data",
          "type": "bytes"
        }
      ],
      "name": "safeTransferFrom",
      "outputs": [],
      "stateMutability": "nonpayable",
      "type": "function"
    },
    {
      "inputs": [
        {
          "internalType": "address",
          "name": "operator",
          "type": "address"
        },
        {
          "internalType": "bool",
          "name": "approved",
          "type": "bool"
        }
      ],
      "name": "setApprovalForAll",
      "outputs": [],
      "stateMutability": "nonpayable",
      "type": "function"
    },
    {
      "inputs": [
        {
          "internalType": "uint256",
          "name": "passId",
          "type": "uint256"
        },
        {
          "internalType": "uint256",
          "name": "_price",
          "type": "uint256"
        }
      ],
      "name": "setPassPrice",
      "outputs": [],
      "stateMutability": "nonpayable",
      "type": "function"
    },
    {
      "inputs": [
        {
          "internalType": "address",
          "name": "_previousCollectionAddress",
          "type": "address"
        }
      ],
      "name": "setPreviousCollectionAddress",
      "outputs": [],
      "stateMutability": "nonpayable",
      "type": "function"
    },
    {
      "inputs": [
        {
          "internalType": "bytes4",
          "name": "interfaceId",
          "type": "bytes4"
        }
      ],
      "name": "supportsInterface",
      "outputs": [
        {
          "internalType": "bool",
          "name": "",
          "type": "bool"
        }
      ],
      "stateMutability": "view",
      "type": "function"
    },
    {
      "inputs": [
        {
          "internalType": "address",
          "name": "newOwner",
          "type": "address"
        }
      ],
      "name": "transferOwnership",
      "outputs": [],
      "stateMutability": "nonpayable",
      "type": "function"
    },
    {
      "inputs": [
        {
          "internalType": "uint256",
          "name": "",
          "type": "uint256"
        }
      ],
      "name": "uri",
      "outputs": [
        {
          "internalType": "string",
          "name": "",
          "type": "string"
        }
      ],
      "stateMutability": "view",
      "type": "function"
    }
  ],
  "bytecode": "0x608060405260006004556301e13380600555652d79883d20006006553480156200002857600080fd5b506040518060400160405280601281526020017f55524920474f455320484552452f7b69647d000000000000000000000000000081525062000070816200009760201b60201c565b506200009162000085620000ac60201b60201c565b620000b460201b60201c565b620004db565b8060029081620000a89190620003f4565b5050565b600033905090565b6000600360009054906101000a900473ffffffffffffffffffffffffffffffffffffffff16905081600360006101000a81548173ffffffffffffffffffffffffffffffffffffffff021916908373ffffffffffffffffffffffffffffffffffffffff1602179055508173ffffffffffffffffffffffffffffffffffffffff168173ffffffffffffffffffffffffffffffffffffffff167f8be0079c531659141344cd1fd0a4f28419497f9722a3daafe3b4186f6b6457e060405160405180910390a35050565b600081519050919050565b7f4e487b7100000000000000000000000000000000000000000000000000000000600052604160045260246000fd5b7f4e487b7100000000000000000000000000000000000000000000000000000000600052602260045260246000fd5b60006002820490506001821680620001fc57607f821691505b602082108103620002125762000211620001b4565b5b50919050565b60008190508160005260206000209050919050565b60006020601f8301049050919050565b600082821b905092915050565b6000600883026200027c7fffffffffffffffffffffffffffffffffffffffffffffffffffffffffffffffff826200023d565b6200028886836200023d565b95508019841693508086168417925050509392505050565b6000819050919050565b6000819050919050565b6000620002d5620002cf620002c984620002a0565b620002aa565b620002a0565b9050919050565b6000819050919050565b620002f183620002b4565b620003096200030082620002dc565b8484546200024a565b825550505050565b600090565b6200032062000311565b6200032d818484620002e6565b505050565b5b8181101562000355576200034960008262000316565b60018101905062000333565b5050565b601f821115620003a4576200036e8162000218565b62000379846200022d565b8101602085101562000389578190505b620003a162000398856200022d565b83018262000332565b50505b505050565b600082821c905092915050565b6000620003c960001984600802620003a9565b1980831691505092915050565b6000620003e48383620003b6565b9150826002028217905092915050565b620003ff826200017a565b67ffffffffffffffff8111156200041b576200041a62000185565b5b620004278254620001e3565b6200043482828562000359565b600060209050601f8311600181146200046c576000841562000457578287015190505b620004638582620003d6565b865550620004d3565b601f1984166200047c8662000218565b60005b82811015620004a6578489015182556001820191506020850194506020810190506200047f565b86831015620004c65784890151620004c2601f891682620003b6565b8355505b6001600288020188555050505b505050505050565b6146fa80620004eb6000396000f3fe6080604052600436106101c15760003560e01c80634f307d3b116100f7578063a22cb46511610095578063e985e9c511610064578063e985e9c51461065c578063f242432a14610699578063f2fde38b146106c2578063f87de02d146106eb576101c1565b8063a22cb465146105a4578063aa792f1b146105cd578063bb5ed241146105f6578063dddff8d31461061f576101c1565b80636b6f4a9d116100d15780636b6f4a9d1461050e578063715018a6146105395780637870860b146105505780638da5cb5b14610579576101c1565b80634f307d3b1461047d5780635e0ffccd146104a85780635edaf210146104d1576101c1565b80632eb2c2d61161016457806345f93f501161013e57806345f93f50146103bc5780634c96b915146103e75780634da41b41146104035780634e1273f414610440576101c1565b80632eb2c2d61461033f5780633792c9161461036857806343d00d04146103a5576101c1565b80630e89341c116101a05780630e89341c1461027d57806314462eda146102ba57806321111063146102d65780632c3e9d9d14610316576101c1565b8062fdd58e146101c657806301ffc9a7146102035780630b0d701d14610240575b600080fd5b3480156101d257600080fd5b506101ed60048036038101906101e89190612c59565b610716565b6040516101fa9190612ca8565b60405180910390f35b34801561020f57600080fd5b5061022a60048036038101906102259190612d1b565b6107de565b6040516102379190612d63565b60405180910390f35b34801561024c57600080fd5b5061026760048036038101906102629190612d7e565b6108c0565b6040516102749190612ca8565b60405180910390f35b34801561028957600080fd5b506102a4600480360381019061029f9190612d7e565b6108d8565b6040516102b19190612e3b565b60405180910390f35b6102d460048036038101906102cf9190612d7e565b61096c565b005b3480156102e257600080fd5b506102fd60048036038101906102f89190612c59565b610b6d565b60405161030d9493929190612e6c565b60405180910390f35b34801561032257600080fd5b5061033d60048036038101906103389190612fe6565b610bd7565b005b34801561034b57600080fd5b5061036660048036038101906103619190613131565b610c89565b005b34801561037457600080fd5b5061038f600480360381019061038a9190612d7e565b610e2f565b60405161039c9190612ca8565b60405180910390f35b3480156103b157600080fd5b506103ba610e47565b005b3480156103c857600080fd5b506103d1610ebf565b6040516103de9190612ca8565b60405180910390f35b61040160048036038101906103fc9190612d7e565b610ec5565b005b34801561040f57600080fd5b5061042a60048036038101906104259190612c59565b6110ab565b6040516104379190612d63565b60405180910390f35b34801561044c57600080fd5b50610467600480360381019061046291906132c3565b611108565b60405161047491906133f9565b60405180910390f35b34801561048957600080fd5b50610492611221565b60405161049f919061341b565b60405180910390f35b3480156104b457600080fd5b506104cf60048036038101906104ca9190613436565b611247565b005b3480156104dd57600080fd5b506104f860048036038101906104f39190613436565b611293565b6040516105059190612d63565b60405180910390f35b34801561051a57600080fd5b50610523611340565b6040516105309190612ca8565b60405180910390f35b34801561054557600080fd5b5061054e611346565b005b34801561055c57600080fd5b5061057760048036038101906105729190612d7e565b61135a565b005b34801561058557600080fd5b5061058e611617565b60405161059b919061341b565b60405180910390f35b3480156105b057600080fd5b506105cb60048036038101906105c6919061348f565b611641565b005b3480156105d957600080fd5b506105f460048036038101906105ef91906134cf565b611657565b005b34801561060257600080fd5b5061061d60048036038101906106189190613522565b6118ba565b005b34801561062b57600080fd5b5061064660048036038101906106419190612c59565b6118de565b6040516106539190612ca8565b60405180910390f35b34801561066857600080fd5b50610683600480360381019061067e9190613562565b611903565b6040516106909190612d63565b60405180910390f35b3480156106a557600080fd5b506106c060048036038101906106bb91906135a2565b611997565b005b3480156106ce57600080fd5b506106e960048036038101906106e49190613436565b611afd565b005b3480156106f757600080fd5b50610700611b80565b60405161070d9190612ca8565b60405180910390f35b60008073ffffffffffffffffffffffffffffffffffffffff168373ffffffffffffffffffffffffffffffffffffffff1603610786576040517f08c379a000000000000000000000000000000000000000000000000000000000815260040161077d906136ab565b60405180910390fd5b60008083815260200190815260200160002060008473ffffffffffffffffffffffffffffffffffffffff1673ffffffffffffffffffffffffffffffffffffffff16815260200190815260200160002054905092915050565b60007fd9b67a26000000000000000000000000000000000000000000000000000000007bffffffffffffffffffffffffffffffffffffffffffffffffffffffff1916827bffffffffffffffffffffffffffffffffffffffffffffffffffffffff191614806108a957507f0e89341c000000000000000000000000000000000000000000000000000000007bffffffffffffffffffffffffffffffffffffffffffffffffffffffff1916827bffffffffffffffffffffffffffffffffffffffffffffffffffffffff1916145b806108b957506108b882611b86565b5b9050919050565b60086020528060005260406000206000915090505481565b6060600280546108e7906136fa565b80601f0160208091040260200160405190810160405280929190818152602001828054610913906136fa565b80156109605780601f1061093557610100808354040283529160200191610960565b820191906000526020600020905b81548152906001019060200180831161094357829003601f168201915b50505050509050919050565b600060076000838152602001908152602001600020549050600081905061099233611293565b156109a857600654826109a5919061375a565b90505b803410156109eb576040517f08c379a00000000000000000000000000000000000000000000000000000000081526004016109e2906137da565b60405180910390fd5b60006109fe6109f8611617565b85610716565b11610a3e576040517f08c379a0000000000000000000000000000000000000000000000000000000008152600401610a3590613846565b60405180910390fd5b6008600084815260200190815260200160002054421015610a94576040517f08c379a0000000000000000000000000000000000000000000000000000000008152600401610a8b906138d8565b60405180910390fd5b610ab8610a9f611617565b3385600160405180602001604052806000815250611bf0565b60055442610ac691906138f8565b600960003373ffffffffffffffffffffffffffffffffffffffff1673ffffffffffffffffffffffffffffffffffffffff168152602001908152602001600020600085815260200190815260200160002081905550610b22611617565b73ffffffffffffffffffffffffffffffffffffffff166108fc349081150290604051600060405180830381858888f19350505050158015610b67573d6000803e3d6000fd5b50505050565b600a602052816000526040600020602052806000526040600020600091509150508060000160009054906101000a900473ffffffffffffffffffffffffffffffffffffffff16908060010154908060020154908060030160009054906101000a900460ff16905084565b610bdf611e8b565b42831015610c22576040517f08c379a0000000000000000000000000000000000000000000000000000000008152600401610c199061399e565b60405180910390fd5b8160076000600454815260200190815260200160002081905550610c51610c47611617565b6004548684611f09565b826008600060045481526020019081526020016000208190555060046000815480929190610c7e906139be565b919050555050505050565b610c9685858585856120b9565b60005b8351811015610e27576000848281518110610cb757610cb6613a06565b5b602002602001015190506000600960008973ffffffffffffffffffffffffffffffffffffffff1673ffffffffffffffffffffffffffffffffffffffff16815260200190815260200160002060008381526020019081526020016000205414610e1357600960008873ffffffffffffffffffffffffffffffffffffffff1673ffffffffffffffffffffffffffffffffffffffff168152602001908152602001600020600082815260200190815260200160002054600960008873ffffffffffffffffffffffffffffffffffffffff1673ffffffffffffffffffffffffffffffffffffffff168152602001908152602001600020600083815260200190815260200160002081905550600960008873ffffffffffffffffffffffffffffffffffffffff1673ffffffffffffffffffffffffffffffffffffffff1681526020019081526020016000206000828152602001908152602001600020600090555b508080610e1f906139be565b915050610c99565b505050505050565b60076020528060005260406000206000915090505481565b610e4f611e8b565b3073ffffffffffffffffffffffffffffffffffffffff1663a22cb4653060016040518363ffffffff1660e01b8152600401610e8b929190613a35565b600060405180830381600087803b158015610ea557600080fd5b505af1158015610eb9573d6000803e3d6000fd5b50505050565b60045481565b60076000828152602001908152602001600020543414610f1a576040517f08c379a0000000000000000000000000000000000000000000000000000000008152600401610f11906137da565b60405180910390fd5b6000610f263383610716565b11610f66576040517f08c379a0000000000000000000000000000000000000000000000000000000008152600401610f5d90613aaa565b60405180910390fd5b600960003373ffffffffffffffffffffffffffffffffffffffff1673ffffffffffffffffffffffffffffffffffffffff1681526020019081526020016000206000828152602001908152602001600020544211610ff8576040517f08c379a0000000000000000000000000000000000000000000000000000000008152600401610fef90613b3c565b60405180910390fd5b6005544261100691906138f8565b600960003373ffffffffffffffffffffffffffffffffffffffff1673ffffffffffffffffffffffffffffffffffffffff168152602001908152602001600020600083815260200190815260200160002081905550611062611617565b73ffffffffffffffffffffffffffffffffffffffff166108fc349081150290604051600060405180830381858888f193505050501580156110a7573d6000803e3d6000fd5b5050565b600042600960008573ffffffffffffffffffffffffffffffffffffffff1673ffffffffffffffffffffffffffffffffffffffff16815260200190815260200160002060008481526020019081526020016000205410905092915050565b6060815183511461114e576040517f08c379a000000000000000000000000000000000000000000000000000000000815260040161114590613bce565b60405180910390fd5b6000835167ffffffffffffffff81111561116b5761116a612ebb565b5b6040519080825280602002602001820160405280156111995781602001602082028036833780820191505090505b50905060005b8451811015611216576111e68582815181106111be576111bd613a06565b5b60200260200101518583815181106111d9576111d8613a06565b5b6020026020010151610716565b8282815181106111f9576111f8613a06565b5b6020026020010181815250508061120f906139be565b905061119f565b508091505092915050565b600b60009054906101000a900473ffffffffffffffffffffffffffffffffffffffff1681565b61124f611e8b565b80600b60006101000a81548173ffffffffffffffffffffffffffffffffffffffff021916908373ffffffffffffffffffffffffffffffffffffffff16021790555050565b600080600b60009054906101000a900473ffffffffffffffffffffffffffffffffffffffff16905060008173ffffffffffffffffffffffffffffffffffffffff166370a08231856040518263ffffffff1660e01b81526004016112f6919061341b565b602060405180830381865afa158015611313573d6000803e3d6000fd5b505050506040513d601f19601f820116820180604052508101906113379190613c03565b11915050919050565b60065481565b61134e611e8b565b611358600061215a565b565b6000600a60003373ffffffffffffffffffffffffffffffffffffffff1673ffffffffffffffffffffffffffffffffffffffff16815260200190815260200160002060008381526020019081526020016000209050600073ffffffffffffffffffffffffffffffffffffffff168160000160009054906101000a900473ffffffffffffffffffffffffffffffffffffffff1673ffffffffffffffffffffffffffffffffffffffff1603611441576040517f08c379a000000000000000000000000000000000000000000000000000000000815260040161143890613ca2565b60405180910390fd5b8060030160009054906101000a900460ff1615611493576040517f08c379a000000000000000000000000000000000000000000000000000000000815260040161148a90613d34565b60405180910390fd5b3373ffffffffffffffffffffffffffffffffffffffff168160000160009054906101000a900473ffffffffffffffffffffffffffffffffffffffff1673ffffffffffffffffffffffffffffffffffffffff1614806114f5575080600201544210155b611534576040517f08c379a000000000000000000000000000000000000000000000000000000000815260040161152b90613dc6565b60405180910390fd5b6115758160000160009054906101000a900473ffffffffffffffffffffffffffffffffffffffff163384600160405180602001604052806000815250611997565b600a60003373ffffffffffffffffffffffffffffffffffffffff1673ffffffffffffffffffffffffffffffffffffffff1681526020019081526020016000206000838152602001908152602001600020600080820160006101000a81549073ffffffffffffffffffffffffffffffffffffffff0219169055600182016000905560028201600090556003820160006101000a81549060ff021916905550505050565b6000600360009054906101000a900473ffffffffffffffffffffffffffffffffffffffff16905090565b61165361164c612220565b8383612228565b5050565b60006116633384610716565b116116a3576040517f08c379a000000000000000000000000000000000000000000000000000000000815260040161169a90613e32565b60405180910390fd5b600073ffffffffffffffffffffffffffffffffffffffff16600a60003373ffffffffffffffffffffffffffffffffffffffff1673ffffffffffffffffffffffffffffffffffffffff168152602001908152602001600020600084815260200190815260200160002060000160009054906101000a900473ffffffffffffffffffffffffffffffffffffffff1673ffffffffffffffffffffffffffffffffffffffff1614611785576040517f08c379a000000000000000000000000000000000000000000000000000000000815260040161177c90613e9e565b60405180910390fd5b6117a2338484600160405180602001604052806000815250611997565b60405180608001604052808473ffffffffffffffffffffffffffffffffffffffff16815260200142815260200182426117db91906138f8565b815260200160001515815250600a60003373ffffffffffffffffffffffffffffffffffffffff1673ffffffffffffffffffffffffffffffffffffffff168152602001908152602001600020600084815260200190815260200160002060008201518160000160006101000a81548173ffffffffffffffffffffffffffffffffffffffff021916908373ffffffffffffffffffffffffffffffffffffffff160217905550602082015181600101556040820151816002015560608201518160030160006101000a81548160ff021916908315150217905550905050505050565b6118c2611e8b565b8060076000848152602001908152602001600020819055505050565b6009602052816000526040600020602052806000526040600020600091509150505481565b6000600160008473ffffffffffffffffffffffffffffffffffffffff1673ffffffffffffffffffffffffffffffffffffffff16815260200190815260200160002060008373ffffffffffffffffffffffffffffffffffffffff1673ffffffffffffffffffffffffffffffffffffffff16815260200190815260200160002060009054906101000a900460ff16905092915050565b6119a48585858585612394565b6000600960008773ffffffffffffffffffffffffffffffffffffffff1673ffffffffffffffffffffffffffffffffffffffff16815260200190815260200160002060008581526020019081526020016000205414611af657600960008673ffffffffffffffffffffffffffffffffffffffff1673ffffffffffffffffffffffffffffffffffffffff168152602001908152602001600020600084815260200190815260200160002054600960008673ffffffffffffffffffffffffffffffffffffffff1673ffffffffffffffffffffffffffffffffffffffff168152602001908152602001600020600085815260200190815260200160002081905550600960008673ffffffffffffffffffffffffffffffffffffffff1673ffffffffffffffffffffffffffffffffffffffff1681526020019081526020016000206000848152602001908152602001600020600090555b5050505050565b611b05611e8b565b600073ffffffffffffffffffffffffffffffffffffffff168173ffffffffffffffffffffffffffffffffffffffff1603611b74576040517f08c379a0000000000000000000000000000000000000000000000000000000008152600401611b6b90613f30565b60405180910390fd5b611b7d8161215a565b50565b60055481565b60007f01ffc9a7000000000000000000000000000000000000000000000000000000007bffffffffffffffffffffffffffffffffffffffffffffffffffffffff1916827bffffffffffffffffffffffffffffffffffffffffffffffffffffffff1916149050919050565b600073ffffffffffffffffffffffffffffffffffffffff168473ffffffffffffffffffffffffffffffffffffffff1603611c5f576040517f08c379a0000000000000000000000000000000000000000000000000000000008152600401611c5690613fc2565b60405180910390fd5b6000611c69612220565b90506000611c7685612435565b90506000611c8385612435565b9050611c938389898585896124af565b600080600088815260200190815260200160002060008a73ffffffffffffffffffffffffffffffffffffffff1673ffffffffffffffffffffffffffffffffffffffff16815260200190815260200160002054905085811015611d2a576040517f08c379a0000000000000000000000000000000000000000000000000000000008152600401611d2190614054565b60405180910390fd5b85810360008089815260200190815260200160002060008b73ffffffffffffffffffffffffffffffffffffffff1673ffffffffffffffffffffffffffffffffffffffff168152602001908152602001600020819055508560008089815260200190815260200160002060008a73ffffffffffffffffffffffffffffffffffffffff1673ffffffffffffffffffffffffffffffffffffffff1681526020019081526020016000206000828254611ddf91906138f8565b925050819055508773ffffffffffffffffffffffffffffffffffffffff168973ffffffffffffffffffffffffffffffffffffffff168573ffffffffffffffffffffffffffffffffffffffff167fc3d58168c5ae7397731d063d5bbf3d657854427343f4c083240f7aacaa2d0f628a8a604051611e5c929190614074565b60405180910390a4611e72848a8a86868a6124b7565b611e80848a8a8a8a8a6124bf565b505050505050505050565b611e93612220565b73ffffffffffffffffffffffffffffffffffffffff16611eb1611617565b73ffffffffffffffffffffffffffffffffffffffff1614611f07576040517f08c379a0000000000000000000000000000000000000000000000000000000008152600401611efe906140e9565b60405180910390fd5b565b600073ffffffffffffffffffffffffffffffffffffffff168473ffffffffffffffffffffffffffffffffffffffff1603611f78576040517f08c379a0000000000000000000000000000000000000000000000000000000008152600401611f6f9061417b565b60405180910390fd5b6000611f82612220565b90506000611f8f85612435565b90506000611f9c85612435565b9050611fad836000898585896124af565b8460008088815260200190815260200160002060008973ffffffffffffffffffffffffffffffffffffffff1673ffffffffffffffffffffffffffffffffffffffff168152602001908152602001600020600082825461200c91906138f8565b925050819055508673ffffffffffffffffffffffffffffffffffffffff16600073ffffffffffffffffffffffffffffffffffffffff168473ffffffffffffffffffffffffffffffffffffffff167fc3d58168c5ae7397731d063d5bbf3d657854427343f4c083240f7aacaa2d0f62898960405161208a929190614074565b60405180910390a46120a1836000898585896124b7565b6120b0836000898989896124bf565b50505050505050565b6120c1612220565b73ffffffffffffffffffffffffffffffffffffffff168573ffffffffffffffffffffffffffffffffffffffff161480612107575061210685612101612220565b611903565b5b612146576040517f08c379a000000000000000000000000000000000000000000000000000000000815260040161213d9061420d565b60405180910390fd5b6121538585858585612696565b5050505050565b6000600360009054906101000a900473ffffffffffffffffffffffffffffffffffffffff16905081600360006101000a81548173ffffffffffffffffffffffffffffffffffffffff021916908373ffffffffffffffffffffffffffffffffffffffff1602179055508173ffffffffffffffffffffffffffffffffffffffff168173ffffffffffffffffffffffffffffffffffffffff167f8be0079c531659141344cd1fd0a4f28419497f9722a3daafe3b4186f6b6457e060405160405180910390a35050565b600033905090565b8173ffffffffffffffffffffffffffffffffffffffff168373ffffffffffffffffffffffffffffffffffffffff1603612296576040517f08c379a000000000000000000000000000000000000000000000000000000000815260040161228d9061429f565b60405180910390fd5b80600160008573ffffffffffffffffffffffffffffffffffffffff1673ffffffffffffffffffffffffffffffffffffffff16815260200190815260200160002060008473ffffffffffffffffffffffffffffffffffffffff1673ffffffffffffffffffffffffffffffffffffffff16815260200190815260200160002060006101000a81548160ff0219169083151502179055508173ffffffffffffffffffffffffffffffffffffffff168373ffffffffffffffffffffffffffffffffffffffff167f17307eab39ab6107e8899845ad3d59bd9653f200f220920489ca2b5937696c31836040516123879190612d63565b60405180910390a3505050565b61239c612220565b73ffffffffffffffffffffffffffffffffffffffff168573ffffffffffffffffffffffffffffffffffffffff1614806123e257506123e1856123dc612220565b611903565b5b612421576040517f08c379a00000000000000000000000000000000000000000000000000000000081526004016124189061420d565b60405180910390fd5b61242e8585858585611bf0565b5050505050565b60606000600167ffffffffffffffff81111561245457612453612ebb565b5b6040519080825280602002602001820160405280156124825781602001602082028036833780820191505090505b509050828160008151811061249a57612499613a06565b5b60200260200101818152505080915050919050565b505050505050565b505050505050565b6124de8473ffffffffffffffffffffffffffffffffffffffff166129b7565b1561268e578373ffffffffffffffffffffffffffffffffffffffff1663f23a6e6187878686866040518663ffffffff1660e01b8152600401612524959493929190614314565b6020604051808303816000875af192505050801561256057506040513d601f19601f8201168201806040525081019061255d9190614383565b60015b6126055761256c6143bd565b806308c379a0036125c857506125806143df565b8061258b57506125ca565b806040517f08c379a00000000000000000000000000000000000000000000000000000000081526004016125bf9190612e3b565b60405180910390fd5b505b6040517f08c379a00000000000000000000000000000000000000000000000000000000081526004016125fc906144e1565b60405180910390fd5b63f23a6e6160e01b7bffffffffffffffffffffffffffffffffffffffffffffffffffffffff1916817bffffffffffffffffffffffffffffffffffffffffffffffffffffffff19161461268c576040517f08c379a000000000000000000000000000000000000000000000000000000000815260040161268390614573565b60405180910390fd5b505b505050505050565b81518351146126da576040517f08c379a00000000000000000000000000000000000000000000000000000000081526004016126d190614605565b60405180910390fd5b600073ffffffffffffffffffffffffffffffffffffffff168473ffffffffffffffffffffffffffffffffffffffff1603612749576040517f08c379a000000000000000000000000000000000000000000000000000000000815260040161274090613fc2565b60405180910390fd5b6000612753612220565b90506127638187878787876124af565b60005b845181101561291457600085828151811061278457612783613a06565b5b6020026020010151905060008583815181106127a3576127a2613a06565b5b60200260200101519050600080600084815260200190815260200160002060008b73ffffffffffffffffffffffffffffffffffffffff1673ffffffffffffffffffffffffffffffffffffffff16815260200190815260200160002054905081811015612844576040517f08c379a000000000000000000000000000000000000000000000000000000000815260040161283b90614054565b60405180910390fd5b81810360008085815260200190815260200160002060008c73ffffffffffffffffffffffffffffffffffffffff1673ffffffffffffffffffffffffffffffffffffffff168152602001908152602001600020819055508160008085815260200190815260200160002060008b73ffffffffffffffffffffffffffffffffffffffff1673ffffffffffffffffffffffffffffffffffffffff16815260200190815260200160002060008282546128f991906138f8565b925050819055505050508061290d906139be565b9050612766565b508473ffffffffffffffffffffffffffffffffffffffff168673ffffffffffffffffffffffffffffffffffffffff168273ffffffffffffffffffffffffffffffffffffffff167f4a39dc06d4c0dbc64b70af90fd698a233a518aa5d07e595d983b8c0526c8f7fb878760405161298b929190614625565b60405180910390a46129a18187878787876124b7565b6129af8187878787876129da565b505050505050565b6000808273ffffffffffffffffffffffffffffffffffffffff163b119050919050565b6129f98473ffffffffffffffffffffffffffffffffffffffff166129b7565b15612ba9578373ffffffffffffffffffffffffffffffffffffffff1663bc197c8187878686866040518663ffffffff1660e01b8152600401612a3f95949392919061465c565b6020604051808303816000875af1925050508015612a7b57506040513d601f19601f82011682018060405250810190612a789190614383565b60015b612b2057612a876143bd565b806308c379a003612ae35750612a9b6143df565b80612aa65750612ae5565b806040517f08c379a0000000000000000000000000000000000000000000000000000000008152600401612ada9190612e3b565b60405180910390fd5b505b6040517f08c379a0000000000000000000000000000000000000000000000000000000008152600401612b17906144e1565b60405180910390fd5b63bc197c8160e01b7bffffffffffffffffffffffffffffffffffffffffffffffffffffffff1916817bffffffffffffffffffffffffffffffffffffffffffffffffffffffff191614612ba7576040517f08c379a0000000000000000000000000000000000000000000000000000000008152600401612b9e90614573565b60405180910390fd5b505b505050505050565b6000604051905090565b600080fd5b600080fd5b600073ffffffffffffffffffffffffffffffffffffffff82169050919050565b6000612bf082612bc5565b9050919050565b612c0081612be5565b8114612c0b57600080fd5b50565b600081359050612c1d81612bf7565b92915050565b6000819050919050565b612c3681612c23565b8114612c4157600080fd5b50565b600081359050612c5381612c2d565b92915050565b60008060408385031215612c7057612c6f612bbb565b5b6000612c7e85828601612c0e565b9250506020612c8f85828601612c44565b9150509250929050565b612ca281612c23565b82525050565b6000602082019050612cbd6000830184612c99565b92915050565b60007fffffffff0000000000000000000000000000000000000000000000000000000082169050919050565b612cf881612cc3565b8114612d0357600080fd5b50565b600081359050612d1581612cef565b92915050565b600060208284031215612d3157612d30612bbb565b5b6000612d3f84828501612d06565b91505092915050565b60008115159050919050565b612d5d81612d48565b82525050565b6000602082019050612d786000830184612d54565b92915050565b600060208284031215612d9457612d93612bbb565b5b6000612da284828501612c44565b91505092915050565b600081519050919050565b600082825260208201905092915050565b60005b83811015612de5578082015181840152602081019050612dca565b60008484015250505050565b6000601f19601f8301169050919050565b6000612e0d82612dab565b612e178185612db6565b9350612e27818560208601612dc7565b612e3081612df1565b840191505092915050565b60006020820190508181036000830152612e558184612e02565b905092915050565b612e6681612be5565b82525050565b6000608082019050612e816000830187612e5d565b612e8e6020830186612c99565b612e9b6040830185612c99565b612ea86060830184612d54565b95945050505050565b600080fd5b600080fd5b7f4e487b7100000000000000000000000000000000000000000000000000000000600052604160045260246000fd5b612ef382612df1565b810181811067ffffffffffffffff82111715612f1257612f11612ebb565b5b80604052505050565b6000612f25612bb1565b9050612f318282612eea565b919050565b600067ffffffffffffffff821115612f5157612f50612ebb565b5b612f5a82612df1565b9050602081019050919050565b82818337600083830152505050565b6000612f89612f8484612f36565b612f1b565b905082815260208101848484011115612fa557612fa4612eb6565b5b612fb0848285612f67565b509392505050565b600082601f830112612fcd57612fcc612eb1565b5b8135612fdd848260208601612f76565b91505092915050565b6000806000806080858703121561300057612fff612bbb565b5b600061300e87828801612c44565b945050602061301f87828801612c44565b935050604061303087828801612c44565b925050606085013567ffffffffffffffff81111561305157613050612bc0565b5b61305d87828801612fb8565b91505092959194509250565b600067ffffffffffffffff82111561308457613083612ebb565b5b602082029050602081019050919050565b600080fd5b60006130ad6130a884613069565b612f1b565b905080838252602082019050602084028301858111156130d0576130cf613095565b5b835b818110156130f957806130e58882612c44565b8452602084019350506020810190506130d2565b5050509392505050565b600082601f83011261311857613117612eb1565b5b813561312884826020860161309a565b91505092915050565b600080600080600060a0868803121561314d5761314c612bbb565b5b600061315b88828901612c0e565b955050602061316c88828901612c0e565b945050604086013567ffffffffffffffff81111561318d5761318c612bc0565b5b61319988828901613103565b935050606086013567ffffffffffffffff8111156131ba576131b9612bc0565b5b6131c688828901613103565b925050608086013567ffffffffffffffff8111156131e7576131e6612bc0565b5b6131f388828901612fb8565b9150509295509295909350565b600067ffffffffffffffff82111561321b5761321a612ebb565b5b602082029050602081019050919050565b600061323f61323a84613200565b612f1b565b9050808382526020820190506020840283018581111561326257613261613095565b5b835b8181101561328b57806132778882612c0e565b845260208401935050602081019050613264565b5050509392505050565b600082601f8301126132aa576132a9612eb1565b5b81356132ba84826020860161322c565b91505092915050565b600080604083850312156132da576132d9612bbb565b5b600083013567ffffffffffffffff8111156132f8576132f7612bc0565b5b61330485828601613295565b925050602083013567ffffffffffffffff81111561332557613324612bc0565b5b61333185828601613103565b9150509250929050565b600081519050919050565b600082825260208201905092915050565b6000819050602082019050919050565b61337081612c23565b82525050565b60006133828383613367565b60208301905092915050565b6000602082019050919050565b60006133a68261333b565b6133b08185613346565b93506133bb83613357565b8060005b838110156133ec5781516133d38882613376565b97506133de8361338e565b9250506001810190506133bf565b5085935050505092915050565b60006020820190508181036000830152613413818461339b565b905092915050565b60006020820190506134306000830184612e5d565b92915050565b60006020828403121561344c5761344b612bbb565b5b600061345a84828501612c0e565b91505092915050565b61346c81612d48565b811461347757600080fd5b50565b60008135905061348981613463565b92915050565b600080604083850312156134a6576134a5612bbb565b5b60006134b485828601612c0e565b92505060206134c58582860161347a565b9150509250929050565b6000806000606084860312156134e8576134e7612bbb565b5b60006134f686828701612c0e565b935050602061350786828701612c44565b925050604061351886828701612c44565b9150509250925092565b6000806040838503121561353957613538612bbb565b5b600061354785828601612c44565b925050602061355885828601612c44565b9150509250929050565b6000806040838503121561357957613578612bbb565b5b600061358785828601612c0e565b925050602061359885828601612c0e565b9150509250929050565b600080600080600060a086880312156135be576135bd612bbb565b5b60006135cc88828901612c0e565b95505060206135dd88828901612c0e565b94505060406135ee88828901612c44565b93505060606135ff88828901612c44565b925050608086013567ffffffffffffffff8111156136205761361f612bc0565b5b61362c88828901612fb8565b9150509295509295909350565b7f455243313135353a2061646472657373207a65726f206973206e6f742061207660008201527f616c6964206f776e657200000000000000000000000000000000000000000000602082015250565b6000613695602a83612db6565b91506136a082613639565b604082019050919050565b600060208201905081810360008301526136c481613688565b9050919050565b7f4e487b7100000000000000000000000000000000000000000000000000000000600052602260045260246000fd5b6000600282049050600182168061371257607f821691505b602082108103613725576137246136cb565b5b50919050565b7f4e487b7100000000000000000000000000000000000000000000000000000000600052601160045260246000fd5b600061376582612c23565b915061377083612c23565b92508282039050818111156137885761378761372b565b5b92915050565b7f5061737365733a20496e636f72726563742045746865722073656e7400000000600082015250565b60006137c4601c83612db6565b91506137cf8261378e565b602082019050919050565b600060208201905081810360008301526137f3816137b7565b9050919050565b7f5061737365733a204f7574206f662073746f636b000000000000000000000000600082015250565b6000613830601483612db6565b915061383b826137fa565b602082019050919050565b6000602082019050818103600083015261385f81613823565b9050919050565b7f5061737365733a2053616c6520686173206e6f74207374617274656420666f7260008201527f2074686973207061737300000000000000000000000000000000000000000000602082015250565b60006138c2602a83612db6565b91506138cd82613866565b604082019050919050565b600060208201905081810360008301526138f1816138b5565b9050919050565b600061390382612c23565b915061390e83612c23565b92508282019050808211156139265761392561372b565b5b92915050565b7f5061737365733a2053616c652073746172742074696d652073686f756c64206260008201527f6520696e20746865206675747572650000000000000000000000000000000000602082015250565b6000613988602f83612db6565b91506139938261392c565b604082019050919050565b600060208201905081810360008301526139b78161397b565b9050919050565b60006139c982612c23565b91507fffffffffffffffffffffffffffffffffffffffffffffffffffffffffffffffff82036139fb576139fa61372b565b5b600182019050919050565b7f4e487b7100000000000000000000000000000000000000000000000000000000600052603260045260246000fd5b6000604082019050613a4a6000830185612e5d565b613a576020830184612d54565b9392505050565b7f5061737365733a20596f7520646f6e2774206f776e2074686973207061737300600082015250565b6000613a94601f83612db6565b9150613a9f82613a5e565b602082019050919050565b60006020820190508181036000830152613ac381613a87565b9050919050565b7f5061737365733a2054686973207061737320686173206e6f742065787069726560008201527f6420796574000000000000000000000000000000000000000000000000000000602082015250565b6000613b26602583612db6565b9150613b3182613aca565b604082019050919050565b60006020820190508181036000830152613b5581613b19565b9050919050565b7f455243313135353a206163636f756e747320616e6420696473206c656e67746860008201527f206d69736d617463680000000000000000000000000000000000000000000000602082015250565b6000613bb8602983612db6565b9150613bc382613b5c565b604082019050919050565b60006020820190508181036000830152613be781613bab565b9050919050565b600081519050613bfd81612c2d565b92915050565b600060208284031215613c1957613c18612bbb565b5b6000613c2784828501613bee565b91505092915050565b7f4e6f20616374697665206c6f616e20666f756e6420666f72207468697320706160008201527f7373000000000000000000000000000000000000000000000000000000000000602082015250565b6000613c8c602283612db6565b9150613c9782613c30565b604082019050919050565b60006020820190508181036000830152613cbb81613c7f565b9050919050565b7f5468697320706173732068617320616c7265616479206265656e20726574757260008201527f6e65640000000000000000000000000000000000000000000000000000000000602082015250565b6000613d1e602383612db6565b9150613d2982613cc2565b604082019050919050565b60006020820190508181036000830152613d4d81613d11565b9050919050565b7f4f6e6c792074686520626f72726f7765722063616e2072657475726e2062656660008201527f6f72652074686520656e642074696d6500000000000000000000000000000000602082015250565b6000613db0603083612db6565b9150613dbb82613d54565b604082019050919050565b60006020820190508181036000830152613ddf81613da3565b9050919050565b7f596f7520646f6e2774206f776e20746869732070617373000000000000000000600082015250565b6000613e1c601783612db6565b9150613e2782613de6565b602082019050919050565b60006020820190508181036000830152613e4b81613e0f565b9050919050565b7f54686973207061737320697320616c7265616479206c656e74206f7574000000600082015250565b6000613e88601d83612db6565b9150613e9382613e52565b602082019050919050565b60006020820190508181036000830152613eb781613e7b565b9050919050565b7f4f776e61626c653a206e6577206f776e657220697320746865207a65726f206160008201527f6464726573730000000000000000000000000000000000000000000000000000602082015250565b6000613f1a602683612db6565b9150613f2582613ebe565b604082019050919050565b60006020820190508181036000830152613f4981613f0d565b9050919050565b7f455243313135353a207472616e7366657220746f20746865207a65726f20616460008201527f6472657373000000000000000000000000000000000000000000000000000000602082015250565b6000613fac602583612db6565b9150613fb782613f50565b604082019050919050565b60006020820190508181036000830152613fdb81613f9f565b9050919050565b7f455243313135353a20696e73756666696369656e742062616c616e636520666f60008201527f72207472616e7366657200000000000000000000000000000000000000000000602082015250565b600061403e602a83612db6565b915061404982613fe2565b604082019050919050565b6000602082019050818103600083015261406d81614031565b9050919050565b60006040820190506140896000830185612c99565b6140966020830184612c99565b9392505050565b7f4f776e61626c653a2063616c6c6572206973206e6f7420746865206f776e6572600082015250565b60006140d3602083612db6565b91506140de8261409d565b602082019050919050565b60006020820190508181036000830152614102816140c6565b9050919050565b7f455243313135353a206d696e7420746f20746865207a65726f2061646472657360008201527f7300000000000000000000000000000000000000000000000000000000000000602082015250565b6000614165602183612db6565b915061417082614109565b604082019050919050565b6000602082019050818103600083015261419481614158565b9050919050565b7f455243313135353a2063616c6c6572206973206e6f7420746f6b656e206f776e60008201527f6572206f7220617070726f766564000000000000000000000000000000000000602082015250565b60006141f7602e83612db6565b91506142028261419b565b604082019050919050565b60006020820190508181036000830152614226816141ea565b9050919050565b7f455243313135353a2073657474696e6720617070726f76616c2073746174757360008201527f20666f722073656c660000000000000000000000000000000000000000000000602082015250565b6000614289602983612db6565b91506142948261422d565b604082019050919050565b600060208201905081810360008301526142b88161427c565b9050919050565b600081519050919050565b600082825260208201905092915050565b60006142e6826142bf565b6142f081856142ca565b9350614300818560208601612dc7565b61430981612df1565b840191505092915050565b600060a0820190506143296000830188612e5d565b6143366020830187612e5d565b6143436040830186612c99565b6143506060830185612c99565b818103608083015261436281846142db565b90509695505050505050565b60008151905061437d81612cef565b92915050565b60006020828403121561439957614398612bbb565b5b60006143a78482850161436e565b91505092915050565b60008160e01c9050919050565b600060033d11156143dc5760046000803e6143d96000516143b0565b90505b90565b600060443d1061446c576143f1612bb1565b60043d036004823e80513d602482011167ffffffffffffffff8211171561441957505061446c565b808201805167ffffffffffffffff811115614437575050505061446c565b80602083010160043d03850181111561445457505050505061446c565b61446382602001850186612eea565b82955050505050505b90565b7f455243313135353a207472616e7366657220746f206e6f6e2d4552433131353560008201527f526563656976657220696d706c656d656e746572000000000000000000000000602082015250565b60006144cb603483612db6565b91506144d68261446f565b604082019050919050565b600060208201905081810360008301526144fa816144be565b9050919050565b7f455243313135353a204552433131353552656365697665722072656a6563746560008201527f6420746f6b656e73000000000000000000000000000000000000000000000000602082015250565b600061455d602883612db6565b915061456882614501565b604082019050919050565b6000602082019050818103600083015261458c81614550565b9050919050565b7f455243313135353a2069647320616e6420616d6f756e7473206c656e6774682060008201527f6d69736d61746368000000000000000000000000000000000000000000000000602082015250565b60006145ef602883612db6565b91506145fa82614593565b604082019050919050565b6000602082019050818103600083015261461e816145e2565b9050919050565b6000604082019050818103600083015261463f818561339b565b90508181036020830152614653818461339b565b90509392505050565b600060a0820190506146716000830188612e5d565b61467e6020830187612e5d565b8181036040830152614690818661339b565b905081810360608301526146a4818561339b565b905081810360808301526146b881846142db565b9050969550505050505056fea26469706673582212206c76d693298d84d7f27278e943e4f895df628b72a847e6a0fe1dede6b9b84d8c64736f6c63430008130033",
  "linkReferences": {},
  "deployedLinkReferences": {}
}