{
  "_format": "hh-sol-artifact-1",
  "contractName": "Pass",
  "sourceName": "contracts/Pass.sol",
  "abi": [
    {
      "inputs": [],
      "stateMutability": "nonpayable",
      "type": "constructor"
    },
    {
      "anonymous": false,
      "inputs": [
        {
          "indexed": true,
          "internalType": "address",
          "name": "account",
          "type": "address"
        },
        {
          "indexed": true,
          "internalType": "address",
          "name": "operator",
          "type": "address"
        },
        {
          "indexed": false,
          "internalType": "bool",
          "name": "approved",
          "type": "bool"
        }
      ],
      "name": "ApprovalForAll",
      "type": "event"
    },
    {
      "anonymous": false,
      "inputs": [
        {
          "indexed": true,
          "internalType": "address",
          "name": "previousOwner",
          "type": "address"
        },
        {
          "indexed": true,
          "internalType": "address",
          "name": "newOwner",
          "type": "address"
        }
      ],
      "name": "OwnershipTransferred",
      "type": "event"
    },
    {
      "anonymous": false,
      "inputs": [
        {
          "indexed": true,
          "internalType": "address",
          "name": "operator",
          "type": "address"
        },
        {
          "indexed": true,
          "internalType": "address",
          "name": "from",
          "type": "address"
        },
        {
          "indexed": true,
          "internalType": "address",
          "name": "to",
          "type": "address"
        },
        {
          "indexed": false,
          "internalType": "uint256[]",
          "name": "ids",
          "type": "uint256[]"
        },
        {
          "indexed": false,
          "internalType": "uint256[]",
          "name": "values",
          "type": "uint256[]"
        }
      ],
      "name": "TransferBatch",
      "type": "event"
    },
    {
      "anonymous": false,
      "inputs": [
        {
          "indexed": true,
          "internalType": "address",
          "name": "operator",
          "type": "address"
        },
        {
          "indexed": true,
          "internalType": "address",
          "name": "from",
          "type": "address"
        },
        {
          "indexed": true,
          "internalType": "address",
          "name": "to",
          "type": "address"
        },
        {
          "indexed": false,
          "internalType": "uint256",
          "name": "id",
          "type": "uint256"
        },
        {
          "indexed": false,
          "internalType": "uint256",
          "name": "value",
          "type": "uint256"
        }
      ],
      "name": "TransferSingle",
      "type": "event"
    },
    {
      "anonymous": false,
      "inputs": [
        {
          "indexed": false,
          "internalType": "string",
          "name": "value",
          "type": "string"
        },
        {
          "indexed": true,
          "internalType": "uint256",
          "name": "id",
          "type": "uint256"
        }
      ],
      "name": "URI",
      "type": "event"
    },
    {
      "inputs": [
        {
          "internalType": "address",
          "name": "",
          "type": "address"
        },
        {
          "internalType": "uint256",
          "name": "",
          "type": "uint256"
        }
      ],
      "name": "activeLoans",
      "outputs": [
        {
          "internalType": "address",
          "name": "borrower",
          "type": "address"
        },
        {
          "internalType": "uint256",
          "name": "startTime",
          "type": "uint256"
        },
        {
          "internalType": "uint256",
          "name": "endTime",
          "type": "uint256"
        },
        {
          "internalType": "bool",
          "name": "returned",
          "type": "bool"
        }
      ],
      "stateMutability": "view",
      "type": "function"
    },
    {
      "inputs": [],
      "name": "approveContract",
      "outputs": [],
      "stateMutability": "nonpayable",
      "type": "function"
    },
    {
      "inputs": [
        {
          "internalType": "address",
          "name": "account",
          "type": "address"
        },
        {
          "internalType": "uint256",
          "name": "id",
          "type": "uint256"
        }
      ],
      "name": "balanceOf",
      "outputs": [
        {
          "internalType": "uint256",
          "name": "",
          "type": "uint256"
        }
      ],
      "stateMutability": "view",
      "type": "function"
    },
    {
      "inputs": [
        {
          "internalType": "address[]",
          "name": "accounts",
          "type": "address[]"
        },
        {
          "internalType": "uint256[]",
          "name": "ids",
          "type": "uint256[]"
        }
      ],
      "name": "balanceOfBatch",
      "outputs": [
        {
          "internalType": "uint256[]",
          "name": "",
          "type": "uint256[]"
        }
      ],
      "stateMutability": "view",
      "type": "function"
    },
    {
      "inputs": [],
      "name": "discount",
      "outputs": [
        {
          "internalType": "uint256",
          "name": "",
          "type": "uint256"
        }
      ],
      "stateMutability": "view",
      "type": "function"
    },
    {
      "inputs": [
        {
          "internalType": "uint256",
          "name": "passId",
          "type": "uint256"
        }
      ],
      "name": "endLoan",
      "outputs": [],
      "stateMutability": "nonpayable",
      "type": "function"
    },
    {
      "inputs": [
        {
          "internalType": "address",
          "name": "account",
          "type": "address"
        },
        {
          "internalType": "address",
          "name": "operator",
          "type": "address"
        }
      ],
      "name": "isApprovedForAll",
      "outputs": [
        {
          "internalType": "bool",
          "name": "",
          "type": "bool"
        }
      ],
      "stateMutability": "view",
      "type": "function"
    },
    {
      "inputs": [
        {
          "internalType": "address",
          "name": "passHolder",
          "type": "address"
        },
        {
          "internalType": "uint256",
          "name": "passId",
          "type": "uint256"
        }
      ],
      "name": "isPassExpired",
      "outputs": [
        {
          "internalType": "bool",
          "name": "",
          "type": "bool"
        }
      ],
      "stateMutability": "view",
      "type": "function"
    },
    {
      "inputs": [
        {
          "internalType": "address",
          "name": "borrower",
          "type": "address"
        },
        {
          "internalType": "uint256",
          "name": "passId",
          "type": "uint256"
        },
        {
          "internalType": "uint256",
          "name": "duration",
          "type": "uint256"
        }
      ],
      "name": "lendPass",
      "outputs": [],
      "stateMutability": "nonpayable",
      "type": "function"
    },
    {
      "inputs": [
        {
          "internalType": "uint256",
          "name": "amount",
          "type": "uint256"
        },
        {
          "internalType": "uint256",
          "name": "saleStartTime",
          "type": "uint256"
        },
        {
          "internalType": "uint256",
          "name": "_price",
          "type": "uint256"
        },
        {
          "internalType": "bytes",
          "name": "data",
          "type": "bytes"
        }
      ],
      "name": "mintPass",
      "outputs": [],
      "stateMutability": "nonpayable",
      "type": "function"
    },
    {
      "inputs": [],
      "name": "nextPassId",
      "outputs": [
        {
          "internalType": "uint256",
          "name": "",
          "type": "uint256"
        }
      ],
      "stateMutability": "view",
      "type": "function"
    },
    {
      "inputs": [],
      "name": "owner",
      "outputs": [
        {
          "internalType": "address",
          "name": "",
          "type": "address"
        }
      ],
      "stateMutability": "view",
      "type": "function"
    },
    {
      "inputs": [
        {
          "internalType": "address",
          "name": "_user",
          "type": "address"
        }
      ],
      "name": "ownsPreviousCollectionNFT",
      "outputs": [
        {
          "internalType": "bool",
          "name": "",
          "type": "bool"
        }
      ],
      "stateMutability": "view",
      "type": "function"
    },
    {
      "inputs": [],
      "name": "passDuration",
      "outputs": [
        {
          "internalType": "uint256",
          "name": "",
          "type": "uint256"
        }
      ],
      "stateMutability": "view",
      "type": "function"
    },
    {
      "inputs": [
        {
          "internalType": "address",
          "name": "",
          "type": "address"
        },
        {
          "internalType": "uint256",
          "name": "",
          "type": "uint256"
        }
      ],
      "name": "passExpirationTime",
      "outputs": [
        {
          "internalType": "uint256",
          "name": "",
          "type": "uint256"
        }
      ],
      "stateMutability": "view",
      "type": "function"
    },
    {
      "inputs": [
        {
          "internalType": "uint256",
          "name": "",
          "type": "uint256"
        }
      ],
      "name": "passPrice",
      "outputs": [
        {
          "internalType": "uint256",
          "name": "",
          "type": "uint256"
        }
      ],
      "stateMutability": "view",
      "type": "function"
    },
    {
      "inputs": [
        {
          "internalType": "uint256",
          "name": "",
          "type": "uint256"
        }
      ],
      "name": "passSaleStartTime",
      "outputs": [
        {
          "internalType": "uint256",
          "name": "",
          "type": "uint256"
        }
      ],
      "stateMutability": "view",
      "type": "function"
    },
    {
      "inputs": [],
      "name": "previousCollectionAddress",
      "outputs": [
        {
          "internalType": "address",
          "name": "",
          "type": "address"
        }
      ],
      "stateMutability": "view",
      "type": "function"
    },
    {
      "inputs": [
        {
          "internalType": "uint256",
          "name": "passId",
          "type": "uint256"
        },
        {
          "internalType": "uint256",
          "name": "qty",
          "type": "uint256"
        }
      ],
      "name": "purchasePass",
      "outputs": [],
      "stateMutability": "payable",
      "type": "function"
    },
    {
      "inputs": [
        {
          "internalType": "uint256",
          "name": "passId",
          "type": "uint256"
        }
      ],
      "name": "reactivatePass",
      "outputs": [],
      "stateMutability": "payable",
      "type": "function"
    },
    {
      "inputs": [],
      "name": "renounceOwnership",
      "outputs": [],
      "stateMutability": "nonpayable",
      "type": "function"
    },
    {
      "inputs": [
        {
          "internalType": "address",
          "name": "from",
          "type": "address"
        },
        {
          "internalType": "address",
          "name": "to",
          "type": "address"
        },
        {
          "internalType": "uint256[]",
          "name": "ids",
          "type": "uint256[]"
        },
        {
          "internalType": "uint256[]",
          "name": "amounts",
          "type": "uint256[]"
        },
        {
          "internalType": "bytes",
          "name": "data",
          "type": "bytes"
        }
      ],
      "name": "safeBatchTransferFrom",
      "outputs": [],
      "stateMutability": "nonpayable",
      "type": "function"
    },
    {
      "inputs": [
        {
          "internalType": "address",
          "name": "from",
          "type": "address"
        },
        {
          "internalType": "address",
          "name": "to",
          "type": "address"
        },
        {
          "internalType": "uint256",
          "name": "id",
          "type": "uint256"
        },
        {
          "internalType": "uint256",
          "name": "amount",
          "type": "uint256"
        },
        {
          "internalType": "bytes",
          "name": "data",
          "type": "bytes"
        }
      ],
      "name": "safeTransferFrom",
      "outputs": [],
      "stateMutability": "nonpayable",
      "type": "function"
    },
    {
      "inputs": [
        {
          "internalType": "address",
          "name": "operator",
          "type": "address"
        },
        {
          "internalType": "bool",
          "name": "approved",
          "type": "bool"
        }
      ],
      "name": "setApprovalForAll",
      "outputs": [],
      "stateMutability": "nonpayable",
      "type": "function"
    },
    {
      "inputs": [
        {
          "internalType": "uint256",
          "name": "passId",
          "type": "uint256"
        },
        {
          "internalType": "uint256",
          "name": "_price",
          "type": "uint256"
        }
      ],
      "name": "setPassPrice",
      "outputs": [],
      "stateMutability": "nonpayable",
      "type": "function"
    },
    {
      "inputs": [
        {
          "internalType": "address",
          "name": "_previousCollectionAddress",
          "type": "address"
        }
      ],
      "name": "setPreviousCollectionAddress",
      "outputs": [],
      "stateMutability": "nonpayable",
      "type": "function"
    },
    {
      "inputs": [
        {
          "internalType": "bytes4",
          "name": "interfaceId",
          "type": "bytes4"
        }
      ],
      "name": "supportsInterface",
      "outputs": [
        {
          "internalType": "bool",
          "name": "",
          "type": "bool"
        }
      ],
      "stateMutability": "view",
      "type": "function"
    },
    {
      "inputs": [
        {
          "internalType": "address",
          "name": "newOwner",
          "type": "address"
        }
      ],
      "name": "transferOwnership",
      "outputs": [],
      "stateMutability": "nonpayable",
      "type": "function"
    },
    {
      "inputs": [
        {
          "internalType": "uint256",
          "name": "",
          "type": "uint256"
        }
      ],
      "name": "uri",
      "outputs": [
        {
          "internalType": "string",
          "name": "",
          "type": "string"
        }
      ],
      "stateMutability": "view",
      "type": "function"
    }
  ],
  "bytecode": "0x608060405260006004556301e13380600555652d79883d20006006553480156200002857600080fd5b506040518060800160405280604d815260200162004c16604d913962000054816200007b60201b60201c565b5062000075620000696200009060201b60201c565b6200009860201b60201c565b620004bf565b80600290816200008c9190620003d8565b5050565b600033905090565b6000600360009054906101000a900473ffffffffffffffffffffffffffffffffffffffff16905081600360006101000a81548173ffffffffffffffffffffffffffffffffffffffff021916908373ffffffffffffffffffffffffffffffffffffffff1602179055508173ffffffffffffffffffffffffffffffffffffffff168173ffffffffffffffffffffffffffffffffffffffff167f8be0079c531659141344cd1fd0a4f28419497f9722a3daafe3b4186f6b6457e060405160405180910390a35050565b600081519050919050565b7f4e487b7100000000000000000000000000000000000000000000000000000000600052604160045260246000fd5b7f4e487b7100000000000000000000000000000000000000000000000000000000600052602260045260246000fd5b60006002820490506001821680620001e057607f821691505b602082108103620001f657620001f562000198565b5b50919050565b60008190508160005260206000209050919050565b60006020601f8301049050919050565b600082821b905092915050565b600060088302620002607fffffffffffffffffffffffffffffffffffffffffffffffffffffffffffffffff8262000221565b6200026c868362000221565b95508019841693508086168417925050509392505050565b6000819050919050565b6000819050919050565b6000620002b9620002b3620002ad8462000284565b6200028e565b62000284565b9050919050565b6000819050919050565b620002d58362000298565b620002ed620002e482620002c0565b8484546200022e565b825550505050565b600090565b62000304620002f5565b62000311818484620002ca565b505050565b5b8181101562000339576200032d600082620002fa565b60018101905062000317565b5050565b601f82111562000388576200035281620001fc565b6200035d8462000211565b810160208510156200036d578190505b620003856200037c8562000211565b83018262000316565b50505b505050565b600082821c905092915050565b6000620003ad600019846008026200038d565b1980831691505092915050565b6000620003c883836200039a565b9150826002028217905092915050565b620003e3826200015e565b67ffffffffffffffff811115620003ff57620003fe62000169565b5b6200040b8254620001c7565b620004188282856200033d565b600060209050601f8311600181146200045057600084156200043b578287015190505b620004478582620003ba565b865550620004b7565b601f1984166200046086620001fc565b60005b828110156200048a5784890151825560018201915060208501945060208101905062000463565b86831015620004aa5784890151620004a6601f8916826200039a565b8355505b6001600288020188555050505b505050505050565b61474780620004cf6000396000f3fe6080604052600436106101c15760003560e01c80635e0ffccd116100f7578063a22cb46511610095578063e985e9c511610064578063e985e9c51461065c578063f242432a14610699578063f2fde38b146106c2578063f87de02d146106eb576101c1565b8063a22cb465146105a4578063aa792f1b146105cd578063bb5ed241146105f6578063dddff8d31461061f576101c1565b8063715018a6116100d1578063715018a61461051d57806374c9ece7146105345780637870860b146105505780638da5cb5b14610579576101c1565b80635e0ffccd1461048c5780635edaf210146104b55780636b6f4a9d146104f2576101c1565b80633792c916116101645780634c96b9151161013e5780634c96b915146103cb5780634da41b41146103e75780634e1273f4146104245780634f307d3b14610461576101c1565b80633792c9161461034c57806343d00d041461038957806345f93f50146103a0576101c1565b80630e89341c116101a05780630e89341c1461027d57806321111063146102ba5780632c3e9d9d146102fa5780632eb2c2d614610323576101c1565b8062fdd58e146101c657806301ffc9a7146102035780630b0d701d14610240575b600080fd5b3480156101d257600080fd5b506101ed60048036038101906101e89190612c64565b610716565b6040516101fa9190612cb3565b60405180910390f35b34801561020f57600080fd5b5061022a60048036038101906102259190612d26565b6107de565b6040516102379190612d6e565b60405180910390f35b34801561024c57600080fd5b5061026760048036038101906102629190612d89565b6108c0565b6040516102749190612cb3565b60405180910390f35b34801561028957600080fd5b506102a4600480360381019061029f9190612d89565b6108d8565b6040516102b19190612e46565b60405180910390f35b3480156102c657600080fd5b506102e160048036038101906102dc9190612c64565b61096c565b6040516102f19493929190612e77565b60405180910390f35b34801561030657600080fd5b50610321600480360381019061031c9190612ff1565b6109d6565b005b34801561032f57600080fd5b5061034a6004803603810190610345919061313c565b610a88565b005b34801561035857600080fd5b50610373600480360381019061036e9190612d89565b610c2e565b6040516103809190612cb3565b60405180910390f35b34801561039557600080fd5b5061039e610c46565b005b3480156103ac57600080fd5b506103b5610cbe565b6040516103c29190612cb3565b60405180910390f35b6103e560048036038101906103e09190612d89565b610cc4565b005b3480156103f357600080fd5b5061040e60048036038101906104099190612c64565b610eaa565b60405161041b9190612d6e565b60405180910390f35b34801561043057600080fd5b5061044b600480360381019061044691906132ce565b610f07565b6040516104589190613404565b60405180910390f35b34801561046d57600080fd5b50610476611020565b6040516104839190613426565b60405180910390f35b34801561049857600080fd5b506104b360048036038101906104ae9190613441565b611046565b005b3480156104c157600080fd5b506104dc60048036038101906104d79190613441565b611092565b6040516104e99190612d6e565b60405180910390f35b3480156104fe57600080fd5b5061050761113f565b6040516105149190612cb3565b60405180910390f35b34801561052957600080fd5b50610532611145565b005b61054e6004803603810190610549919061346e565b611159565b005b34801561055c57600080fd5b5061057760048036038101906105729190612d89565b611365565b005b34801561058557600080fd5b5061058e611622565b60405161059b9190613426565b60405180910390f35b3480156105b057600080fd5b506105cb60048036038101906105c691906134da565b61164c565b005b3480156105d957600080fd5b506105f460048036038101906105ef919061351a565b611662565b005b34801561060257600080fd5b5061061d6004803603810190610618919061346e565b6118c5565b005b34801561062b57600080fd5b5061064660048036038101906106419190612c64565b6118e9565b6040516106539190612cb3565b60405180910390f35b34801561066857600080fd5b50610683600480360381019061067e919061356d565b61190e565b6040516106909190612d6e565b60405180910390f35b3480156106a557600080fd5b506106c060048036038101906106bb91906135ad565b6119a2565b005b3480156106ce57600080fd5b506106e960048036038101906106e49190613441565b611b08565b005b3480156106f757600080fd5b50610700611b8b565b60405161070d9190612cb3565b60405180910390f35b60008073ffffffffffffffffffffffffffffffffffffffff168373ffffffffffffffffffffffffffffffffffffffff1603610786576040517f08c379a000000000000000000000000000000000000000000000000000000000815260040161077d906136b6565b60405180910390fd5b60008083815260200190815260200160002060008473ffffffffffffffffffffffffffffffffffffffff1673ffffffffffffffffffffffffffffffffffffffff16815260200190815260200160002054905092915050565b60007fd9b67a26000000000000000000000000000000000000000000000000000000007bffffffffffffffffffffffffffffffffffffffffffffffffffffffff1916827bffffffffffffffffffffffffffffffffffffffffffffffffffffffff191614806108a957507f0e89341c000000000000000000000000000000000000000000000000000000007bffffffffffffffffffffffffffffffffffffffffffffffffffffffff1916827bffffffffffffffffffffffffffffffffffffffffffffffffffffffff1916145b806108b957506108b882611b91565b5b9050919050565b60086020528060005260406000206000915090505481565b6060600280546108e790613705565b80601f016020809104026020016040519081016040528092919081815260200182805461091390613705565b80156109605780601f1061093557610100808354040283529160200191610960565b820191906000526020600020905b81548152906001019060200180831161094357829003601f168201915b50505050509050919050565b600a602052816000526040600020602052806000526040600020600091509150508060000160009054906101000a900473ffffffffffffffffffffffffffffffffffffffff16908060010154908060020154908060030160009054906101000a900460ff16905084565b6109de611bfb565b42831015610a21576040517f08c379a0000000000000000000000000000000000000000000000000000000008152600401610a18906137a8565b60405180910390fd5b8160076000600454815260200190815260200160002081905550610a50610a46611622565b6004548684611c79565b826008600060045481526020019081526020016000208190555060046000815480929190610a7d906137f7565b919050555050505050565b610a958585858585611e29565b60005b8351811015610c26576000848281518110610ab657610ab561383f565b5b602002602001015190506000600960008973ffffffffffffffffffffffffffffffffffffffff1673ffffffffffffffffffffffffffffffffffffffff16815260200190815260200160002060008381526020019081526020016000205414610c1257600960008873ffffffffffffffffffffffffffffffffffffffff1673ffffffffffffffffffffffffffffffffffffffff168152602001908152602001600020600082815260200190815260200160002054600960008873ffffffffffffffffffffffffffffffffffffffff1673ffffffffffffffffffffffffffffffffffffffff168152602001908152602001600020600083815260200190815260200160002081905550600960008873ffffffffffffffffffffffffffffffffffffffff1673ffffffffffffffffffffffffffffffffffffffff1681526020019081526020016000206000828152602001908152602001600020600090555b508080610c1e906137f7565b915050610a98565b505050505050565b60076020528060005260406000206000915090505481565b610c4e611bfb565b3073ffffffffffffffffffffffffffffffffffffffff1663a22cb4653060016040518363ffffffff1660e01b8152600401610c8a92919061386e565b600060405180830381600087803b158015610ca457600080fd5b505af1158015610cb8573d6000803e3d6000fd5b50505050565b60045481565b60076000828152602001908152602001600020543414610d19576040517f08c379a0000000000000000000000000000000000000000000000000000000008152600401610d10906138e3565b60405180910390fd5b6000610d253383610716565b11610d65576040517f08c379a0000000000000000000000000000000000000000000000000000000008152600401610d5c9061394f565b60405180910390fd5b600960003373ffffffffffffffffffffffffffffffffffffffff1673ffffffffffffffffffffffffffffffffffffffff1681526020019081526020016000206000828152602001908152602001600020544211610df7576040517f08c379a0000000000000000000000000000000000000000000000000000000008152600401610dee906139e1565b60405180910390fd5b60055442610e059190613a01565b600960003373ffffffffffffffffffffffffffffffffffffffff1673ffffffffffffffffffffffffffffffffffffffff168152602001908152602001600020600083815260200190815260200160002081905550610e61611622565b73ffffffffffffffffffffffffffffffffffffffff166108fc349081150290604051600060405180830381858888f19350505050158015610ea6573d6000803e3d6000fd5b5050565b600042600960008573ffffffffffffffffffffffffffffffffffffffff1673ffffffffffffffffffffffffffffffffffffffff16815260200190815260200160002060008481526020019081526020016000205410905092915050565b60608151835114610f4d576040517f08c379a0000000000000000000000000000000000000000000000000000000008152600401610f4490613aa7565b60405180910390fd5b6000835167ffffffffffffffff811115610f6a57610f69612ec6565b5b604051908082528060200260200182016040528015610f985781602001602082028036833780820191505090505b50905060005b845181101561101557610fe5858281518110610fbd57610fbc61383f565b5b6020026020010151858381518110610fd857610fd761383f565b5b6020026020010151610716565b828281518110610ff857610ff761383f565b5b6020026020010181815250508061100e906137f7565b9050610f9e565b508091505092915050565b600b60009054906101000a900473ffffffffffffffffffffffffffffffffffffffff1681565b61104e611bfb565b80600b60006101000a81548173ffffffffffffffffffffffffffffffffffffffff021916908373ffffffffffffffffffffffffffffffffffffffff16021790555050565b600080600b60009054906101000a900473ffffffffffffffffffffffffffffffffffffffff16905060008173ffffffffffffffffffffffffffffffffffffffff166370a08231856040518263ffffffff1660e01b81526004016110f59190613426565b602060405180830381865afa158015611112573d6000803e3d6000fd5b505050506040513d601f19601f820116820180604052508101906111369190613adc565b11915050919050565b60065481565b61114d611bfb565b6111576000611eca565b565b600060076000848152602001908152602001600020549050600081905061117f33611092565b1561119557600654826111929190613b09565b90505b80836111a19190613b3d565b3410156111e3576040517f08c379a00000000000000000000000000000000000000000000000000000000081526004016111da906138e3565b60405180910390fd5b60006111f66111f0611622565b86610716565b11611236576040517f08c379a000000000000000000000000000000000000000000000000000000000815260040161122d90613bcb565b60405180910390fd5b600860008581526020019081526020016000205442101561128c576040517f08c379a000000000000000000000000000000000000000000000000000000000815260040161128390613c5d565b60405180910390fd5b6112af611297611622565b33868660405180602001604052806000815250611f90565b600554426112bd9190613a01565b600960003373ffffffffffffffffffffffffffffffffffffffff1673ffffffffffffffffffffffffffffffffffffffff168152602001908152602001600020600086815260200190815260200160002081905550611319611622565b73ffffffffffffffffffffffffffffffffffffffff166108fc349081150290604051600060405180830381858888f1935050505015801561135e573d6000803e3d6000fd5b5050505050565b6000600a60003373ffffffffffffffffffffffffffffffffffffffff1673ffffffffffffffffffffffffffffffffffffffff16815260200190815260200160002060008381526020019081526020016000209050600073ffffffffffffffffffffffffffffffffffffffff168160000160009054906101000a900473ffffffffffffffffffffffffffffffffffffffff1673ffffffffffffffffffffffffffffffffffffffff160361144c576040517f08c379a000000000000000000000000000000000000000000000000000000000815260040161144390613cef565b60405180910390fd5b8060030160009054906101000a900460ff161561149e576040517f08c379a000000000000000000000000000000000000000000000000000000000815260040161149590613d81565b60405180910390fd5b3373ffffffffffffffffffffffffffffffffffffffff168160000160009054906101000a900473ffffffffffffffffffffffffffffffffffffffff1673ffffffffffffffffffffffffffffffffffffffff161480611500575080600201544210155b61153f576040517f08c379a000000000000000000000000000000000000000000000000000000000815260040161153690613e13565b60405180910390fd5b6115808160000160009054906101000a900473ffffffffffffffffffffffffffffffffffffffff1633846001604051806020016040528060008152506119a2565b600a60003373ffffffffffffffffffffffffffffffffffffffff1673ffffffffffffffffffffffffffffffffffffffff1681526020019081526020016000206000838152602001908152602001600020600080820160006101000a81549073ffffffffffffffffffffffffffffffffffffffff0219169055600182016000905560028201600090556003820160006101000a81549060ff021916905550505050565b6000600360009054906101000a900473ffffffffffffffffffffffffffffffffffffffff16905090565b61165e61165761222b565b8383612233565b5050565b600061166e3384610716565b116116ae576040517f08c379a00000000000000000000000000000000000000000000000000000000081526004016116a590613e7f565b60405180910390fd5b600073ffffffffffffffffffffffffffffffffffffffff16600a60003373ffffffffffffffffffffffffffffffffffffffff1673ffffffffffffffffffffffffffffffffffffffff168152602001908152602001600020600084815260200190815260200160002060000160009054906101000a900473ffffffffffffffffffffffffffffffffffffffff1673ffffffffffffffffffffffffffffffffffffffff1614611790576040517f08c379a000000000000000000000000000000000000000000000000000000000815260040161178790613eeb565b60405180910390fd5b6117ad3384846001604051806020016040528060008152506119a2565b60405180608001604052808473ffffffffffffffffffffffffffffffffffffffff16815260200142815260200182426117e69190613a01565b815260200160001515815250600a60003373ffffffffffffffffffffffffffffffffffffffff1673ffffffffffffffffffffffffffffffffffffffff168152602001908152602001600020600084815260200190815260200160002060008201518160000160006101000a81548173ffffffffffffffffffffffffffffffffffffffff021916908373ffffffffffffffffffffffffffffffffffffffff160217905550602082015181600101556040820151816002015560608201518160030160006101000a81548160ff021916908315150217905550905050505050565b6118cd611bfb565b8060076000848152602001908152602001600020819055505050565b6009602052816000526040600020602052806000526040600020600091509150505481565b6000600160008473ffffffffffffffffffffffffffffffffffffffff1673ffffffffffffffffffffffffffffffffffffffff16815260200190815260200160002060008373ffffffffffffffffffffffffffffffffffffffff1673ffffffffffffffffffffffffffffffffffffffff16815260200190815260200160002060009054906101000a900460ff16905092915050565b6119af858585858561239f565b6000600960008773ffffffffffffffffffffffffffffffffffffffff1673ffffffffffffffffffffffffffffffffffffffff16815260200190815260200160002060008581526020019081526020016000205414611b0157600960008673ffffffffffffffffffffffffffffffffffffffff1673ffffffffffffffffffffffffffffffffffffffff168152602001908152602001600020600084815260200190815260200160002054600960008673ffffffffffffffffffffffffffffffffffffffff1673ffffffffffffffffffffffffffffffffffffffff168152602001908152602001600020600085815260200190815260200160002081905550600960008673ffffffffffffffffffffffffffffffffffffffff1673ffffffffffffffffffffffffffffffffffffffff1681526020019081526020016000206000848152602001908152602001600020600090555b5050505050565b611b10611bfb565b600073ffffffffffffffffffffffffffffffffffffffff168173ffffffffffffffffffffffffffffffffffffffff1603611b7f576040517f08c379a0000000000000000000000000000000000000000000000000000000008152600401611b7690613f7d565b60405180910390fd5b611b8881611eca565b50565b60055481565b60007f01ffc9a7000000000000000000000000000000000000000000000000000000007bffffffffffffffffffffffffffffffffffffffffffffffffffffffff1916827bffffffffffffffffffffffffffffffffffffffffffffffffffffffff1916149050919050565b611c0361222b565b73ffffffffffffffffffffffffffffffffffffffff16611c21611622565b73ffffffffffffffffffffffffffffffffffffffff1614611c77576040517f08c379a0000000000000000000000000000000000000000000000000000000008152600401611c6e90613fe9565b60405180910390fd5b565b600073ffffffffffffffffffffffffffffffffffffffff168473ffffffffffffffffffffffffffffffffffffffff1603611ce8576040517f08c379a0000000000000000000000000000000000000000000000000000000008152600401611cdf9061407b565b60405180910390fd5b6000611cf261222b565b90506000611cff85612440565b90506000611d0c85612440565b9050611d1d836000898585896124ba565b8460008088815260200190815260200160002060008973ffffffffffffffffffffffffffffffffffffffff1673ffffffffffffffffffffffffffffffffffffffff1681526020019081526020016000206000828254611d7c9190613a01565b925050819055508673ffffffffffffffffffffffffffffffffffffffff16600073ffffffffffffffffffffffffffffffffffffffff168473ffffffffffffffffffffffffffffffffffffffff167fc3d58168c5ae7397731d063d5bbf3d657854427343f4c083240f7aacaa2d0f628989604051611dfa92919061409b565b60405180910390a4611e11836000898585896124c2565b611e20836000898989896124ca565b50505050505050565b611e3161222b565b73ffffffffffffffffffffffffffffffffffffffff168573ffffffffffffffffffffffffffffffffffffffff161480611e775750611e7685611e7161222b565b61190e565b5b611eb6576040517f08c379a0000000000000000000000000000000000000000000000000000000008152600401611ead90614136565b60405180910390fd5b611ec385858585856126a1565b5050505050565b6000600360009054906101000a900473ffffffffffffffffffffffffffffffffffffffff16905081600360006101000a81548173ffffffffffffffffffffffffffffffffffffffff021916908373ffffffffffffffffffffffffffffffffffffffff1602179055508173ffffffffffffffffffffffffffffffffffffffff168173ffffffffffffffffffffffffffffffffffffffff167f8be0079c531659141344cd1fd0a4f28419497f9722a3daafe3b4186f6b6457e060405160405180910390a35050565b600073ffffffffffffffffffffffffffffffffffffffff168473ffffffffffffffffffffffffffffffffffffffff1603611fff576040517f08c379a0000000000000000000000000000000000000000000000000000000008152600401611ff6906141c8565b60405180910390fd5b600061200961222b565b9050600061201685612440565b9050600061202385612440565b90506120338389898585896124ba565b600080600088815260200190815260200160002060008a73ffffffffffffffffffffffffffffffffffffffff1673ffffffffffffffffffffffffffffffffffffffff168152602001908152602001600020549050858110156120ca576040517f08c379a00000000000000000000000000000000000000000000000000000000081526004016120c19061425a565b60405180910390fd5b85810360008089815260200190815260200160002060008b73ffffffffffffffffffffffffffffffffffffffff1673ffffffffffffffffffffffffffffffffffffffff168152602001908152602001600020819055508560008089815260200190815260200160002060008a73ffffffffffffffffffffffffffffffffffffffff1673ffffffffffffffffffffffffffffffffffffffff168152602001908152602001600020600082825461217f9190613a01565b925050819055508773ffffffffffffffffffffffffffffffffffffffff168973ffffffffffffffffffffffffffffffffffffffff168573ffffffffffffffffffffffffffffffffffffffff167fc3d58168c5ae7397731d063d5bbf3d657854427343f4c083240f7aacaa2d0f628a8a6040516121fc92919061409b565b60405180910390a4612212848a8a86868a6124c2565b612220848a8a8a8a8a6124ca565b505050505050505050565b600033905090565b8173ffffffffffffffffffffffffffffffffffffffff168373ffffffffffffffffffffffffffffffffffffffff16036122a1576040517f08c379a0000000000000000000000000000000000000000000000000000000008152600401612298906142ec565b60405180910390fd5b80600160008573ffffffffffffffffffffffffffffffffffffffff1673ffffffffffffffffffffffffffffffffffffffff16815260200190815260200160002060008473ffffffffffffffffffffffffffffffffffffffff1673ffffffffffffffffffffffffffffffffffffffff16815260200190815260200160002060006101000a81548160ff0219169083151502179055508173ffffffffffffffffffffffffffffffffffffffff168373ffffffffffffffffffffffffffffffffffffffff167f17307eab39ab6107e8899845ad3d59bd9653f200f220920489ca2b5937696c31836040516123929190612d6e565b60405180910390a3505050565b6123a761222b565b73ffffffffffffffffffffffffffffffffffffffff168573ffffffffffffffffffffffffffffffffffffffff1614806123ed57506123ec856123e761222b565b61190e565b5b61242c576040517f08c379a000000000000000000000000000000000000000000000000000000000815260040161242390614136565b60405180910390fd5b6124398585858585611f90565b5050505050565b60606000600167ffffffffffffffff81111561245f5761245e612ec6565b5b60405190808252806020026020018201604052801561248d5781602001602082028036833780820191505090505b50905082816000815181106124a5576124a461383f565b5b60200260200101818152505080915050919050565b505050505050565b505050505050565b6124e98473ffffffffffffffffffffffffffffffffffffffff166129c2565b15612699578373ffffffffffffffffffffffffffffffffffffffff1663f23a6e6187878686866040518663ffffffff1660e01b815260040161252f959493929190614361565b6020604051808303816000875af192505050801561256b57506040513d601f19601f8201168201806040525081019061256891906143d0565b60015b6126105761257761440a565b806308c379a0036125d3575061258b61442c565b8061259657506125d5565b806040517f08c379a00000000000000000000000000000000000000000000000000000000081526004016125ca9190612e46565b60405180910390fd5b505b6040517f08c379a00000000000000000000000000000000000000000000000000000000081526004016126079061452e565b60405180910390fd5b63f23a6e6160e01b7bffffffffffffffffffffffffffffffffffffffffffffffffffffffff1916817bffffffffffffffffffffffffffffffffffffffffffffffffffffffff191614612697576040517f08c379a000000000000000000000000000000000000000000000000000000000815260040161268e906145c0565b60405180910390fd5b505b505050505050565b81518351146126e5576040517f08c379a00000000000000000000000000000000000000000000000000000000081526004016126dc90614652565b60405180910390fd5b600073ffffffffffffffffffffffffffffffffffffffff168473ffffffffffffffffffffffffffffffffffffffff1603612754576040517f08c379a000000000000000000000000000000000000000000000000000000000815260040161274b906141c8565b60405180910390fd5b600061275e61222b565b905061276e8187878787876124ba565b60005b845181101561291f57600085828151811061278f5761278e61383f565b5b6020026020010151905060008583815181106127ae576127ad61383f565b5b60200260200101519050600080600084815260200190815260200160002060008b73ffffffffffffffffffffffffffffffffffffffff1673ffffffffffffffffffffffffffffffffffffffff1681526020019081526020016000205490508181101561284f576040517f08c379a00000000000000000000000000000000000000000000000000000000081526004016128469061425a565b60405180910390fd5b81810360008085815260200190815260200160002060008c73ffffffffffffffffffffffffffffffffffffffff1673ffffffffffffffffffffffffffffffffffffffff168152602001908152602001600020819055508160008085815260200190815260200160002060008b73ffffffffffffffffffffffffffffffffffffffff1673ffffffffffffffffffffffffffffffffffffffff16815260200190815260200160002060008282546129049190613a01565b9250508190555050505080612918906137f7565b9050612771565b508473ffffffffffffffffffffffffffffffffffffffff168673ffffffffffffffffffffffffffffffffffffffff168273ffffffffffffffffffffffffffffffffffffffff167f4a39dc06d4c0dbc64b70af90fd698a233a518aa5d07e595d983b8c0526c8f7fb8787604051612996929190614672565b60405180910390a46129ac8187878787876124c2565b6129ba8187878787876129e5565b505050505050565b6000808273ffffffffffffffffffffffffffffffffffffffff163b119050919050565b612a048473ffffffffffffffffffffffffffffffffffffffff166129c2565b15612bb4578373ffffffffffffffffffffffffffffffffffffffff1663bc197c8187878686866040518663ffffffff1660e01b8152600401612a4a9594939291906146a9565b6020604051808303816000875af1925050508015612a8657506040513d601f19601f82011682018060405250810190612a8391906143d0565b60015b612b2b57612a9261440a565b806308c379a003612aee5750612aa661442c565b80612ab15750612af0565b806040517f08c379a0000000000000000000000000000000000000000000000000000000008152600401612ae59190612e46565b60405180910390fd5b505b6040517f08c379a0000000000000000000000000000000000000000000000000000000008152600401612b229061452e565b60405180910390fd5b63bc197c8160e01b7bffffffffffffffffffffffffffffffffffffffffffffffffffffffff1916817bffffffffffffffffffffffffffffffffffffffffffffffffffffffff191614612bb2576040517f08c379a0000000000000000000000000000000000000000000000000000000008152600401612ba9906145c0565b60405180910390fd5b505b505050505050565b6000604051905090565b600080fd5b600080fd5b600073ffffffffffffffffffffffffffffffffffffffff82169050919050565b6000612bfb82612bd0565b9050919050565b612c0b81612bf0565b8114612c1657600080fd5b50565b600081359050612c2881612c02565b92915050565b6000819050919050565b612c4181612c2e565b8114612c4c57600080fd5b50565b600081359050612c5e81612c38565b92915050565b60008060408385031215612c7b57612c7a612bc6565b5b6000612c8985828601612c19565b9250506020612c9a85828601612c4f565b9150509250929050565b612cad81612c2e565b82525050565b6000602082019050612cc86000830184612ca4565b92915050565b60007fffffffff0000000000000000000000000000000000000000000000000000000082169050919050565b612d0381612cce565b8114612d0e57600080fd5b50565b600081359050612d2081612cfa565b92915050565b600060208284031215612d3c57612d3b612bc6565b5b6000612d4a84828501612d11565b91505092915050565b60008115159050919050565b612d6881612d53565b82525050565b6000602082019050612d836000830184612d5f565b92915050565b600060208284031215612d9f57612d9e612bc6565b5b6000612dad84828501612c4f565b91505092915050565b600081519050919050565b600082825260208201905092915050565b60005b83811015612df0578082015181840152602081019050612dd5565b60008484015250505050565b6000601f19601f8301169050919050565b6000612e1882612db6565b612e228185612dc1565b9350612e32818560208601612dd2565b612e3b81612dfc565b840191505092915050565b60006020820190508181036000830152612e608184612e0d565b905092915050565b612e7181612bf0565b82525050565b6000608082019050612e8c6000830187612e68565b612e996020830186612ca4565b612ea66040830185612ca4565b612eb36060830184612d5f565b95945050505050565b600080fd5b600080fd5b7f4e487b7100000000000000000000000000000000000000000000000000000000600052604160045260246000fd5b612efe82612dfc565b810181811067ffffffffffffffff82111715612f1d57612f1c612ec6565b5b80604052505050565b6000612f30612bbc565b9050612f3c8282612ef5565b919050565b600067ffffffffffffffff821115612f5c57612f5b612ec6565b5b612f6582612dfc565b9050602081019050919050565b82818337600083830152505050565b6000612f94612f8f84612f41565b612f26565b905082815260208101848484011115612fb057612faf612ec1565b5b612fbb848285612f72565b509392505050565b600082601f830112612fd857612fd7612ebc565b5b8135612fe8848260208601612f81565b91505092915050565b6000806000806080858703121561300b5761300a612bc6565b5b600061301987828801612c4f565b945050602061302a87828801612c4f565b935050604061303b87828801612c4f565b925050606085013567ffffffffffffffff81111561305c5761305b612bcb565b5b61306887828801612fc3565b91505092959194509250565b600067ffffffffffffffff82111561308f5761308e612ec6565b5b602082029050602081019050919050565b600080fd5b60006130b86130b384613074565b612f26565b905080838252602082019050602084028301858111156130db576130da6130a0565b5b835b8181101561310457806130f08882612c4f565b8452602084019350506020810190506130dd565b5050509392505050565b600082601f83011261312357613122612ebc565b5b81356131338482602086016130a5565b91505092915050565b600080600080600060a0868803121561315857613157612bc6565b5b600061316688828901612c19565b955050602061317788828901612c19565b945050604086013567ffffffffffffffff81111561319857613197612bcb565b5b6131a48882890161310e565b935050606086013567ffffffffffffffff8111156131c5576131c4612bcb565b5b6131d18882890161310e565b925050608086013567ffffffffffffffff8111156131f2576131f1612bcb565b5b6131fe88828901612fc3565b9150509295509295909350565b600067ffffffffffffffff82111561322657613225612ec6565b5b602082029050602081019050919050565b600061324a6132458461320b565b612f26565b9050808382526020820190506020840283018581111561326d5761326c6130a0565b5b835b8181101561329657806132828882612c19565b84526020840193505060208101905061326f565b5050509392505050565b600082601f8301126132b5576132b4612ebc565b5b81356132c5848260208601613237565b91505092915050565b600080604083850312156132e5576132e4612bc6565b5b600083013567ffffffffffffffff81111561330357613302612bcb565b5b61330f858286016132a0565b925050602083013567ffffffffffffffff8111156133305761332f612bcb565b5b61333c8582860161310e565b9150509250929050565b600081519050919050565b600082825260208201905092915050565b6000819050602082019050919050565b61337b81612c2e565b82525050565b600061338d8383613372565b60208301905092915050565b6000602082019050919050565b60006133b182613346565b6133bb8185613351565b93506133c683613362565b8060005b838110156133f75781516133de8882613381565b97506133e983613399565b9250506001810190506133ca565b5085935050505092915050565b6000602082019050818103600083015261341e81846133a6565b905092915050565b600060208201905061343b6000830184612e68565b92915050565b60006020828403121561345757613456612bc6565b5b600061346584828501612c19565b91505092915050565b6000806040838503121561348557613484612bc6565b5b600061349385828601612c4f565b92505060206134a485828601612c4f565b9150509250929050565b6134b781612d53565b81146134c257600080fd5b50565b6000813590506134d4816134ae565b92915050565b600080604083850312156134f1576134f0612bc6565b5b60006134ff85828601612c19565b9250506020613510858286016134c5565b9150509250929050565b60008060006060848603121561353357613532612bc6565b5b600061354186828701612c19565b935050602061355286828701612c4f565b925050604061356386828701612c4f565b9150509250925092565b6000806040838503121561358457613583612bc6565b5b600061359285828601612c19565b92505060206135a385828601612c19565b9150509250929050565b600080600080600060a086880312156135c9576135c8612bc6565b5b60006135d788828901612c19565b95505060206135e888828901612c19565b94505060406135f988828901612c4f565b935050606061360a88828901612c4f565b925050608086013567ffffffffffffffff81111561362b5761362a612bcb565b5b61363788828901612fc3565b9150509295509295909350565b7f455243313135353a2061646472657373207a65726f206973206e6f742061207660008201527f616c6964206f776e657200000000000000000000000000000000000000000000602082015250565b60006136a0602a83612dc1565b91506136ab82613644565b604082019050919050565b600060208201905081810360008301526136cf81613693565b9050919050565b7f4e487b7100000000000000000000000000000000000000000000000000000000600052602260045260246000fd5b6000600282049050600182168061371d57607f821691505b6020821081036137305761372f6136d6565b5b50919050565b7f5061737365733a2053616c652073746172742074696d652073686f756c64206260008201527f6520696e20746865206675747572650000000000000000000000000000000000602082015250565b6000613792602f83612dc1565b915061379d82613736565b604082019050919050565b600060208201905081810360008301526137c181613785565b9050919050565b7f4e487b7100000000000000000000000000000000000000000000000000000000600052601160045260246000fd5b600061380282612c2e565b91507fffffffffffffffffffffffffffffffffffffffffffffffffffffffffffffffff8203613834576138336137c8565b5b600182019050919050565b7f4e487b7100000000000000000000000000000000000000000000000000000000600052603260045260246000fd5b60006040820190506138836000830185612e68565b6138906020830184612d5f565b9392505050565b7f5061737365733a20496e636f72726563742045746865722073656e7400000000600082015250565b60006138cd601c83612dc1565b91506138d882613897565b602082019050919050565b600060208201905081810360008301526138fc816138c0565b9050919050565b7f5061737365733a20596f7520646f6e2774206f776e2074686973207061737300600082015250565b6000613939601f83612dc1565b915061394482613903565b602082019050919050565b600060208201905081810360008301526139688161392c565b9050919050565b7f5061737365733a2054686973207061737320686173206e6f742065787069726560008201527f6420796574000000000000000000000000000000000000000000000000000000602082015250565b60006139cb602583612dc1565b91506139d68261396f565b604082019050919050565b600060208201905081810360008301526139fa816139be565b9050919050565b6000613a0c82612c2e565b9150613a1783612c2e565b9250828201905080821115613a2f57613a2e6137c8565b5b92915050565b7f455243313135353a206163636f756e747320616e6420696473206c656e67746860008201527f206d69736d617463680000000000000000000000000000000000000000000000602082015250565b6000613a91602983612dc1565b9150613a9c82613a35565b604082019050919050565b60006020820190508181036000830152613ac081613a84565b9050919050565b600081519050613ad681612c38565b92915050565b600060208284031215613af257613af1612bc6565b5b6000613b0084828501613ac7565b91505092915050565b6000613b1482612c2e565b9150613b1f83612c2e565b9250828203905081811115613b3757613b366137c8565b5b92915050565b6000613b4882612c2e565b9150613b5383612c2e565b9250828202613b6181612c2e565b91508282048414831517613b7857613b776137c8565b5b5092915050565b7f5061737365733a204f7574206f662073746f636b000000000000000000000000600082015250565b6000613bb5601483612dc1565b9150613bc082613b7f565b602082019050919050565b60006020820190508181036000830152613be481613ba8565b9050919050565b7f5061737365733a2053616c6520686173206e6f74207374617274656420666f7260008201527f2074686973207061737300000000000000000000000000000000000000000000602082015250565b6000613c47602a83612dc1565b9150613c5282613beb565b604082019050919050565b60006020820190508181036000830152613c7681613c3a565b9050919050565b7f4e6f20616374697665206c6f616e20666f756e6420666f72207468697320706160008201527f7373000000000000000000000000000000000000000000000000000000000000602082015250565b6000613cd9602283612dc1565b9150613ce482613c7d565b604082019050919050565b60006020820190508181036000830152613d0881613ccc565b9050919050565b7f5468697320706173732068617320616c7265616479206265656e20726574757260008201527f6e65640000000000000000000000000000000000000000000000000000000000602082015250565b6000613d6b602383612dc1565b9150613d7682613d0f565b604082019050919050565b60006020820190508181036000830152613d9a81613d5e565b9050919050565b7f4f6e6c792074686520626f72726f7765722063616e2072657475726e2062656660008201527f6f72652074686520656e642074696d6500000000000000000000000000000000602082015250565b6000613dfd603083612dc1565b9150613e0882613da1565b604082019050919050565b60006020820190508181036000830152613e2c81613df0565b9050919050565b7f596f7520646f6e2774206f776e20746869732070617373000000000000000000600082015250565b6000613e69601783612dc1565b9150613e7482613e33565b602082019050919050565b60006020820190508181036000830152613e9881613e5c565b9050919050565b7f54686973207061737320697320616c7265616479206c656e74206f7574000000600082015250565b6000613ed5601d83612dc1565b9150613ee082613e9f565b602082019050919050565b60006020820190508181036000830152613f0481613ec8565b9050919050565b7f4f776e61626c653a206e6577206f776e657220697320746865207a65726f206160008201527f6464726573730000000000000000000000000000000000000000000000000000602082015250565b6000613f67602683612dc1565b9150613f7282613f0b565b604082019050919050565b60006020820190508181036000830152613f9681613f5a565b9050919050565b7f4f776e61626c653a2063616c6c6572206973206e6f7420746865206f776e6572600082015250565b6000613fd3602083612dc1565b9150613fde82613f9d565b602082019050919050565b6000602082019050818103600083015261400281613fc6565b9050919050565b7f455243313135353a206d696e7420746f20746865207a65726f2061646472657360008201527f7300000000000000000000000000000000000000000000000000000000000000602082015250565b6000614065602183612dc1565b915061407082614009565b604082019050919050565b6000602082019050818103600083015261409481614058565b9050919050565b60006040820190506140b06000830185612ca4565b6140bd6020830184612ca4565b9392505050565b7f455243313135353a2063616c6c6572206973206e6f7420746f6b656e206f776e60008201527f6572206f7220617070726f766564000000000000000000000000000000000000602082015250565b6000614120602e83612dc1565b915061412b826140c4565b604082019050919050565b6000602082019050818103600083015261414f81614113565b9050919050565b7f455243313135353a207472616e7366657220746f20746865207a65726f20616460008201527f6472657373000000000000000000000000000000000000000000000000000000602082015250565b60006141b2602583612dc1565b91506141bd82614156565b604082019050919050565b600060208201905081810360008301526141e1816141a5565b9050919050565b7f455243313135353a20696e73756666696369656e742062616c616e636520666f60008201527f72207472616e7366657200000000000000000000000000000000000000000000602082015250565b6000614244602a83612dc1565b915061424f826141e8565b604082019050919050565b6000602082019050818103600083015261427381614237565b9050919050565b7f455243313135353a2073657474696e6720617070726f76616c2073746174757360008201527f20666f722073656c660000000000000000000000000000000000000000000000602082015250565b60006142d6602983612dc1565b91506142e18261427a565b604082019050919050565b60006020820190508181036000830152614305816142c9565b9050919050565b600081519050919050565b600082825260208201905092915050565b60006143338261430c565b61433d8185614317565b935061434d818560208601612dd2565b61435681612dfc565b840191505092915050565b600060a0820190506143766000830188612e68565b6143836020830187612e68565b6143906040830186612ca4565b61439d6060830185612ca4565b81810360808301526143af8184614328565b90509695505050505050565b6000815190506143ca81612cfa565b92915050565b6000602082840312156143e6576143e5612bc6565b5b60006143f4848285016143bb565b91505092915050565b60008160e01c9050919050565b600060033d11156144295760046000803e6144266000516143fd565b90505b90565b600060443d106144b95761443e612bbc565b60043d036004823e80513d602482011167ffffffffffffffff821117156144665750506144b9565b808201805167ffffffffffffffff81111561448457505050506144b9565b80602083010160043d0385018111156144a15750505050506144b9565b6144b082602001850186612ef5565b82955050505050505b90565b7f455243313135353a207472616e7366657220746f206e6f6e2d4552433131353560008201527f526563656976657220696d706c656d656e746572000000000000000000000000602082015250565b6000614518603483612dc1565b9150614523826144bc565b604082019050919050565b600060208201905081810360008301526145478161450b565b9050919050565b7f455243313135353a204552433131353552656365697665722072656a6563746560008201527f6420746f6b656e73000000000000000000000000000000000000000000000000602082015250565b60006145aa602883612dc1565b91506145b58261454e565b604082019050919050565b600060208201905081810360008301526145d98161459d565b9050919050565b7f455243313135353a2069647320616e6420616d6f756e7473206c656e6774682060008201527f6d69736d61746368000000000000000000000000000000000000000000000000602082015250565b600061463c602883612dc1565b9150614647826145e0565b604082019050919050565b6000602082019050818103600083015261466b8161462f565b9050919050565b6000604082019050818103600083015261468c81856133a6565b905081810360208301526146a081846133a6565b90509392505050565b600060a0820190506146be6000830188612e68565b6146cb6020830187612e68565b81810360408301526146dd81866133a6565b905081810360608301526146f181856133a6565b905081810360808301526147058184614328565b9050969550505050505056fea2646970667358221220b0e4832331ea3acde9eeeb998120c70204e39b488b1fa726b2c8c292940e477864736f6c6343000813003368747470733a2f2f697066732e696f2f697066732f516d504451686b63796f62637566374477546f62416971663834573275475131727265674b5372585835733343772f7b69647d2e6a736f6e",
  "linkReferences": {},
  "deployedLinkReferences": {}
}